{"contracts/AttendanceManagement.sol":{"AttendanceManagement":{"abi":[{"inputs":[],"stateMutability":"nonpayable","type":"constructor"},{"anonymous":false,"inputs":[{"indexed":false,"internalType":"string","name":"action","type":"string"},{"indexed":true,"internalType":"address","name":"account","type":"address"}],"name":"AdminAction","type":"event"},{"anonymous":false,"inputs":[{"indexed":true,"internalType":"uint256","name":"formId","type":"uint256"},{"indexed":false,"internalType":"uint256","name":"presentCount","type":"uint256"},{"indexed":false,"internalType":"uint256","name":"totalEnrolled","type":"uint256"}],"name":"AttendanceFormClosed","type":"event"},{"anonymous":false,"inputs":[{"indexed":true,"internalType":"uint256","name":"formId","type":"uint256"},{"indexed":true,"internalType":"uint256","name":"courseId","type":"uint256"},{"indexed":true,"internalType":"address","name":"teacher","type":"address"},{"indexed":false,"internalType":"uint256","name":"studentCount","type":"uint256"},{"indexed":false,"internalType":"string","name":"description","type":"string"}],"name":"AttendanceFormCreated","type":"event"},{"anonymous":false,"inputs":[{"indexed":true,"internalType":"uint256","name":"formId","type":"uint256"},{"indexed":true,"internalType":"address","name":"studentAddress","type":"address"},{"indexed":false,"internalType":"bool","name":"attended","type":"bool"}],"name":"AttendanceSubmitted","type":"event"},{"anonymous":false,"inputs":[{"indexed":true,"internalType":"uint256","name":"courseId","type":"uint256"},{"indexed":false,"internalType":"string","name":"name","type":"string"},{"indexed":true,"internalType":"address","name":"teacher","type":"address"}],"name":"CourseAdded","type":"event"},{"anonymous":false,"inputs":[{"indexed":true,"internalType":"uint256","name":"courseId","type":"uint256"},{"indexed":false,"internalType":"bool","name":"isActive","type":"bool"}],"name":"CourseStatusUpdated","type":"event"},{"anonymous":false,"inputs":[{"indexed":true,"internalType":"address","name":"teacherAddress","type":"address"},{"indexed":false,"internalType":"bool","name":"isRegistered","type":"bool"}],"name":"TeacherRegistered","type":"event"},{"inputs":[{"internalType":"string","name":"_courseName","type":"string"}],"name":"addCourse","outputs":[],"stateMutability":"nonpayable","type":"function"},{"inputs":[],"name":"admin","outputs":[{"internalType":"address","name":"","type":"address"}],"stateMutability":"view","type":"function"},{"inputs":[{"internalType":"uint256","name":"","type":"uint256"}],"name":"attendanceForms","outputs":[{"internalType":"uint256","name":"formId","type":"uint256"},{"internalType":"uint256","name":"courseId","type":"uint256"},{"internalType":"address","name":"teacher","type":"address"},{"internalType":"uint256","name":"presentCount","type":"uint256"},{"internalType":"uint64","name":"openTimestamp","type":"uint64"},{"internalType":"uint64","name":"closeTimestamp","type":"uint64"},{"internalType":"enum AttendanceManagement.FormStatus","name":"status","type":"uint8"},{"internalType":"string","name":"description","type":"string"}],"stateMutability":"view","type":"function"},{"inputs":[{"internalType":"uint256","name":"_formId","type":"uint256"}],"name":"closeAttendanceForm","outputs":[],"stateMutability":"nonpayable","type":"function"},{"inputs":[],"name":"courseCounter","outputs":[{"internalType":"uint256","name":"","type":"uint256"}],"stateMutability":"view","type":"function"},{"inputs":[{"internalType":"uint256","name":"","type":"uint256"}],"name":"courses","outputs":[{"internalType":"uint256","name":"courseId","type":"uint256"},{"internalType":"string","name":"name","type":"string"},{"internalType":"address","name":"teacher","type":"address"},{"internalType":"bool","name":"isActive","type":"bool"}],"stateMutability":"view","type":"function"},{"inputs":[{"internalType":"uint256","name":"_courseId","type":"uint256"},{"internalType":"address[]","name":"_studentAddresses","type":"address[]"},{"internalType":"string","name":"_description","type":"string"}],"name":"createAttendanceForm","outputs":[],"stateMutability":"nonpayable","type":"function"},{"inputs":[],"name":"formCounter","outputs":[{"internalType":"uint256","name":"","type":"uint256"}],"stateMutability":"view","type":"function"},{"inputs":[{"internalType":"address","name":"_teacher","type":"address"}],"name":"getActiveTeacherCourseIds","outputs":[{"internalType":"uint256[]","name":"","type":"uint256[]"}],"stateMutability":"view","type":"function"},{"inputs":[{"internalType":"uint256","name":"_formId","type":"uint256"}],"name":"getAttendanceForm","outputs":[{"internalType":"uint256","name":"formId","type":"uint256"},{"internalType":"uint256","name":"courseId","type":"uint256"},{"internalType":"address","name":"teacher","type":"address"},{"internalType":"uint256","name":"enrolledStudentCount","type":"uint256"},{"internalType":"uint256","name":"presentCount","type":"uint256"},{"internalType":"uint64","name":"openTimestamp","type":"uint64"},{"internalType":"uint64","name":"closeTimestamp","type":"uint64"},{"internalType":"enum AttendanceManagement.FormStatus","name":"status","type":"uint8"},{"internalType":"string","name":"description","type":"string"}],"stateMutability":"view","type":"function"},{"inputs":[{"internalType":"uint256","name":"_courseId","type":"uint256"}],"name":"getCourse","outputs":[{"components":[{"internalType":"uint256","name":"courseId","type":"uint256"},{"internalType":"string","name":"name","type":"string"},{"internalType":"address","name":"teacher","type":"address"},{"internalType":"uint256[]","name":"formIds","type":"uint256[]"},{"internalType":"bool","name":"isActive","type":"bool"}],"internalType":"struct AttendanceManagement.Course","name":"","type":"tuple"}],"stateMutability":"view","type":"function"},{"inputs":[{"internalType":"uint256","name":"_formId","type":"uint256"}],"name":"getEnrolledStudentsForForm","outputs":[{"internalType":"address[]","name":"","type":"address[]"}],"stateMutability":"view","type":"function"},{"inputs":[{"internalType":"uint256","name":"_courseId","type":"uint256"}],"name":"getFormIdsForCourse","outputs":[{"internalType":"uint256[]","name":"","type":"uint256[]"}],"stateMutability":"view","type":"function"},{"inputs":[{"internalType":"address","name":"_student","type":"address"}],"name":"getFormsStudentIsEnrolledIn","outputs":[{"internalType":"uint256[]","name":"","type":"uint256[]"}],"stateMutability":"view","type":"function"},{"inputs":[{"internalType":"address","name":"_student","type":"address"},{"internalType":"uint256","name":"_courseId","type":"uint256"}],"name":"getOpenFormsForStudentInCourse","outputs":[{"internalType":"uint256[]","name":"","type":"uint256[]"}],"stateMutability":"view","type":"function"},{"inputs":[{"internalType":"uint256","name":"_formId","type":"uint256"},{"internalType":"address","name":"_student","type":"address"}],"name":"getStudentAttendanceStatusForForm","outputs":[{"internalType":"bool","name":"hasResponded","type":"bool"},{"internalType":"bool","name":"isPresent","type":"bool"}],"stateMutability":"view","type":"function"},{"inputs":[{"internalType":"address","name":"","type":"address"}],"name":"isTeacherRegistered","outputs":[{"internalType":"bool","name":"","type":"bool"}],"stateMutability":"view","type":"function"},{"inputs":[{"internalType":"address","name":"_teacherAddress","type":"address"}],"name":"registerTeacher","outputs":[],"stateMutability":"nonpayable","type":"function"},{"inputs":[{"internalType":"uint256","name":"_formId","type":"uint256"},{"internalType":"bool","name":"_attended","type":"bool"}],"name":"submitAttendance","outputs":[],"stateMutability":"nonpayable","type":"function"},{"inputs":[{"internalType":"address","name":"_teacherAddress","type":"address"}],"name":"unregisterTeacher","outputs":[],"stateMutability":"nonpayable","type":"function"},{"inputs":[{"internalType":"uint256","name":"_courseId","type":"uint256"},{"internalType":"bool","name":"_isActive","type":"bool"}],"name":"updateCourseStatus","outputs":[],"stateMutability":"nonpayable","type":"function"}],"evm":{"bytecode":{"linkReferences":{},"object":"60806040523480156200001157600080fd5b50336000806101000a81548173ffffffffffffffffffffffffffffffffffffffff021916908373ffffffffffffffffffffffffffffffffffffffff160217905550600060038190555060006005819055503373ffffffffffffffffffffffffffffffffffffffff167f381d2e4c63b55a6c9e8d2c9aaf6ce37ae137da219b7f07ab41c797b148b15181604051620000a89062000117565b60405180910390a262000139565b600082825260208201905092915050565b7f436f6e74726163744465706c6f79656400000000000000000000000000000000600082015250565b6000620000ff601083620000b6565b91506200010c82620000c7565b602082019050919050565b600060208201905081810360008301526200013281620000f0565b9050919050565b613d6180620001496000396000f3fe608060405234801561001057600080fd5b50600436106101375760003560e01c806382216fbd116100b8578063d60806671161007c578063d60806671461037b578063e5357db6146103ab578063ea159f81146103c7578063ef39acbb146103f7578063f851a4401461042f578063fab3ae451461044d57610137565b806382216fbd146102c05780638df7dcd8146102de57806396f979d21461030e57806399d2d1b014610341578063c22247b81461035d57610137565b80632e554076116100ff5780632e554076146102055780632f9fdd7b146102215780634cea127b1461025157806350893cd31461026d5780637cb45881146102a457610137565b8063080064241461013c5780630b91e28d1461016c5780630b9bf4eb1461019c57806316310610146101b85780631bfe1c99146101d4575b600080fd5b6101566004803603810190610151919061288e565b61047d565b60405161016391906128d6565b60405180910390f35b61018660048036038101906101819190612927565b61049d565b6040516101939190612b3d565b60405180910390f35b6101b660048036038101906101b19190612927565b610688565b005b6101d260048036038101906101cd919061288e565b6108cb565b005b6101ee60048036038101906101e99190612b5f565b610a72565b6040516101fc929190612b9f565b60405180910390f35b61021f600480360381019061021a9190612cfd565b610b9b565b005b61023b60048036038101906102369190612927565b610e1e565b6040516102489190612df5565b60405180910390f35b61026b60048036038101906102669190612e43565b610f1b565b005b61028760048036038101906102829190612927565b611084565b60405161029b989796959493929190612f85565b60405180910390f35b6102be60048036038101906102b9919061288e565b6111a9565b005b6102c861134f565b6040516102d5919061300a565b60405180910390f35b6102f860048036038101906102f3919061288e565b611355565b6040516103059190613094565b60405180910390f35b61032860048036038101906103239190612927565b611563565b60405161033894939291906130b6565b60405180910390f35b61035b60048036038101906103569190612e43565b611648565b005b6103656119fd565b604051610372919061300a565b60405180910390f35b6103956004803603810190610390919061288e565b611a03565b6040516103a29190613094565b60405180910390f35b6103c560048036038101906103c091906131ca565b611c47565b005b6103e160048036038101906103dc9190612927565b6120a1565b6040516103ee9190613094565b60405180910390f35b610411600480360381019061040c9190612927565b612168565b60405161042699989796959493929190613255565b60405180910390f35b610437612316565b60405161044491906132e9565b60405180910390f35b61046760048036038101906104629190613304565b61233a565b6040516104749190613094565b60405180910390f35b60016020528060005260406000206000915054906101000a900460ff1681565b6104a561276b565b60006002600084815260200190815260200160002060000154036104fe576040517f08c379a00000000000000000000000000000000000000000000000000000000081526004016104f590613390565b60405180910390fd5b600260008381526020019081526020016000206040518060a001604052908160008201548152602001600182018054610536906133df565b80601f0160208091040260200160405190810160405280929190818152602001828054610562906133df565b80156105af5780601f10610584576101008083540402835291602001916105af565b820191906000526020600020905b81548152906001019060200180831161059257829003601f168201915b505050505081526020016002820160009054906101000a900473ffffffffffffffffffffffffffffffffffffffff1673ffffffffffffffffffffffffffffffffffffffff1673ffffffffffffffffffffffffffffffffffffffff1681526020016003820180548060200260200160405190810160405280929190818152602001828054801561065d57602002820191906000526020600020905b815481526020019060010190808311610649575b505050505081526020016004820160009054906101000a900460ff1615151515815250509050919050565b8060006004600083815260200190815260200160002060000154036106e2576040517f08c379a00000000000000000000000000000000000000000000000000000000081526004016106d99061345c565b60405180910390fd5b3373ffffffffffffffffffffffffffffffffffffffff166004600083815260200190815260200160002060020160009054906101000a900473ffffffffffffffffffffffffffffffffffffffff1673ffffffffffffffffffffffffffffffffffffffff1614610786576040517f08c379a000000000000000000000000000000000000000000000000000000000815260040161077d906134c8565b60405180910390fd5b816000600181111561079b5761079a612ec4565b5b6004600083815260200190815260200160002060070160109054906101000a900460ff1660018111156107d1576107d0612ec4565b5b14610811576040517f08c379a000000000000000000000000000000000000000000000000000000000815260040161080890613534565b60405180910390fd5b600060046000858152602001908152602001600020905060018160070160106101000a81548160ff021916908360018111156108505761084f612ec4565b5b0217905550428160070160086101000a81548167ffffffffffffffff021916908367ffffffffffffffff160217905550837fce35d9991cd89e4954f1cd437dec442a95be67615171c2dcac7c8e1777f8f098826006015483600301805490506040516108bd929190613554565b60405180910390a250505050565b60008054906101000a900473ffffffffffffffffffffffffffffffffffffffff1673ffffffffffffffffffffffffffffffffffffffff163373ffffffffffffffffffffffffffffffffffffffff1614610959576040517f08c379a0000000000000000000000000000000000000000000000000000000008152600401610950906135c9565b60405180910390fd5b600073ffffffffffffffffffffffffffffffffffffffff168173ffffffffffffffffffffffffffffffffffffffff16036109c8576040517f08c379a00000000000000000000000000000000000000000000000000000000081526004016109bf90613635565b60405180910390fd5b6000600160008373ffffffffffffffffffffffffffffffffffffffff1673ffffffffffffffffffffffffffffffffffffffff16815260200190815260200160002060006101000a81548160ff0219169083151502179055508073ffffffffffffffffffffffffffffffffffffffff167f21d4de8ef3f1fb405c7d0667855fd39e3b72e0c6eb6f66e768fc71017f4758266000604051610a6791906128d6565b60405180910390a250565b6000806000600460008681526020019081526020016000206000015403610ace576040517f08c379a0000000000000000000000000000000000000000000000000000000008152600401610ac59061345c565b60405180910390fd5b6004600085815260200190815260200160002060040160008473ffffffffffffffffffffffffffffffffffffffff1673ffffffffffffffffffffffffffffffffffffffff16815260200190815260200160002060009054906101000a900460ff166004600086815260200190815260200160002060050160008573ffffffffffffffffffffffffffffffffffffffff1673ffffffffffffffffffffffffffffffffffffffff16815260200190815260200160002060009054906101000a900460ff16915091509250929050565b600160003373ffffffffffffffffffffffffffffffffffffffff1673ffffffffffffffffffffffffffffffffffffffff16815260200190815260200160002060009054906101000a900460ff16610c27576040517f08c379a0000000000000000000000000000000000000000000000000000000008152600401610c1e906136a1565b60405180910390fd5b6000815111610c6b576040517f08c379a0000000000000000000000000000000000000000000000000000000008152600401610c629061370d565b60405180910390fd5b60036000815480929190610c7e9061375c565b91905055506040518060a0016040528060035481526020018281526020013373ffffffffffffffffffffffffffffffffffffffff168152602001600067ffffffffffffffff811115610cd357610cd2612bd2565b5b604051908082528060200260200182016040528015610d015781602001602082028036833780820191505090505b50815260200160011515815250600260006003548152602001908152602001600020600082015181600001556020820151816001019081610d429190613950565b5060408201518160020160006101000a81548173ffffffffffffffffffffffffffffffffffffffff021916908373ffffffffffffffffffffffffffffffffffffffff1602179055506060820151816003019080519060200190610da69291906127b2565b5060808201518160040160006101000a81548160ff0219169083151502179055509050503373ffffffffffffffffffffffffffffffffffffffff166003547f643641c76a40022c4b01cf88a92e7ca45eadfbe987252a93d9ee71b286fd3a8383604051610e139190613a22565b60405180910390a350565b60606000600460008481526020019081526020016000206000015403610e79576040517f08c379a0000000000000000000000000000000000000000000000000000000008152600401610e709061345c565b60405180910390fd5b60046000838152602001908152602001600020600301805480602002602001604051908101604052809291908181526020018280548015610f0f57602002820191906000526020600020905b8160009054906101000a900473ffffffffffffffffffffffffffffffffffffffff1673ffffffffffffffffffffffffffffffffffffffff1681526020019060010190808311610ec5575b50505050509050919050565b816000600260008381526020019081526020016000206000015403610f75576040517f08c379a0000000000000000000000000000000000000000000000000000000008152600401610f6c90613390565b60405180910390fd5b3373ffffffffffffffffffffffffffffffffffffffff166002600083815260200190815260200160002060020160009054906101000a900473ffffffffffffffffffffffffffffffffffffffff1673ffffffffffffffffffffffffffffffffffffffff1614611019576040517f08c379a000000000000000000000000000000000000000000000000000000000815260040161101090613a90565b60405180910390fd5b816002600085815260200190815260200160002060040160006101000a81548160ff021916908315150217905550827fd8df091a46b7f30a953a2033fda083156567ac390c34a49d4d487880cc38a9cf8360405161107791906128d6565b60405180910390a2505050565b60046020528060005260406000206000915090508060000154908060010154908060020160009054906101000a900473ffffffffffffffffffffffffffffffffffffffff16908060060154908060070160009054906101000a900467ffffffffffffffff16908060070160089054906101000a900467ffffffffffffffff16908060070160109054906101000a900460ff1690806008018054611126906133df565b80601f0160208091040260200160405190810160405280929190818152602001828054611152906133df565b801561119f5780601f106111745761010080835404028352916020019161119f565b820191906000526020600020905b81548152906001019060200180831161118257829003601f168201915b5050505050905088565b60008054906101000a900473ffffffffffffffffffffffffffffffffffffffff1673ffffffffffffffffffffffffffffffffffffffff163373ffffffffffffffffffffffffffffffffffffffff1614611237576040517f08c379a000000000000000000000000000000000000000000000000000000000815260040161122e906135c9565b60405180910390fd5b600073ffffffffffffffffffffffffffffffffffffffff168173ffffffffffffffffffffffffffffffffffffffff16036112a6576040517f08c379a000000000000000000000000000000000000000000000000000000000815260040161129d90613635565b60405180910390fd5b60018060008373ffffffffffffffffffffffffffffffffffffffff1673ffffffffffffffffffffffffffffffffffffffff16815260200190815260200160002060006101000a81548160ff0219169083151502179055508073ffffffffffffffffffffffffffffffffffffffff167f21d4de8ef3f1fb405c7d0667855fd39e3b72e0c6eb6f66e768fc71017f475826600160405161134491906128d6565b60405180910390a250565b60035481565b6060600080600190505b6003548111611420578373ffffffffffffffffffffffffffffffffffffffff166002600083815260200190815260200160002060020160009054906101000a900473ffffffffffffffffffffffffffffffffffffffff1673ffffffffffffffffffffffffffffffffffffffff161480156113f957506002600082815260200190815260200160002060040160009054906101000a900460ff165b1561140d5781806114099061375c565b9250505b80806114189061375c565b91505061135f565b5060008167ffffffffffffffff81111561143d5761143c612bd2565b5b60405190808252806020026020018201604052801561146b5781602001602082028036833780820191505090505b509050600080600190505b6003548111611557578573ffffffffffffffffffffffffffffffffffffffff166002600083815260200190815260200160002060020160009054906101000a900473ffffffffffffffffffffffffffffffffffffffff1673ffffffffffffffffffffffffffffffffffffffff1614801561151057506002600082815260200190815260200160002060040160009054906101000a900460ff165b15611544578083838151811061152957611528613ab0565b5b60200260200101818152505081806115409061375c565b9250505b808061154f9061375c565b915050611476565b50819350505050919050565b600260205280600052604060002060009150905080600001549080600101805461158c906133df565b80601f01602080910402602001604051908101604052809291908181526020018280546115b8906133df565b80156116055780601f106115da57610100808354040283529160200191611605565b820191906000526020600020905b8154815290600101906020018083116115e857829003601f168201915b5050505050908060020160009054906101000a900473ffffffffffffffffffffffffffffffffffffffff16908060040160009054906101000a900460ff16905084565b8160008060046000848152602001908152602001600020600301905060005b81805490508110156116ff573373ffffffffffffffffffffffffffffffffffffffff1682828154811061169d5761169c613ab0565b5b9060005260206000200160009054906101000a900473ffffffffffffffffffffffffffffffffffffffff1673ffffffffffffffffffffffffffffffffffffffff16036116ec57600192506116ff565b80806116f79061375c565b915050611667565b5081611740576040517f08c379a000000000000000000000000000000000000000000000000000000000815260040161173790613b2b565b60405180910390fd5b846000600181111561175557611754612ec4565b5b6004600083815260200190815260200160002060070160109054906101000a900460ff16600181111561178b5761178a612ec4565b5b146117cb576040517f08c379a00000000000000000000000000000000000000000000000000000000081526004016117c290613534565b60405180910390fd5b60006004600088815260200190815260200160002090508060040160003373ffffffffffffffffffffffffffffffffffffffff1673ffffffffffffffffffffffffffffffffffffffff16815260200190815260200160002060009054906101000a900460ff1615611871576040517f08c379a000000000000000000000000000000000000000000000000000000000815260040161186890613b97565b60405180910390fd5b60018160040160003373ffffffffffffffffffffffffffffffffffffffff1673ffffffffffffffffffffffffffffffffffffffff16815260200190815260200160002060006101000a81548160ff021916908315150217905550851561194a5760018160050160003373ffffffffffffffffffffffffffffffffffffffff1673ffffffffffffffffffffffffffffffffffffffff16815260200190815260200160002060006101000a81548160ff0219169083151502179055508060060160008154809291906119409061375c565b91905055506119a5565b60008160050160003373ffffffffffffffffffffffffffffffffffffffff1673ffffffffffffffffffffffffffffffffffffffff16815260200190815260200160002060006101000a81548160ff0219169083151502179055505b3373ffffffffffffffffffffffffffffffffffffffff16877f78f3a3825f7635f259d40ce1582465bfd9c7b342b345995c7abe5bbb948b1259886040516119ec91906128d6565b60405180910390a350505050505050565b60055481565b6060600080600190505b6005548111611aea57600060046000838152602001908152602001600020600301905060005b8180549050811015611ad5578573ffffffffffffffffffffffffffffffffffffffff16828281548110611a6957611a68613ab0565b5b9060005260206000200160009054906101000a900473ffffffffffffffffffffffffffffffffffffffff1673ffffffffffffffffffffffffffffffffffffffff1603611ac2578380611aba9061375c565b945050611ad5565b8080611acd9061375c565b915050611a33565b50508080611ae29061375c565b915050611a0d565b5060008167ffffffffffffffff811115611b0757611b06612bd2565b5b604051908082528060200260200182016040528015611b355781602001602082028036833780820191505090505b509050600080600190505b6005548111611c3b57600060046000838152602001908152602001600020600301905060005b8180549050811015611c26578773ffffffffffffffffffffffffffffffffffffffff16828281548110611b9c57611b9b613ab0565b5b9060005260206000200160009054906101000a900473ffffffffffffffffffffffffffffffffffffffff1673ffffffffffffffffffffffffffffffffffffffff1603611c135782858580611bef9061375c565b965081518110611c0257611c01613ab0565b5b602002602001018181525050611c26565b8080611c1e9061375c565b915050611b66565b50508080611c339061375c565b915050611b40565b50819350505050919050565b826000600260008381526020019081526020016000206000015403611ca1576040517f08c379a0000000000000000000000000000000000000000000000000000000008152600401611c9890613390565b60405180910390fd5b3373ffffffffffffffffffffffffffffffffffffffff166002600083815260200190815260200160002060020160009054906101000a900473ffffffffffffffffffffffffffffffffffffffff1673ffffffffffffffffffffffffffffffffffffffff1614611d45576040517f08c379a0000000000000000000000000000000000000000000000000000000008152600401611d3c90613a90565b60405180910390fd5b6002600085815260200190815260200160002060040160009054906101000a900460ff16611da8576040517f08c379a0000000000000000000000000000000000000000000000000000000008152600401611d9f90613c03565b60405180910390fd5b6000835111611dec576040517f08c379a0000000000000000000000000000000000000000000000000000000008152600401611de390613c6f565b60405180910390fd5b60056000815480929190611dff9061375c565b9190505550600060046000600554815260200190815260200160002090506005548160000181905550848160010181905550338160020160006101000a81548173ffffffffffffffffffffffffffffffffffffffff021916908373ffffffffffffffffffffffffffffffffffffffff16021790555060005b8451811015611f9b57600073ffffffffffffffffffffffffffffffffffffffff16858281518110611eab57611eaa613ab0565b5b602002602001015173ffffffffffffffffffffffffffffffffffffffff1603611f09576040517f08c379a0000000000000000000000000000000000000000000000000000000008152600401611f0090613cdb565b60405180910390fd5b81600301858281518110611f2057611f1f613ab0565b5b60200260200101519080600181540180825580915050600190039060005260206000200160009091909190916101000a81548173ffffffffffffffffffffffffffffffffffffffff021916908373ffffffffffffffffffffffffffffffffffffffff1602179055508080611f939061375c565b915050611e77565b5060008160070160106101000a81548160ff02191690836001811115611fc457611fc3612ec4565b5b0217905550428160070160006101000a81548167ffffffffffffffff021916908367ffffffffffffffff160217905550828160080190816120059190613950565b506002600086815260200190815260200160002060030160055490806001815401808255809150506001900390600052602060002001600090919091909150553373ffffffffffffffffffffffffffffffffffffffff16856005547f017a6b6bc8aca9b157488d4efcf8dd92a1459c3c90e7a8783dc0a6c6d9e18d41875187604051612092929190613cfb565b60405180910390a45050505050565b606060006002600084815260200190815260200160002060000154036120fc576040517f08c379a00000000000000000000000000000000000000000000000000000000081526004016120f390613390565b60405180910390fd5b6002600083815260200190815260200160002060030180548060200260200160405190810160405280929190818152602001828054801561215c57602002820191906000526020600020905b815481526020019060010190808311612148575b50505050509050919050565b60008060008060008060008060606000600460008c815260200190815260200160002060000154036121cf576040517f08c379a00000000000000000000000000000000000000000000000000000000081526004016121c69061345c565b60405180910390fd5b6000600460008c81526020019081526020016000209050806000015481600101548260020160009054906101000a900473ffffffffffffffffffffffffffffffffffffffff16836003018054905084600601548560070160009054906101000a900467ffffffffffffffff168660070160089054906101000a900467ffffffffffffffff168760070160109054906101000a900460ff1688600801808054612276906133df565b80601f01602080910402602001604051908101604052809291908181526020018280546122a2906133df565b80156122ef5780601f106122c4576101008083540402835291602001916122ef565b820191906000526020600020905b8154815290600101906020018083116122d257829003601f168201915b50505050509050995099509950995099509950995099509950509193959799909294969850565b60008054906101000a900473ffffffffffffffffffffffffffffffffffffffff1681565b60606000600260008481526020019081526020016000206000015403612395576040517f08c379a000000000000000000000000000000000000000000000000000000000815260040161238c90613390565b60405180910390fd5b60006002600084815260200190815260200160002060030190506000805b82805490508110156125505760008382815481106123d4576123d3613ab0565b5b9060005260206000200154905060006004600083815260200190815260200160002090506000600181111561240c5761240b612ec4565b5b8160070160109054906101000a900460ff1660018111156124305761242f612ec4565b5b0361253b5760005b8160030180549050811015612539578873ffffffffffffffffffffffffffffffffffffffff1682600301828154811061247457612473613ab0565b5b9060005260206000200160009054906101000a900473ffffffffffffffffffffffffffffffffffffffff1673ffffffffffffffffffffffffffffffffffffffff1614801561250e57508160040160008a73ffffffffffffffffffffffffffffffffffffffff1673ffffffffffffffffffffffffffffffffffffffff16815260200190815260200160002060009054906101000a900460ff16155b1561252657848061251e9061375c565b955050612539565b80806125319061375c565b915050612438565b505b505080806125489061375c565b9150506123b3565b5060008167ffffffffffffffff81111561256d5761256c612bd2565b5b60405190808252806020026020018201604052801561259b5781602001602082028036833780820191505090505b5090506000805b848054905081101561275d5760008582815481106125c3576125c2613ab0565b5b906000526020600020015490506000600460008381526020019081526020016000209050600060018111156125fb576125fa612ec4565b5b8160070160109054906101000a900460ff16600181111561261f5761261e612ec4565b5b036127485760005b8160030180549050811015612746578a73ffffffffffffffffffffffffffffffffffffffff1682600301828154811061266357612662613ab0565b5b9060005260206000200160009054906101000a900473ffffffffffffffffffffffffffffffffffffffff1673ffffffffffffffffffffffffffffffffffffffff161480156126fd57508160040160008c73ffffffffffffffffffffffffffffffffffffffff1673ffffffffffffffffffffffffffffffffffffffff16815260200190815260200160002060009054906101000a900460ff16155b15612733578286868061270f9061375c565b97508151811061272257612721613ab0565b5b602002602001018181525050612746565b808061273e9061375c565b915050612627565b505b505080806127559061375c565b9150506125a2565b508194505050505092915050565b6040518060a001604052806000815260200160608152602001600073ffffffffffffffffffffffffffffffffffffffff168152602001606081526020016000151581525090565b8280548282559060005260206000209081019282156127ee579160200282015b828111156127ed5782518255916020019190600101906127d2565b5b5090506127fb91906127ff565b5090565b5b80821115612818576000816000905550600101612800565b5090565b6000604051905090565b600080fd5b600080fd5b600073ffffffffffffffffffffffffffffffffffffffff82169050919050565b600061285b82612830565b9050919050565b61286b81612850565b811461287657600080fd5b50565b60008135905061288881612862565b92915050565b6000602082840312156128a4576128a3612826565b5b60006128b284828501612879565b91505092915050565b60008115159050919050565b6128d0816128bb565b82525050565b60006020820190506128eb60008301846128c7565b92915050565b6000819050919050565b612904816128f1565b811461290f57600080fd5b50565b600081359050612921816128fb565b92915050565b60006020828403121561293d5761293c612826565b5b600061294b84828501612912565b91505092915050565b61295d816128f1565b82525050565b600081519050919050565b600082825260208201905092915050565b60005b8381101561299d578082015181840152602081019050612982565b60008484015250505050565b6000601f19601f8301169050919050565b60006129c582612963565b6129cf818561296e565b93506129df81856020860161297f565b6129e8816129a9565b840191505092915050565b6129fc81612850565b82525050565b600081519050919050565b600082825260208201905092915050565b6000819050602082019050919050565b6000612a3a8383612954565b60208301905092915050565b6000602082019050919050565b6000612a5e82612a02565b612a688185612a0d565b9350612a7383612a1e565b8060005b83811015612aa4578151612a8b8882612a2e565b9750612a9683612a46565b925050600181019050612a77565b5085935050505092915050565b612aba816128bb565b82525050565b600060a083016000830151612ad86000860182612954565b5060208301518482036020860152612af082826129ba565b9150506040830151612b0560408601826129f3565b5060608301518482036060860152612b1d8282612a53565b9150506080830151612b326080860182612ab1565b508091505092915050565b60006020820190508181036000830152612b578184612ac0565b905092915050565b60008060408385031215612b7657612b75612826565b5b6000612b8485828601612912565b9250506020612b9585828601612879565b9150509250929050565b6000604082019050612bb460008301856128c7565b612bc160208301846128c7565b9392505050565b600080fd5b600080fd5b7f4e487b7100000000000000000000000000000000000000000000000000000000600052604160045260246000fd5b612c0a826129a9565b810181811067ffffffffffffffff82111715612c2957612c28612bd2565b5b80604052505050565b6000612c3c61281c565b9050612c488282612c01565b919050565b600067ffffffffffffffff821115612c6857612c67612bd2565b5b612c71826129a9565b9050602081019050919050565b82818337600083830152505050565b6000612ca0612c9b84612c4d565b612c32565b905082815260208101848484011115612cbc57612cbb612bcd565b5b612cc7848285612c7e565b509392505050565b600082601f830112612ce457612ce3612bc8565b5b8135612cf4848260208601612c8d565b91505092915050565b600060208284031215612d1357612d12612826565b5b600082013567ffffffffffffffff811115612d3157612d3061282b565b5b612d3d84828501612ccf565b91505092915050565b600081519050919050565b600082825260208201905092915050565b6000819050602082019050919050565b6000612d7e83836129f3565b60208301905092915050565b6000602082019050919050565b6000612da282612d46565b612dac8185612d51565b9350612db783612d62565b8060005b83811015612de8578151612dcf8882612d72565b9750612dda83612d8a565b925050600181019050612dbb565b5085935050505092915050565b60006020820190508181036000830152612e0f8184612d97565b905092915050565b612e20816128bb565b8114612e2b57600080fd5b50565b600081359050612e3d81612e17565b92915050565b60008060408385031215612e5a57612e59612826565b5b6000612e6885828601612912565b9250506020612e7985828601612e2e565b9150509250929050565b612e8c816128f1565b82525050565b612e9b81612850565b82525050565b600067ffffffffffffffff82169050919050565b612ebe81612ea1565b82525050565b7f4e487b7100000000000000000000000000000000000000000000000000000000600052602160045260246000fd5b60028110612f0457612f03612ec4565b5b50565b6000819050612f1582612ef3565b919050565b6000612f2582612f07565b9050919050565b612f3581612f1a565b82525050565b600082825260208201905092915050565b6000612f5782612963565b612f618185612f3b565b9350612f7181856020860161297f565b612f7a816129a9565b840191505092915050565b600061010082019050612f9b600083018b612e83565b612fa8602083018a612e83565b612fb56040830189612e92565b612fc26060830188612e83565b612fcf6080830187612eb5565b612fdc60a0830186612eb5565b612fe960c0830185612f2c565b81810360e0830152612ffb8184612f4c565b90509998505050505050505050565b600060208201905061301f6000830184612e83565b92915050565b600082825260208201905092915050565b600061304182612a02565b61304b8185613025565b935061305683612a1e565b8060005b8381101561308757815161306e8882612a2e565b975061307983612a46565b92505060018101905061305a565b5085935050505092915050565b600060208201905081810360008301526130ae8184613036565b905092915050565b60006080820190506130cb6000830187612e83565b81810360208301526130dd8186612f4c565b90506130ec6040830185612e92565b6130f960608301846128c7565b95945050505050565b600067ffffffffffffffff82111561311d5761311c612bd2565b5b602082029050602081019050919050565b600080fd5b600061314661314184613102565b612c32565b905080838252602082019050602084028301858111156131695761316861312e565b5b835b81811015613192578061317e8882612879565b84526020840193505060208101905061316b565b5050509392505050565b600082601f8301126131b1576131b0612bc8565b5b81356131c1848260208601613133565b91505092915050565b6000806000606084860312156131e3576131e2612826565b5b60006131f186828701612912565b935050602084013567ffffffffffffffff8111156132125761321161282b565b5b61321e8682870161319c565b925050604084013567ffffffffffffffff81111561323f5761323e61282b565b5b61324b86828701612ccf565b9150509250925092565b60006101208201905061326b600083018c612e83565b613278602083018b612e83565b613285604083018a612e92565b6132926060830189612e83565b61329f6080830188612e83565b6132ac60a0830187612eb5565b6132b960c0830186612eb5565b6132c660e0830185612f2c565b8181036101008301526132d98184612f4c565b90509a9950505050505050505050565b60006020820190506132fe6000830184612e92565b92915050565b6000806040838503121561331b5761331a612826565b5b600061332985828601612879565b925050602061333a85828601612912565b9150509250929050565b7f414d3a436f757273654e6f74466f756e64000000000000000000000000000000600082015250565b600061337a601183612f3b565b915061338582613344565b602082019050919050565b600060208201905081810360008301526133a98161336d565b9050919050565b7f4e487b7100000000000000000000000000000000000000000000000000000000600052602260045260246000fd5b600060028204905060018216806133f757607f821691505b60208210810361340a576134096133b0565b5b50919050565b7f414d3a466f726d4e6f74466f756e640000000000000000000000000000000000600082015250565b6000613446600f83612f3b565b915061345182613410565b602082019050919050565b6000602082019050818103600083015261347581613439565b9050919050565b7f414d3a4e6f74466f726d54656163686572000000000000000000000000000000600082015250565b60006134b2601183612f3b565b91506134bd8261347c565b602082019050919050565b600060208201905081810360008301526134e1816134a5565b9050919050565b7f414d3a466f726d4e6f744f70656e000000000000000000000000000000000000600082015250565b600061351e600e83612f3b565b9150613529826134e8565b602082019050919050565b6000602082019050818103600083015261354d81613511565b9050919050565b60006040820190506135696000830185612e83565b6135766020830184612e83565b9392505050565b7f414d3a4f6e6c7941646d696e0000000000000000000000000000000000000000600082015250565b60006135b3600c83612f3b565b91506135be8261357d565b602082019050919050565b600060208201905081810360008301526135e2816135a6565b9050919050565b7f414d3a496e76616c696454656163686572416464726573730000000000000000600082015250565b600061361f601883612f3b565b915061362a826135e9565b602082019050919050565b6000602082019050818103600083015261364e81613612565b9050919050565b7f414d3a4f6e6c7954656163686572000000000000000000000000000000000000600082015250565b600061368b600e83612f3b565b915061369682613655565b602082019050919050565b600060208201905081810360008301526136ba8161367e565b9050919050565b7f414d3a436f757273654e616d65456d7074790000000000000000000000000000600082015250565b60006136f7601283612f3b565b9150613702826136c1565b602082019050919050565b60006020820190508181036000830152613726816136ea565b9050919050565b7f4e487b7100000000000000000000000000000000000000000000000000000000600052601160045260246000fd5b6000613767826128f1565b91507fffffffffffffffffffffffffffffffffffffffffffffffffffffffffffffffff82036137995761379861372d565b5b600182019050919050565b60008190508160005260206000209050919050565b60006020601f8301049050919050565b600082821b905092915050565b6000600883026138067fffffffffffffffffffffffffffffffffffffffffffffffffffffffffffffffff826137c9565b61381086836137c9565b95508019841693508086168417925050509392505050565b6000819050919050565b600061384d613848613843846128f1565b613828565b6128f1565b9050919050565b6000819050919050565b61386783613832565b61387b61387382613854565b8484546137d6565b825550505050565b600090565b613890613883565b61389b81848461385e565b505050565b5b818110156138bf576138b4600082613888565b6001810190506138a1565b5050565b601f821115613904576138d5816137a4565b6138de846137b9565b810160208510156138ed578190505b6139016138f9856137b9565b8301826138a0565b50505b505050565b600082821c905092915050565b600061392760001984600802613909565b1980831691505092915050565b60006139408383613916565b9150826002028217905092915050565b61395982612963565b67ffffffffffffffff81111561397257613971612bd2565b5b61397c82546133df565b6139878282856138c3565b600060209050601f8311600181146139ba57600084156139a8578287015190505b6139b28582613934565b865550613a1a565b601f1984166139c8866137a4565b60005b828110156139f0578489015182556001820191506020850194506020810190506139cb565b86831015613a0d5784890151613a09601f891682613916565b8355505b6001600288020188555050505b505050505050565b60006020820190508181036000830152613a3c8184612f4c565b905092915050565b7f414d3a4e6f74436f757273655465616368657200000000000000000000000000600082015250565b6000613a7a601383612f3b565b9150613a8582613a44565b602082019050919050565b60006020820190508181036000830152613aa981613a6d565b9050919050565b7f4e487b7100000000000000000000000000000000000000000000000000000000600052603260045260246000fd5b7f414d3a4e6f74456e726f6c6c6564496e466f726d000000000000000000000000600082015250565b6000613b15601483612f3b565b9150613b2082613adf565b602082019050919050565b60006020820190508181036000830152613b4481613b08565b9050919050565b7f414d3a416c7265616479526573706f6e64656400000000000000000000000000600082015250565b6000613b81601383612f3b565b9150613b8c82613b4b565b602082019050919050565b60006020820190508181036000830152613bb081613b74565b9050919050565b7f414d3a436f757273654e6f744163746976650000000000000000000000000000600082015250565b6000613bed601283612f3b565b9150613bf882613bb7565b602082019050919050565b60006020820190508181036000830152613c1c81613be0565b9050919050565b7f414d3a53747564656e744c697374456d70747900000000000000000000000000600082015250565b6000613c59601383612f3b565b9150613c6482613c23565b602082019050919050565b60006020820190508181036000830152613c8881613c4c565b9050919050565b7f414d3a496e76616c696453747564656e7441646472496e4c6973740000000000600082015250565b6000613cc5601b83612f3b565b9150613cd082613c8f565b602082019050919050565b60006020820190508181036000830152613cf481613cb8565b9050919050565b6000604082019050613d106000830185612e83565b8181036020830152613d228184612f4c565b9050939250505056fea2646970667358221220fadaaabdb410512320ef26121f1296fb639c4047f6339db68f6bbd96b824531f64736f6c63430008130033","opcodes":"PUSH1 0x80 PUSH1 0x40 MSTORE CALLVALUE DUP1 ISZERO PUSH3 0x11 JUMPI PUSH1 0x0 DUP1 REVERT JUMPDEST POP CALLER PUSH1 0x0 DUP1 PUSH2 0x100 EXP DUP2 SLOAD DUP2 PUSH20 0xFFFFFFFFFFFFFFFFFFFFFFFFFFFFFFFFFFFFFFFF MUL NOT AND SWAP1 DUP4 PUSH20 0xFFFFFFFFFFFFFFFFFFFFFFFFFFFFFFFFFFFFFFFF AND MUL OR SWAP1 SSTORE POP PUSH1 0x0 PUSH1 0x3 DUP2 SWAP1 SSTORE POP PUSH1 0x0 PUSH1 0x5 DUP2 SWAP1 SSTORE POP CALLER PUSH20 0xFFFFFFFFFFFFFFFFFFFFFFFFFFFFFFFFFFFFFFFF AND PUSH32 0x381D2E4C63B55A6C9E8D2C9AAF6CE37AE137DA219B7F07AB41C797B148B15181 PUSH1 0x40 MLOAD PUSH3 0xA8 SWAP1 PUSH3 0x117 JUMP JUMPDEST PUSH1 0x40 MLOAD DUP1 SWAP2 SUB SWAP1 LOG2 PUSH3 0x139 JUMP JUMPDEST PUSH1 0x0 DUP3 DUP3 MSTORE PUSH1 0x20 DUP3 ADD SWAP1 POP SWAP3 SWAP2 POP POP JUMP JUMPDEST PUSH32 0x436F6E74726163744465706C6F79656400000000000000000000000000000000 PUSH1 0x0 DUP3 ADD MSTORE POP JUMP JUMPDEST PUSH1 0x0 PUSH3 0xFF PUSH1 0x10 DUP4 PUSH3 0xB6 JUMP JUMPDEST SWAP2 POP PUSH3 0x10C DUP3 PUSH3 0xC7 JUMP JUMPDEST PUSH1 0x20 DUP3 ADD SWAP1 POP SWAP2 SWAP1 POP JUMP JUMPDEST PUSH1 0x0 PUSH1 0x20 DUP3 ADD SWAP1 POP DUP2 DUP2 SUB PUSH1 0x0 DUP4 ADD MSTORE PUSH3 0x132 DUP2 PUSH3 0xF0 JUMP JUMPDEST SWAP1 POP SWAP2 SWAP1 POP JUMP JUMPDEST PUSH2 0x3D61 DUP1 PUSH3 0x149 PUSH1 0x0 CODECOPY PUSH1 0x0 RETURN INVALID PUSH1 0x80 PUSH1 0x40 MSTORE CALLVALUE DUP1 ISZERO PUSH2 0x10 JUMPI PUSH1 0x0 DUP1 REVERT JUMPDEST POP PUSH1 0x4 CALLDATASIZE LT PUSH2 0x137 JUMPI PUSH1 0x0 CALLDATALOAD PUSH1 0xE0 SHR DUP1 PUSH4 0x82216FBD GT PUSH2 0xB8 JUMPI DUP1 PUSH4 0xD6080667 GT PUSH2 0x7C JUMPI DUP1 PUSH4 0xD6080667 EQ PUSH2 0x37B JUMPI DUP1 PUSH4 0xE5357DB6 EQ PUSH2 0x3AB JUMPI DUP1 PUSH4 0xEA159F81 EQ PUSH2 0x3C7 JUMPI DUP1 PUSH4 0xEF39ACBB EQ PUSH2 0x3F7 JUMPI DUP1 PUSH4 0xF851A440 EQ PUSH2 0x42F JUMPI DUP1 PUSH4 0xFAB3AE45 EQ PUSH2 0x44D JUMPI PUSH2 0x137 JUMP JUMPDEST DUP1 PUSH4 0x82216FBD EQ PUSH2 0x2C0 JUMPI DUP1 PUSH4 0x8DF7DCD8 EQ PUSH2 0x2DE JUMPI DUP1 PUSH4 0x96F979D2 EQ PUSH2 0x30E JUMPI DUP1 PUSH4 0x99D2D1B0 EQ PUSH2 0x341 JUMPI DUP1 PUSH4 0xC22247B8 EQ PUSH2 0x35D JUMPI PUSH2 0x137 JUMP JUMPDEST DUP1 PUSH4 0x2E554076 GT PUSH2 0xFF JUMPI DUP1 PUSH4 0x2E554076 EQ PUSH2 0x205 JUMPI DUP1 PUSH4 0x2F9FDD7B EQ PUSH2 0x221 JUMPI DUP1 PUSH4 0x4CEA127B EQ PUSH2 0x251 JUMPI DUP1 PUSH4 0x50893CD3 EQ PUSH2 0x26D JUMPI DUP1 PUSH4 0x7CB45881 EQ PUSH2 0x2A4 JUMPI PUSH2 0x137 JUMP JUMPDEST DUP1 PUSH4 0x8006424 EQ PUSH2 0x13C JUMPI DUP1 PUSH4 0xB91E28D EQ PUSH2 0x16C JUMPI DUP1 PUSH4 0xB9BF4EB EQ PUSH2 0x19C JUMPI DUP1 PUSH4 0x16310610 EQ PUSH2 0x1B8 JUMPI DUP1 PUSH4 0x1BFE1C99 EQ PUSH2 0x1D4 JUMPI JUMPDEST PUSH1 0x0 DUP1 REVERT JUMPDEST PUSH2 0x156 PUSH1 0x4 DUP1 CALLDATASIZE SUB DUP2 ADD SWAP1 PUSH2 0x151 SWAP2 SWAP1 PUSH2 0x288E JUMP JUMPDEST PUSH2 0x47D JUMP JUMPDEST PUSH1 0x40 MLOAD PUSH2 0x163 SWAP2 SWAP1 PUSH2 0x28D6 JUMP JUMPDEST PUSH1 0x40 MLOAD DUP1 SWAP2 SUB SWAP1 RETURN JUMPDEST PUSH2 0x186 PUSH1 0x4 DUP1 CALLDATASIZE SUB DUP2 ADD SWAP1 PUSH2 0x181 SWAP2 SWAP1 PUSH2 0x2927 JUMP JUMPDEST PUSH2 0x49D JUMP JUMPDEST PUSH1 0x40 MLOAD PUSH2 0x193 SWAP2 SWAP1 PUSH2 0x2B3D JUMP JUMPDEST PUSH1 0x40 MLOAD DUP1 SWAP2 SUB SWAP1 RETURN JUMPDEST PUSH2 0x1B6 PUSH1 0x4 DUP1 CALLDATASIZE SUB DUP2 ADD SWAP1 PUSH2 0x1B1 SWAP2 SWAP1 PUSH2 0x2927 JUMP JUMPDEST PUSH2 0x688 JUMP JUMPDEST STOP JUMPDEST PUSH2 0x1D2 PUSH1 0x4 DUP1 CALLDATASIZE SUB DUP2 ADD SWAP1 PUSH2 0x1CD SWAP2 SWAP1 PUSH2 0x288E JUMP JUMPDEST PUSH2 0x8CB JUMP JUMPDEST STOP JUMPDEST PUSH2 0x1EE PUSH1 0x4 DUP1 CALLDATASIZE SUB DUP2 ADD SWAP1 PUSH2 0x1E9 SWAP2 SWAP1 PUSH2 0x2B5F JUMP JUMPDEST PUSH2 0xA72 JUMP JUMPDEST PUSH1 0x40 MLOAD PUSH2 0x1FC SWAP3 SWAP2 SWAP1 PUSH2 0x2B9F JUMP JUMPDEST PUSH1 0x40 MLOAD DUP1 SWAP2 SUB SWAP1 RETURN JUMPDEST PUSH2 0x21F PUSH1 0x4 DUP1 CALLDATASIZE SUB DUP2 ADD SWAP1 PUSH2 0x21A SWAP2 SWAP1 PUSH2 0x2CFD JUMP JUMPDEST PUSH2 0xB9B JUMP JUMPDEST STOP JUMPDEST PUSH2 0x23B PUSH1 0x4 DUP1 CALLDATASIZE SUB DUP2 ADD SWAP1 PUSH2 0x236 SWAP2 SWAP1 PUSH2 0x2927 JUMP JUMPDEST PUSH2 0xE1E JUMP JUMPDEST PUSH1 0x40 MLOAD PUSH2 0x248 SWAP2 SWAP1 PUSH2 0x2DF5 JUMP JUMPDEST PUSH1 0x40 MLOAD DUP1 SWAP2 SUB SWAP1 RETURN JUMPDEST PUSH2 0x26B PUSH1 0x4 DUP1 CALLDATASIZE SUB DUP2 ADD SWAP1 PUSH2 0x266 SWAP2 SWAP1 PUSH2 0x2E43 JUMP JUMPDEST PUSH2 0xF1B JUMP JUMPDEST STOP JUMPDEST PUSH2 0x287 PUSH1 0x4 DUP1 CALLDATASIZE SUB DUP2 ADD SWAP1 PUSH2 0x282 SWAP2 SWAP1 PUSH2 0x2927 JUMP JUMPDEST PUSH2 0x1084 JUMP JUMPDEST PUSH1 0x40 MLOAD PUSH2 0x29B SWAP9 SWAP8 SWAP7 SWAP6 SWAP5 SWAP4 SWAP3 SWAP2 SWAP1 PUSH2 0x2F85 JUMP JUMPDEST PUSH1 0x40 MLOAD DUP1 SWAP2 SUB SWAP1 RETURN JUMPDEST PUSH2 0x2BE PUSH1 0x4 DUP1 CALLDATASIZE SUB DUP2 ADD SWAP1 PUSH2 0x2B9 SWAP2 SWAP1 PUSH2 0x288E JUMP JUMPDEST PUSH2 0x11A9 JUMP JUMPDEST STOP JUMPDEST PUSH2 0x2C8 PUSH2 0x134F JUMP JUMPDEST PUSH1 0x40 MLOAD PUSH2 0x2D5 SWAP2 SWAP1 PUSH2 0x300A JUMP JUMPDEST PUSH1 0x40 MLOAD DUP1 SWAP2 SUB SWAP1 RETURN JUMPDEST PUSH2 0x2F8 PUSH1 0x4 DUP1 CALLDATASIZE SUB DUP2 ADD SWAP1 PUSH2 0x2F3 SWAP2 SWAP1 PUSH2 0x288E JUMP JUMPDEST PUSH2 0x1355 JUMP JUMPDEST PUSH1 0x40 MLOAD PUSH2 0x305 SWAP2 SWAP1 PUSH2 0x3094 JUMP JUMPDEST PUSH1 0x40 MLOAD DUP1 SWAP2 SUB SWAP1 RETURN JUMPDEST PUSH2 0x328 PUSH1 0x4 DUP1 CALLDATASIZE SUB DUP2 ADD SWAP1 PUSH2 0x323 SWAP2 SWAP1 PUSH2 0x2927 JUMP JUMPDEST PUSH2 0x1563 JUMP JUMPDEST PUSH1 0x40 MLOAD PUSH2 0x338 SWAP5 SWAP4 SWAP3 SWAP2 SWAP1 PUSH2 0x30B6 JUMP JUMPDEST PUSH1 0x40 MLOAD DUP1 SWAP2 SUB SWAP1 RETURN JUMPDEST PUSH2 0x35B PUSH1 0x4 DUP1 CALLDATASIZE SUB DUP2 ADD SWAP1 PUSH2 0x356 SWAP2 SWAP1 PUSH2 0x2E43 JUMP JUMPDEST PUSH2 0x1648 JUMP JUMPDEST STOP JUMPDEST PUSH2 0x365 PUSH2 0x19FD JUMP JUMPDEST PUSH1 0x40 MLOAD PUSH2 0x372 SWAP2 SWAP1 PUSH2 0x300A JUMP JUMPDEST PUSH1 0x40 MLOAD DUP1 SWAP2 SUB SWAP1 RETURN JUMPDEST PUSH2 0x395 PUSH1 0x4 DUP1 CALLDATASIZE SUB DUP2 ADD SWAP1 PUSH2 0x390 SWAP2 SWAP1 PUSH2 0x288E JUMP JUMPDEST PUSH2 0x1A03 JUMP JUMPDEST PUSH1 0x40 MLOAD PUSH2 0x3A2 SWAP2 SWAP1 PUSH2 0x3094 JUMP JUMPDEST PUSH1 0x40 MLOAD DUP1 SWAP2 SUB SWAP1 RETURN JUMPDEST PUSH2 0x3C5 PUSH1 0x4 DUP1 CALLDATASIZE SUB DUP2 ADD SWAP1 PUSH2 0x3C0 SWAP2 SWAP1 PUSH2 0x31CA JUMP JUMPDEST PUSH2 0x1C47 JUMP JUMPDEST STOP JUMPDEST PUSH2 0x3E1 PUSH1 0x4 DUP1 CALLDATASIZE SUB DUP2 ADD SWAP1 PUSH2 0x3DC SWAP2 SWAP1 PUSH2 0x2927 JUMP JUMPDEST PUSH2 0x20A1 JUMP JUMPDEST PUSH1 0x40 MLOAD PUSH2 0x3EE SWAP2 SWAP1 PUSH2 0x3094 JUMP JUMPDEST PUSH1 0x40 MLOAD DUP1 SWAP2 SUB SWAP1 RETURN JUMPDEST PUSH2 0x411 PUSH1 0x4 DUP1 CALLDATASIZE SUB DUP2 ADD SWAP1 PUSH2 0x40C SWAP2 SWAP1 PUSH2 0x2927 JUMP JUMPDEST PUSH2 0x2168 JUMP JUMPDEST PUSH1 0x40 MLOAD PUSH2 0x426 SWAP10 SWAP9 SWAP8 SWAP7 SWAP6 SWAP5 SWAP4 SWAP3 SWAP2 SWAP1 PUSH2 0x3255 JUMP JUMPDEST PUSH1 0x40 MLOAD DUP1 SWAP2 SUB SWAP1 RETURN JUMPDEST PUSH2 0x437 PUSH2 0x2316 JUMP JUMPDEST PUSH1 0x40 MLOAD PUSH2 0x444 SWAP2 SWAP1 PUSH2 0x32E9 JUMP JUMPDEST PUSH1 0x40 MLOAD DUP1 SWAP2 SUB SWAP1 RETURN JUMPDEST PUSH2 0x467 PUSH1 0x4 DUP1 CALLDATASIZE SUB DUP2 ADD SWAP1 PUSH2 0x462 SWAP2 SWAP1 PUSH2 0x3304 JUMP JUMPDEST PUSH2 0x233A JUMP JUMPDEST PUSH1 0x40 MLOAD PUSH2 0x474 SWAP2 SWAP1 PUSH2 0x3094 JUMP JUMPDEST PUSH1 0x40 MLOAD DUP1 SWAP2 SUB SWAP1 RETURN JUMPDEST PUSH1 0x1 PUSH1 0x20 MSTORE DUP1 PUSH1 0x0 MSTORE PUSH1 0x40 PUSH1 0x0 KECCAK256 PUSH1 0x0 SWAP2 POP SLOAD SWAP1 PUSH2 0x100 EXP SWAP1 DIV PUSH1 0xFF AND DUP2 JUMP JUMPDEST PUSH2 0x4A5 PUSH2 0x276B JUMP JUMPDEST PUSH1 0x0 PUSH1 0x2 PUSH1 0x0 DUP5 DUP2 MSTORE PUSH1 0x20 ADD SWAP1 DUP2 MSTORE PUSH1 0x20 ADD PUSH1 0x0 KECCAK256 PUSH1 0x0 ADD SLOAD SUB PUSH2 0x4FE JUMPI PUSH1 0x40 MLOAD PUSH32 0x8C379A000000000000000000000000000000000000000000000000000000000 DUP2 MSTORE PUSH1 0x4 ADD PUSH2 0x4F5 SWAP1 PUSH2 0x3390 JUMP JUMPDEST PUSH1 0x40 MLOAD DUP1 SWAP2 SUB SWAP1 REVERT JUMPDEST PUSH1 0x2 PUSH1 0x0 DUP4 DUP2 MSTORE PUSH1 0x20 ADD SWAP1 DUP2 MSTORE PUSH1 0x20 ADD PUSH1 0x0 KECCAK256 PUSH1 0x40 MLOAD DUP1 PUSH1 0xA0 ADD PUSH1 0x40 MSTORE SWAP1 DUP2 PUSH1 0x0 DUP3 ADD SLOAD DUP2 MSTORE PUSH1 0x20 ADD PUSH1 0x1 DUP3 ADD DUP1 SLOAD PUSH2 0x536 SWAP1 PUSH2 0x33DF JUMP JUMPDEST DUP1 PUSH1 0x1F ADD PUSH1 0x20 DUP1 SWAP2 DIV MUL PUSH1 0x20 ADD PUSH1 0x40 MLOAD SWAP1 DUP2 ADD PUSH1 0x40 MSTORE DUP1 SWAP3 SWAP2 SWAP1 DUP2 DUP2 MSTORE PUSH1 0x20 ADD DUP3 DUP1 SLOAD PUSH2 0x562 SWAP1 PUSH2 0x33DF JUMP JUMPDEST DUP1 ISZERO PUSH2 0x5AF JUMPI DUP1 PUSH1 0x1F LT PUSH2 0x584 JUMPI PUSH2 0x100 DUP1 DUP4 SLOAD DIV MUL DUP4 MSTORE SWAP2 PUSH1 0x20 ADD SWAP2 PUSH2 0x5AF JUMP JUMPDEST DUP3 ADD SWAP2 SWAP1 PUSH1 0x0 MSTORE PUSH1 0x20 PUSH1 0x0 KECCAK256 SWAP1 JUMPDEST DUP2 SLOAD DUP2 MSTORE SWAP1 PUSH1 0x1 ADD SWAP1 PUSH1 0x20 ADD DUP1 DUP4 GT PUSH2 0x592 JUMPI DUP3 SWAP1 SUB PUSH1 0x1F AND DUP3 ADD SWAP2 JUMPDEST POP POP POP POP POP DUP2 MSTORE PUSH1 0x20 ADD PUSH1 0x2 DUP3 ADD PUSH1 0x0 SWAP1 SLOAD SWAP1 PUSH2 0x100 EXP SWAP1 DIV PUSH20 0xFFFFFFFFFFFFFFFFFFFFFFFFFFFFFFFFFFFFFFFF AND PUSH20 0xFFFFFFFFFFFFFFFFFFFFFFFFFFFFFFFFFFFFFFFF AND PUSH20 0xFFFFFFFFFFFFFFFFFFFFFFFFFFFFFFFFFFFFFFFF AND DUP2 MSTORE PUSH1 0x20 ADD PUSH1 0x3 DUP3 ADD DUP1 SLOAD DUP1 PUSH1 0x20 MUL PUSH1 0x20 ADD PUSH1 0x40 MLOAD SWAP1 DUP2 ADD PUSH1 0x40 MSTORE DUP1 SWAP3 SWAP2 SWAP1 DUP2 DUP2 MSTORE PUSH1 0x20 ADD DUP3 DUP1 SLOAD DUP1 ISZERO PUSH2 0x65D JUMPI PUSH1 0x20 MUL DUP3 ADD SWAP2 SWAP1 PUSH1 0x0 MSTORE PUSH1 0x20 PUSH1 0x0 KECCAK256 SWAP1 JUMPDEST DUP2 SLOAD DUP2 MSTORE PUSH1 0x20 ADD SWAP1 PUSH1 0x1 ADD SWAP1 DUP1 DUP4 GT PUSH2 0x649 JUMPI JUMPDEST POP POP POP POP POP DUP2 MSTORE PUSH1 0x20 ADD PUSH1 0x4 DUP3 ADD PUSH1 0x0 SWAP1 SLOAD SWAP1 PUSH2 0x100 EXP SWAP1 DIV PUSH1 0xFF AND ISZERO ISZERO ISZERO ISZERO DUP2 MSTORE POP POP SWAP1 POP SWAP2 SWAP1 POP JUMP JUMPDEST DUP1 PUSH1 0x0 PUSH1 0x4 PUSH1 0x0 DUP4 DUP2 MSTORE PUSH1 0x20 ADD SWAP1 DUP2 MSTORE PUSH1 0x20 ADD PUSH1 0x0 KECCAK256 PUSH1 0x0 ADD SLOAD SUB PUSH2 0x6E2 JUMPI PUSH1 0x40 MLOAD PUSH32 0x8C379A000000000000000000000000000000000000000000000000000000000 DUP2 MSTORE PUSH1 0x4 ADD PUSH2 0x6D9 SWAP1 PUSH2 0x345C JUMP JUMPDEST PUSH1 0x40 MLOAD DUP1 SWAP2 SUB SWAP1 REVERT JUMPDEST CALLER PUSH20 0xFFFFFFFFFFFFFFFFFFFFFFFFFFFFFFFFFFFFFFFF AND PUSH1 0x4 PUSH1 0x0 DUP4 DUP2 MSTORE PUSH1 0x20 ADD SWAP1 DUP2 MSTORE PUSH1 0x20 ADD PUSH1 0x0 KECCAK256 PUSH1 0x2 ADD PUSH1 0x0 SWAP1 SLOAD SWAP1 PUSH2 0x100 EXP SWAP1 DIV PUSH20 0xFFFFFFFFFFFFFFFFFFFFFFFFFFFFFFFFFFFFFFFF AND PUSH20 0xFFFFFFFFFFFFFFFFFFFFFFFFFFFFFFFFFFFFFFFF AND EQ PUSH2 0x786 JUMPI PUSH1 0x40 MLOAD PUSH32 0x8C379A000000000000000000000000000000000000000000000000000000000 DUP2 MSTORE PUSH1 0x4 ADD PUSH2 0x77D SWAP1 PUSH2 0x34C8 JUMP JUMPDEST PUSH1 0x40 MLOAD DUP1 SWAP2 SUB SWAP1 REVERT JUMPDEST DUP2 PUSH1 0x0 PUSH1 0x1 DUP2 GT ISZERO PUSH2 0x79B JUMPI PUSH2 0x79A PUSH2 0x2EC4 JUMP JUMPDEST JUMPDEST PUSH1 0x4 PUSH1 0x0 DUP4 DUP2 MSTORE PUSH1 0x20 ADD SWAP1 DUP2 MSTORE PUSH1 0x20 ADD PUSH1 0x0 KECCAK256 PUSH1 0x7 ADD PUSH1 0x10 SWAP1 SLOAD SWAP1 PUSH2 0x100 EXP SWAP1 DIV PUSH1 0xFF AND PUSH1 0x1 DUP2 GT ISZERO PUSH2 0x7D1 JUMPI PUSH2 0x7D0 PUSH2 0x2EC4 JUMP JUMPDEST JUMPDEST EQ PUSH2 0x811 JUMPI PUSH1 0x40 MLOAD PUSH32 0x8C379A000000000000000000000000000000000000000000000000000000000 DUP2 MSTORE PUSH1 0x4 ADD PUSH2 0x808 SWAP1 PUSH2 0x3534 JUMP JUMPDEST PUSH1 0x40 MLOAD DUP1 SWAP2 SUB SWAP1 REVERT JUMPDEST PUSH1 0x0 PUSH1 0x4 PUSH1 0x0 DUP6 DUP2 MSTORE PUSH1 0x20 ADD SWAP1 DUP2 MSTORE PUSH1 0x20 ADD PUSH1 0x0 KECCAK256 SWAP1 POP PUSH1 0x1 DUP2 PUSH1 0x7 ADD PUSH1 0x10 PUSH2 0x100 EXP DUP2 SLOAD DUP2 PUSH1 0xFF MUL NOT AND SWAP1 DUP4 PUSH1 0x1 DUP2 GT ISZERO PUSH2 0x850 JUMPI PUSH2 0x84F PUSH2 0x2EC4 JUMP JUMPDEST JUMPDEST MUL OR SWAP1 SSTORE POP TIMESTAMP DUP2 PUSH1 0x7 ADD PUSH1 0x8 PUSH2 0x100 EXP DUP2 SLOAD DUP2 PUSH8 0xFFFFFFFFFFFFFFFF MUL NOT AND SWAP1 DUP4 PUSH8 0xFFFFFFFFFFFFFFFF AND MUL OR SWAP1 SSTORE POP DUP4 PUSH32 0xCE35D9991CD89E4954F1CD437DEC442A95BE67615171C2DCAC7C8E1777F8F098 DUP3 PUSH1 0x6 ADD SLOAD DUP4 PUSH1 0x3 ADD DUP1 SLOAD SWAP1 POP PUSH1 0x40 MLOAD PUSH2 0x8BD SWAP3 SWAP2 SWAP1 PUSH2 0x3554 JUMP JUMPDEST PUSH1 0x40 MLOAD DUP1 SWAP2 SUB SWAP1 LOG2 POP POP POP POP JUMP JUMPDEST PUSH1 0x0 DUP1 SLOAD SWAP1 PUSH2 0x100 EXP SWAP1 DIV PUSH20 0xFFFFFFFFFFFFFFFFFFFFFFFFFFFFFFFFFFFFFFFF AND PUSH20 0xFFFFFFFFFFFFFFFFFFFFFFFFFFFFFFFFFFFFFFFF AND CALLER PUSH20 0xFFFFFFFFFFFFFFFFFFFFFFFFFFFFFFFFFFFFFFFF AND EQ PUSH2 0x959 JUMPI PUSH1 0x40 MLOAD PUSH32 0x8C379A000000000000000000000000000000000000000000000000000000000 DUP2 MSTORE PUSH1 0x4 ADD PUSH2 0x950 SWAP1 PUSH2 0x35C9 JUMP JUMPDEST PUSH1 0x40 MLOAD DUP1 SWAP2 SUB SWAP1 REVERT JUMPDEST PUSH1 0x0 PUSH20 0xFFFFFFFFFFFFFFFFFFFFFFFFFFFFFFFFFFFFFFFF AND DUP2 PUSH20 0xFFFFFFFFFFFFFFFFFFFFFFFFFFFFFFFFFFFFFFFF AND SUB PUSH2 0x9C8 JUMPI PUSH1 0x40 MLOAD PUSH32 0x8C379A000000000000000000000000000000000000000000000000000000000 DUP2 MSTORE PUSH1 0x4 ADD PUSH2 0x9BF SWAP1 PUSH2 0x3635 JUMP JUMPDEST PUSH1 0x40 MLOAD DUP1 SWAP2 SUB SWAP1 REVERT JUMPDEST PUSH1 0x0 PUSH1 0x1 PUSH1 0x0 DUP4 PUSH20 0xFFFFFFFFFFFFFFFFFFFFFFFFFFFFFFFFFFFFFFFF AND PUSH20 0xFFFFFFFFFFFFFFFFFFFFFFFFFFFFFFFFFFFFFFFF AND DUP2 MSTORE PUSH1 0x20 ADD SWAP1 DUP2 MSTORE PUSH1 0x20 ADD PUSH1 0x0 KECCAK256 PUSH1 0x0 PUSH2 0x100 EXP DUP2 SLOAD DUP2 PUSH1 0xFF MUL NOT AND SWAP1 DUP4 ISZERO ISZERO MUL OR SWAP1 SSTORE POP DUP1 PUSH20 0xFFFFFFFFFFFFFFFFFFFFFFFFFFFFFFFFFFFFFFFF AND PUSH32 0x21D4DE8EF3F1FB405C7D0667855FD39E3B72E0C6EB6F66E768FC71017F475826 PUSH1 0x0 PUSH1 0x40 MLOAD PUSH2 0xA67 SWAP2 SWAP1 PUSH2 0x28D6 JUMP JUMPDEST PUSH1 0x40 MLOAD DUP1 SWAP2 SUB SWAP1 LOG2 POP JUMP JUMPDEST PUSH1 0x0 DUP1 PUSH1 0x0 PUSH1 0x4 PUSH1 0x0 DUP7 DUP2 MSTORE PUSH1 0x20 ADD SWAP1 DUP2 MSTORE PUSH1 0x20 ADD PUSH1 0x0 KECCAK256 PUSH1 0x0 ADD SLOAD SUB PUSH2 0xACE JUMPI PUSH1 0x40 MLOAD PUSH32 0x8C379A000000000000000000000000000000000000000000000000000000000 DUP2 MSTORE PUSH1 0x4 ADD PUSH2 0xAC5 SWAP1 PUSH2 0x345C JUMP JUMPDEST PUSH1 0x40 MLOAD DUP1 SWAP2 SUB SWAP1 REVERT JUMPDEST PUSH1 0x4 PUSH1 0x0 DUP6 DUP2 MSTORE PUSH1 0x20 ADD SWAP1 DUP2 MSTORE PUSH1 0x20 ADD PUSH1 0x0 KECCAK256 PUSH1 0x4 ADD PUSH1 0x0 DUP5 PUSH20 0xFFFFFFFFFFFFFFFFFFFFFFFFFFFFFFFFFFFFFFFF AND PUSH20 0xFFFFFFFFFFFFFFFFFFFFFFFFFFFFFFFFFFFFFFFF AND DUP2 MSTORE PUSH1 0x20 ADD SWAP1 DUP2 MSTORE PUSH1 0x20 ADD PUSH1 0x0 KECCAK256 PUSH1 0x0 SWAP1 SLOAD SWAP1 PUSH2 0x100 EXP SWAP1 DIV PUSH1 0xFF AND PUSH1 0x4 PUSH1 0x0 DUP7 DUP2 MSTORE PUSH1 0x20 ADD SWAP1 DUP2 MSTORE PUSH1 0x20 ADD PUSH1 0x0 KECCAK256 PUSH1 0x5 ADD PUSH1 0x0 DUP6 PUSH20 0xFFFFFFFFFFFFFFFFFFFFFFFFFFFFFFFFFFFFFFFF AND PUSH20 0xFFFFFFFFFFFFFFFFFFFFFFFFFFFFFFFFFFFFFFFF AND DUP2 MSTORE PUSH1 0x20 ADD SWAP1 DUP2 MSTORE PUSH1 0x20 ADD PUSH1 0x0 KECCAK256 PUSH1 0x0 SWAP1 SLOAD SWAP1 PUSH2 0x100 EXP SWAP1 DIV PUSH1 0xFF AND SWAP2 POP SWAP2 POP SWAP3 POP SWAP3 SWAP1 POP JUMP JUMPDEST PUSH1 0x1 PUSH1 0x0 CALLER PUSH20 0xFFFFFFFFFFFFFFFFFFFFFFFFFFFFFFFFFFFFFFFF AND PUSH20 0xFFFFFFFFFFFFFFFFFFFFFFFFFFFFFFFFFFFFFFFF AND DUP2 MSTORE PUSH1 0x20 ADD SWAP1 DUP2 MSTORE PUSH1 0x20 ADD PUSH1 0x0 KECCAK256 PUSH1 0x0 SWAP1 SLOAD SWAP1 PUSH2 0x100 EXP SWAP1 DIV PUSH1 0xFF AND PUSH2 0xC27 JUMPI PUSH1 0x40 MLOAD PUSH32 0x8C379A000000000000000000000000000000000000000000000000000000000 DUP2 MSTORE PUSH1 0x4 ADD PUSH2 0xC1E SWAP1 PUSH2 0x36A1 JUMP JUMPDEST PUSH1 0x40 MLOAD DUP1 SWAP2 SUB SWAP1 REVERT JUMPDEST PUSH1 0x0 DUP2 MLOAD GT PUSH2 0xC6B JUMPI PUSH1 0x40 MLOAD PUSH32 0x8C379A000000000000000000000000000000000000000000000000000000000 DUP2 MSTORE PUSH1 0x4 ADD PUSH2 0xC62 SWAP1 PUSH2 0x370D JUMP JUMPDEST PUSH1 0x40 MLOAD DUP1 SWAP2 SUB SWAP1 REVERT JUMPDEST PUSH1 0x3 PUSH1 0x0 DUP2 SLOAD DUP1 SWAP3 SWAP2 SWAP1 PUSH2 0xC7E SWAP1 PUSH2 0x375C JUMP JUMPDEST SWAP2 SWAP1 POP SSTORE POP PUSH1 0x40 MLOAD DUP1 PUSH1 0xA0 ADD PUSH1 0x40 MSTORE DUP1 PUSH1 0x3 SLOAD DUP2 MSTORE PUSH1 0x20 ADD DUP3 DUP2 MSTORE PUSH1 0x20 ADD CALLER PUSH20 0xFFFFFFFFFFFFFFFFFFFFFFFFFFFFFFFFFFFFFFFF AND DUP2 MSTORE PUSH1 0x20 ADD PUSH1 0x0 PUSH8 0xFFFFFFFFFFFFFFFF DUP2 GT ISZERO PUSH2 0xCD3 JUMPI PUSH2 0xCD2 PUSH2 0x2BD2 JUMP JUMPDEST JUMPDEST PUSH1 0x40 MLOAD SWAP1 DUP1 DUP3 MSTORE DUP1 PUSH1 0x20 MUL PUSH1 0x20 ADD DUP3 ADD PUSH1 0x40 MSTORE DUP1 ISZERO PUSH2 0xD01 JUMPI DUP2 PUSH1 0x20 ADD PUSH1 0x20 DUP3 MUL DUP1 CALLDATASIZE DUP4 CALLDATACOPY DUP1 DUP3 ADD SWAP2 POP POP SWAP1 POP JUMPDEST POP DUP2 MSTORE PUSH1 0x20 ADD PUSH1 0x1 ISZERO ISZERO DUP2 MSTORE POP PUSH1 0x2 PUSH1 0x0 PUSH1 0x3 SLOAD DUP2 MSTORE PUSH1 0x20 ADD SWAP1 DUP2 MSTORE PUSH1 0x20 ADD PUSH1 0x0 KECCAK256 PUSH1 0x0 DUP3 ADD MLOAD DUP2 PUSH1 0x0 ADD SSTORE PUSH1 0x20 DUP3 ADD MLOAD DUP2 PUSH1 0x1 ADD SWAP1 DUP2 PUSH2 0xD42 SWAP2 SWAP1 PUSH2 0x3950 JUMP JUMPDEST POP PUSH1 0x40 DUP3 ADD MLOAD DUP2 PUSH1 0x2 ADD PUSH1 0x0 PUSH2 0x100 EXP DUP2 SLOAD DUP2 PUSH20 0xFFFFFFFFFFFFFFFFFFFFFFFFFFFFFFFFFFFFFFFF MUL NOT AND SWAP1 DUP4 PUSH20 0xFFFFFFFFFFFFFFFFFFFFFFFFFFFFFFFFFFFFFFFF AND MUL OR SWAP1 SSTORE POP PUSH1 0x60 DUP3 ADD MLOAD DUP2 PUSH1 0x3 ADD SWAP1 DUP1 MLOAD SWAP1 PUSH1 0x20 ADD SWAP1 PUSH2 0xDA6 SWAP3 SWAP2 SWAP1 PUSH2 0x27B2 JUMP JUMPDEST POP PUSH1 0x80 DUP3 ADD MLOAD DUP2 PUSH1 0x4 ADD PUSH1 0x0 PUSH2 0x100 EXP DUP2 SLOAD DUP2 PUSH1 0xFF MUL NOT AND SWAP1 DUP4 ISZERO ISZERO MUL OR SWAP1 SSTORE POP SWAP1 POP POP CALLER PUSH20 0xFFFFFFFFFFFFFFFFFFFFFFFFFFFFFFFFFFFFFFFF AND PUSH1 0x3 SLOAD PUSH32 0x643641C76A40022C4B01CF88A92E7CA45EADFBE987252A93D9EE71B286FD3A83 DUP4 PUSH1 0x40 MLOAD PUSH2 0xE13 SWAP2 SWAP1 PUSH2 0x3A22 JUMP JUMPDEST PUSH1 0x40 MLOAD DUP1 SWAP2 SUB SWAP1 LOG3 POP JUMP JUMPDEST PUSH1 0x60 PUSH1 0x0 PUSH1 0x4 PUSH1 0x0 DUP5 DUP2 MSTORE PUSH1 0x20 ADD SWAP1 DUP2 MSTORE PUSH1 0x20 ADD PUSH1 0x0 KECCAK256 PUSH1 0x0 ADD SLOAD SUB PUSH2 0xE79 JUMPI PUSH1 0x40 MLOAD PUSH32 0x8C379A000000000000000000000000000000000000000000000000000000000 DUP2 MSTORE PUSH1 0x4 ADD PUSH2 0xE70 SWAP1 PUSH2 0x345C JUMP JUMPDEST PUSH1 0x40 MLOAD DUP1 SWAP2 SUB SWAP1 REVERT JUMPDEST PUSH1 0x4 PUSH1 0x0 DUP4 DUP2 MSTORE PUSH1 0x20 ADD SWAP1 DUP2 MSTORE PUSH1 0x20 ADD PUSH1 0x0 KECCAK256 PUSH1 0x3 ADD DUP1 SLOAD DUP1 PUSH1 0x20 MUL PUSH1 0x20 ADD PUSH1 0x40 MLOAD SWAP1 DUP2 ADD PUSH1 0x40 MSTORE DUP1 SWAP3 SWAP2 SWAP1 DUP2 DUP2 MSTORE PUSH1 0x20 ADD DUP3 DUP1 SLOAD DUP1 ISZERO PUSH2 0xF0F JUMPI PUSH1 0x20 MUL DUP3 ADD SWAP2 SWAP1 PUSH1 0x0 MSTORE PUSH1 0x20 PUSH1 0x0 KECCAK256 SWAP1 JUMPDEST DUP2 PUSH1 0x0 SWAP1 SLOAD SWAP1 PUSH2 0x100 EXP SWAP1 DIV PUSH20 0xFFFFFFFFFFFFFFFFFFFFFFFFFFFFFFFFFFFFFFFF AND PUSH20 0xFFFFFFFFFFFFFFFFFFFFFFFFFFFFFFFFFFFFFFFF AND DUP2 MSTORE PUSH1 0x20 ADD SWAP1 PUSH1 0x1 ADD SWAP1 DUP1 DUP4 GT PUSH2 0xEC5 JUMPI JUMPDEST POP POP POP POP POP SWAP1 POP SWAP2 SWAP1 POP JUMP JUMPDEST DUP2 PUSH1 0x0 PUSH1 0x2 PUSH1 0x0 DUP4 DUP2 MSTORE PUSH1 0x20 ADD SWAP1 DUP2 MSTORE PUSH1 0x20 ADD PUSH1 0x0 KECCAK256 PUSH1 0x0 ADD SLOAD SUB PUSH2 0xF75 JUMPI PUSH1 0x40 MLOAD PUSH32 0x8C379A000000000000000000000000000000000000000000000000000000000 DUP2 MSTORE PUSH1 0x4 ADD PUSH2 0xF6C SWAP1 PUSH2 0x3390 JUMP JUMPDEST PUSH1 0x40 MLOAD DUP1 SWAP2 SUB SWAP1 REVERT JUMPDEST CALLER PUSH20 0xFFFFFFFFFFFFFFFFFFFFFFFFFFFFFFFFFFFFFFFF AND PUSH1 0x2 PUSH1 0x0 DUP4 DUP2 MSTORE PUSH1 0x20 ADD SWAP1 DUP2 MSTORE PUSH1 0x20 ADD PUSH1 0x0 KECCAK256 PUSH1 0x2 ADD PUSH1 0x0 SWAP1 SLOAD SWAP1 PUSH2 0x100 EXP SWAP1 DIV PUSH20 0xFFFFFFFFFFFFFFFFFFFFFFFFFFFFFFFFFFFFFFFF AND PUSH20 0xFFFFFFFFFFFFFFFFFFFFFFFFFFFFFFFFFFFFFFFF AND EQ PUSH2 0x1019 JUMPI PUSH1 0x40 MLOAD PUSH32 0x8C379A000000000000000000000000000000000000000000000000000000000 DUP2 MSTORE PUSH1 0x4 ADD PUSH2 0x1010 SWAP1 PUSH2 0x3A90 JUMP JUMPDEST PUSH1 0x40 MLOAD DUP1 SWAP2 SUB SWAP1 REVERT JUMPDEST DUP2 PUSH1 0x2 PUSH1 0x0 DUP6 DUP2 MSTORE PUSH1 0x20 ADD SWAP1 DUP2 MSTORE PUSH1 0x20 ADD PUSH1 0x0 KECCAK256 PUSH1 0x4 ADD PUSH1 0x0 PUSH2 0x100 EXP DUP2 SLOAD DUP2 PUSH1 0xFF MUL NOT AND SWAP1 DUP4 ISZERO ISZERO MUL OR SWAP1 SSTORE POP DUP3 PUSH32 0xD8DF091A46B7F30A953A2033FDA083156567AC390C34A49D4D487880CC38A9CF DUP4 PUSH1 0x40 MLOAD PUSH2 0x1077 SWAP2 SWAP1 PUSH2 0x28D6 JUMP JUMPDEST PUSH1 0x40 MLOAD DUP1 SWAP2 SUB SWAP1 LOG2 POP POP POP JUMP JUMPDEST PUSH1 0x4 PUSH1 0x20 MSTORE DUP1 PUSH1 0x0 MSTORE PUSH1 0x40 PUSH1 0x0 KECCAK256 PUSH1 0x0 SWAP2 POP SWAP1 POP DUP1 PUSH1 0x0 ADD SLOAD SWAP1 DUP1 PUSH1 0x1 ADD SLOAD SWAP1 DUP1 PUSH1 0x2 ADD PUSH1 0x0 SWAP1 SLOAD SWAP1 PUSH2 0x100 EXP SWAP1 DIV PUSH20 0xFFFFFFFFFFFFFFFFFFFFFFFFFFFFFFFFFFFFFFFF AND SWAP1 DUP1 PUSH1 0x6 ADD SLOAD SWAP1 DUP1 PUSH1 0x7 ADD PUSH1 0x0 SWAP1 SLOAD SWAP1 PUSH2 0x100 EXP SWAP1 DIV PUSH8 0xFFFFFFFFFFFFFFFF AND SWAP1 DUP1 PUSH1 0x7 ADD PUSH1 0x8 SWAP1 SLOAD SWAP1 PUSH2 0x100 EXP SWAP1 DIV PUSH8 0xFFFFFFFFFFFFFFFF AND SWAP1 DUP1 PUSH1 0x7 ADD PUSH1 0x10 SWAP1 SLOAD SWAP1 PUSH2 0x100 EXP SWAP1 DIV PUSH1 0xFF AND SWAP1 DUP1 PUSH1 0x8 ADD DUP1 SLOAD PUSH2 0x1126 SWAP1 PUSH2 0x33DF JUMP JUMPDEST DUP1 PUSH1 0x1F ADD PUSH1 0x20 DUP1 SWAP2 DIV MUL PUSH1 0x20 ADD PUSH1 0x40 MLOAD SWAP1 DUP2 ADD PUSH1 0x40 MSTORE DUP1 SWAP3 SWAP2 SWAP1 DUP2 DUP2 MSTORE PUSH1 0x20 ADD DUP3 DUP1 SLOAD PUSH2 0x1152 SWAP1 PUSH2 0x33DF JUMP JUMPDEST DUP1 ISZERO PUSH2 0x119F JUMPI DUP1 PUSH1 0x1F LT PUSH2 0x1174 JUMPI PUSH2 0x100 DUP1 DUP4 SLOAD DIV MUL DUP4 MSTORE SWAP2 PUSH1 0x20 ADD SWAP2 PUSH2 0x119F JUMP JUMPDEST DUP3 ADD SWAP2 SWAP1 PUSH1 0x0 MSTORE PUSH1 0x20 PUSH1 0x0 KECCAK256 SWAP1 JUMPDEST DUP2 SLOAD DUP2 MSTORE SWAP1 PUSH1 0x1 ADD SWAP1 PUSH1 0x20 ADD DUP1 DUP4 GT PUSH2 0x1182 JUMPI DUP3 SWAP1 SUB PUSH1 0x1F AND DUP3 ADD SWAP2 JUMPDEST POP POP POP POP POP SWAP1 POP DUP9 JUMP JUMPDEST PUSH1 0x0 DUP1 SLOAD SWAP1 PUSH2 0x100 EXP SWAP1 DIV PUSH20 0xFFFFFFFFFFFFFFFFFFFFFFFFFFFFFFFFFFFFFFFF AND PUSH20 0xFFFFFFFFFFFFFFFFFFFFFFFFFFFFFFFFFFFFFFFF AND CALLER PUSH20 0xFFFFFFFFFFFFFFFFFFFFFFFFFFFFFFFFFFFFFFFF AND EQ PUSH2 0x1237 JUMPI PUSH1 0x40 MLOAD PUSH32 0x8C379A000000000000000000000000000000000000000000000000000000000 DUP2 MSTORE PUSH1 0x4 ADD PUSH2 0x122E SWAP1 PUSH2 0x35C9 JUMP JUMPDEST PUSH1 0x40 MLOAD DUP1 SWAP2 SUB SWAP1 REVERT JUMPDEST PUSH1 0x0 PUSH20 0xFFFFFFFFFFFFFFFFFFFFFFFFFFFFFFFFFFFFFFFF AND DUP2 PUSH20 0xFFFFFFFFFFFFFFFFFFFFFFFFFFFFFFFFFFFFFFFF AND SUB PUSH2 0x12A6 JUMPI PUSH1 0x40 MLOAD PUSH32 0x8C379A000000000000000000000000000000000000000000000000000000000 DUP2 MSTORE PUSH1 0x4 ADD PUSH2 0x129D SWAP1 PUSH2 0x3635 JUMP JUMPDEST PUSH1 0x40 MLOAD DUP1 SWAP2 SUB SWAP1 REVERT JUMPDEST PUSH1 0x1 DUP1 PUSH1 0x0 DUP4 PUSH20 0xFFFFFFFFFFFFFFFFFFFFFFFFFFFFFFFFFFFFFFFF AND PUSH20 0xFFFFFFFFFFFFFFFFFFFFFFFFFFFFFFFFFFFFFFFF AND DUP2 MSTORE PUSH1 0x20 ADD SWAP1 DUP2 MSTORE PUSH1 0x20 ADD PUSH1 0x0 KECCAK256 PUSH1 0x0 PUSH2 0x100 EXP DUP2 SLOAD DUP2 PUSH1 0xFF MUL NOT AND SWAP1 DUP4 ISZERO ISZERO MUL OR SWAP1 SSTORE POP DUP1 PUSH20 0xFFFFFFFFFFFFFFFFFFFFFFFFFFFFFFFFFFFFFFFF AND PUSH32 0x21D4DE8EF3F1FB405C7D0667855FD39E3B72E0C6EB6F66E768FC71017F475826 PUSH1 0x1 PUSH1 0x40 MLOAD PUSH2 0x1344 SWAP2 SWAP1 PUSH2 0x28D6 JUMP JUMPDEST PUSH1 0x40 MLOAD DUP1 SWAP2 SUB SWAP1 LOG2 POP JUMP JUMPDEST PUSH1 0x3 SLOAD DUP2 JUMP JUMPDEST PUSH1 0x60 PUSH1 0x0 DUP1 PUSH1 0x1 SWAP1 POP JUMPDEST PUSH1 0x3 SLOAD DUP2 GT PUSH2 0x1420 JUMPI DUP4 PUSH20 0xFFFFFFFFFFFFFFFFFFFFFFFFFFFFFFFFFFFFFFFF AND PUSH1 0x2 PUSH1 0x0 DUP4 DUP2 MSTORE PUSH1 0x20 ADD SWAP1 DUP2 MSTORE PUSH1 0x20 ADD PUSH1 0x0 KECCAK256 PUSH1 0x2 ADD PUSH1 0x0 SWAP1 SLOAD SWAP1 PUSH2 0x100 EXP SWAP1 DIV PUSH20 0xFFFFFFFFFFFFFFFFFFFFFFFFFFFFFFFFFFFFFFFF AND PUSH20 0xFFFFFFFFFFFFFFFFFFFFFFFFFFFFFFFFFFFFFFFF AND EQ DUP1 ISZERO PUSH2 0x13F9 JUMPI POP PUSH1 0x2 PUSH1 0x0 DUP3 DUP2 MSTORE PUSH1 0x20 ADD SWAP1 DUP2 MSTORE PUSH1 0x20 ADD PUSH1 0x0 KECCAK256 PUSH1 0x4 ADD PUSH1 0x0 SWAP1 SLOAD SWAP1 PUSH2 0x100 EXP SWAP1 DIV PUSH1 0xFF AND JUMPDEST ISZERO PUSH2 0x140D JUMPI DUP2 DUP1 PUSH2 0x1409 SWAP1 PUSH2 0x375C JUMP JUMPDEST SWAP3 POP POP JUMPDEST DUP1 DUP1 PUSH2 0x1418 SWAP1 PUSH2 0x375C JUMP JUMPDEST SWAP2 POP POP PUSH2 0x135F JUMP JUMPDEST POP PUSH1 0x0 DUP2 PUSH8 0xFFFFFFFFFFFFFFFF DUP2 GT ISZERO PUSH2 0x143D JUMPI PUSH2 0x143C PUSH2 0x2BD2 JUMP JUMPDEST JUMPDEST PUSH1 0x40 MLOAD SWAP1 DUP1 DUP3 MSTORE DUP1 PUSH1 0x20 MUL PUSH1 0x20 ADD DUP3 ADD PUSH1 0x40 MSTORE DUP1 ISZERO PUSH2 0x146B JUMPI DUP2 PUSH1 0x20 ADD PUSH1 0x20 DUP3 MUL DUP1 CALLDATASIZE DUP4 CALLDATACOPY DUP1 DUP3 ADD SWAP2 POP POP SWAP1 POP JUMPDEST POP SWAP1 POP PUSH1 0x0 DUP1 PUSH1 0x1 SWAP1 POP JUMPDEST PUSH1 0x3 SLOAD DUP2 GT PUSH2 0x1557 JUMPI DUP6 PUSH20 0xFFFFFFFFFFFFFFFFFFFFFFFFFFFFFFFFFFFFFFFF AND PUSH1 0x2 PUSH1 0x0 DUP4 DUP2 MSTORE PUSH1 0x20 ADD SWAP1 DUP2 MSTORE PUSH1 0x20 ADD PUSH1 0x0 KECCAK256 PUSH1 0x2 ADD PUSH1 0x0 SWAP1 SLOAD SWAP1 PUSH2 0x100 EXP SWAP1 DIV PUSH20 0xFFFFFFFFFFFFFFFFFFFFFFFFFFFFFFFFFFFFFFFF AND PUSH20 0xFFFFFFFFFFFFFFFFFFFFFFFFFFFFFFFFFFFFFFFF AND EQ DUP1 ISZERO PUSH2 0x1510 JUMPI POP PUSH1 0x2 PUSH1 0x0 DUP3 DUP2 MSTORE PUSH1 0x20 ADD SWAP1 DUP2 MSTORE PUSH1 0x20 ADD PUSH1 0x0 KECCAK256 PUSH1 0x4 ADD PUSH1 0x0 SWAP1 SLOAD SWAP1 PUSH2 0x100 EXP SWAP1 DIV PUSH1 0xFF AND JUMPDEST ISZERO PUSH2 0x1544 JUMPI DUP1 DUP4 DUP4 DUP2 MLOAD DUP2 LT PUSH2 0x1529 JUMPI PUSH2 0x1528 PUSH2 0x3AB0 JUMP JUMPDEST JUMPDEST PUSH1 0x20 MUL PUSH1 0x20 ADD ADD DUP2 DUP2 MSTORE POP POP DUP2 DUP1 PUSH2 0x1540 SWAP1 PUSH2 0x375C JUMP JUMPDEST SWAP3 POP POP JUMPDEST DUP1 DUP1 PUSH2 0x154F SWAP1 PUSH2 0x375C JUMP JUMPDEST SWAP2 POP POP PUSH2 0x1476 JUMP JUMPDEST POP DUP2 SWAP4 POP POP POP POP SWAP2 SWAP1 POP JUMP JUMPDEST PUSH1 0x2 PUSH1 0x20 MSTORE DUP1 PUSH1 0x0 MSTORE PUSH1 0x40 PUSH1 0x0 KECCAK256 PUSH1 0x0 SWAP2 POP SWAP1 POP DUP1 PUSH1 0x0 ADD SLOAD SWAP1 DUP1 PUSH1 0x1 ADD DUP1 SLOAD PUSH2 0x158C SWAP1 PUSH2 0x33DF JUMP JUMPDEST DUP1 PUSH1 0x1F ADD PUSH1 0x20 DUP1 SWAP2 DIV MUL PUSH1 0x20 ADD PUSH1 0x40 MLOAD SWAP1 DUP2 ADD PUSH1 0x40 MSTORE DUP1 SWAP3 SWAP2 SWAP1 DUP2 DUP2 MSTORE PUSH1 0x20 ADD DUP3 DUP1 SLOAD PUSH2 0x15B8 SWAP1 PUSH2 0x33DF JUMP JUMPDEST DUP1 ISZERO PUSH2 0x1605 JUMPI DUP1 PUSH1 0x1F LT PUSH2 0x15DA JUMPI PUSH2 0x100 DUP1 DUP4 SLOAD DIV MUL DUP4 MSTORE SWAP2 PUSH1 0x20 ADD SWAP2 PUSH2 0x1605 JUMP JUMPDEST DUP3 ADD SWAP2 SWAP1 PUSH1 0x0 MSTORE PUSH1 0x20 PUSH1 0x0 KECCAK256 SWAP1 JUMPDEST DUP2 SLOAD DUP2 MSTORE SWAP1 PUSH1 0x1 ADD SWAP1 PUSH1 0x20 ADD DUP1 DUP4 GT PUSH2 0x15E8 JUMPI DUP3 SWAP1 SUB PUSH1 0x1F AND DUP3 ADD SWAP2 JUMPDEST POP POP POP POP POP SWAP1 DUP1 PUSH1 0x2 ADD PUSH1 0x0 SWAP1 SLOAD SWAP1 PUSH2 0x100 EXP SWAP1 DIV PUSH20 0xFFFFFFFFFFFFFFFFFFFFFFFFFFFFFFFFFFFFFFFF AND SWAP1 DUP1 PUSH1 0x4 ADD PUSH1 0x0 SWAP1 SLOAD SWAP1 PUSH2 0x100 EXP SWAP1 DIV PUSH1 0xFF AND SWAP1 POP DUP5 JUMP JUMPDEST DUP2 PUSH1 0x0 DUP1 PUSH1 0x4 PUSH1 0x0 DUP5 DUP2 MSTORE PUSH1 0x20 ADD SWAP1 DUP2 MSTORE PUSH1 0x20 ADD PUSH1 0x0 KECCAK256 PUSH1 0x3 ADD SWAP1 POP PUSH1 0x0 JUMPDEST DUP2 DUP1 SLOAD SWAP1 POP DUP2 LT ISZERO PUSH2 0x16FF JUMPI CALLER PUSH20 0xFFFFFFFFFFFFFFFFFFFFFFFFFFFFFFFFFFFFFFFF AND DUP3 DUP3 DUP2 SLOAD DUP2 LT PUSH2 0x169D JUMPI PUSH2 0x169C PUSH2 0x3AB0 JUMP JUMPDEST JUMPDEST SWAP1 PUSH1 0x0 MSTORE PUSH1 0x20 PUSH1 0x0 KECCAK256 ADD PUSH1 0x0 SWAP1 SLOAD SWAP1 PUSH2 0x100 EXP SWAP1 DIV PUSH20 0xFFFFFFFFFFFFFFFFFFFFFFFFFFFFFFFFFFFFFFFF AND PUSH20 0xFFFFFFFFFFFFFFFFFFFFFFFFFFFFFFFFFFFFFFFF AND SUB PUSH2 0x16EC JUMPI PUSH1 0x1 SWAP3 POP PUSH2 0x16FF JUMP JUMPDEST DUP1 DUP1 PUSH2 0x16F7 SWAP1 PUSH2 0x375C JUMP JUMPDEST SWAP2 POP POP PUSH2 0x1667 JUMP JUMPDEST POP DUP2 PUSH2 0x1740 JUMPI PUSH1 0x40 MLOAD PUSH32 0x8C379A000000000000000000000000000000000000000000000000000000000 DUP2 MSTORE PUSH1 0x4 ADD PUSH2 0x1737 SWAP1 PUSH2 0x3B2B JUMP JUMPDEST PUSH1 0x40 MLOAD DUP1 SWAP2 SUB SWAP1 REVERT JUMPDEST DUP5 PUSH1 0x0 PUSH1 0x1 DUP2 GT ISZERO PUSH2 0x1755 JUMPI PUSH2 0x1754 PUSH2 0x2EC4 JUMP JUMPDEST JUMPDEST PUSH1 0x4 PUSH1 0x0 DUP4 DUP2 MSTORE PUSH1 0x20 ADD SWAP1 DUP2 MSTORE PUSH1 0x20 ADD PUSH1 0x0 KECCAK256 PUSH1 0x7 ADD PUSH1 0x10 SWAP1 SLOAD SWAP1 PUSH2 0x100 EXP SWAP1 DIV PUSH1 0xFF AND PUSH1 0x1 DUP2 GT ISZERO PUSH2 0x178B JUMPI PUSH2 0x178A PUSH2 0x2EC4 JUMP JUMPDEST JUMPDEST EQ PUSH2 0x17CB JUMPI PUSH1 0x40 MLOAD PUSH32 0x8C379A000000000000000000000000000000000000000000000000000000000 DUP2 MSTORE PUSH1 0x4 ADD PUSH2 0x17C2 SWAP1 PUSH2 0x3534 JUMP JUMPDEST PUSH1 0x40 MLOAD DUP1 SWAP2 SUB SWAP1 REVERT JUMPDEST PUSH1 0x0 PUSH1 0x4 PUSH1 0x0 DUP9 DUP2 MSTORE PUSH1 0x20 ADD SWAP1 DUP2 MSTORE PUSH1 0x20 ADD PUSH1 0x0 KECCAK256 SWAP1 POP DUP1 PUSH1 0x4 ADD PUSH1 0x0 CALLER PUSH20 0xFFFFFFFFFFFFFFFFFFFFFFFFFFFFFFFFFFFFFFFF AND PUSH20 0xFFFFFFFFFFFFFFFFFFFFFFFFFFFFFFFFFFFFFFFF AND DUP2 MSTORE PUSH1 0x20 ADD SWAP1 DUP2 MSTORE PUSH1 0x20 ADD PUSH1 0x0 KECCAK256 PUSH1 0x0 SWAP1 SLOAD SWAP1 PUSH2 0x100 EXP SWAP1 DIV PUSH1 0xFF AND ISZERO PUSH2 0x1871 JUMPI PUSH1 0x40 MLOAD PUSH32 0x8C379A000000000000000000000000000000000000000000000000000000000 DUP2 MSTORE PUSH1 0x4 ADD PUSH2 0x1868 SWAP1 PUSH2 0x3B97 JUMP JUMPDEST PUSH1 0x40 MLOAD DUP1 SWAP2 SUB SWAP1 REVERT JUMPDEST PUSH1 0x1 DUP2 PUSH1 0x4 ADD PUSH1 0x0 CALLER PUSH20 0xFFFFFFFFFFFFFFFFFFFFFFFFFFFFFFFFFFFFFFFF AND PUSH20 0xFFFFFFFFFFFFFFFFFFFFFFFFFFFFFFFFFFFFFFFF AND DUP2 MSTORE PUSH1 0x20 ADD SWAP1 DUP2 MSTORE PUSH1 0x20 ADD PUSH1 0x0 KECCAK256 PUSH1 0x0 PUSH2 0x100 EXP DUP2 SLOAD DUP2 PUSH1 0xFF MUL NOT AND SWAP1 DUP4 ISZERO ISZERO MUL OR SWAP1 SSTORE POP DUP6 ISZERO PUSH2 0x194A JUMPI PUSH1 0x1 DUP2 PUSH1 0x5 ADD PUSH1 0x0 CALLER PUSH20 0xFFFFFFFFFFFFFFFFFFFFFFFFFFFFFFFFFFFFFFFF AND PUSH20 0xFFFFFFFFFFFFFFFFFFFFFFFFFFFFFFFFFFFFFFFF AND DUP2 MSTORE PUSH1 0x20 ADD SWAP1 DUP2 MSTORE PUSH1 0x20 ADD PUSH1 0x0 KECCAK256 PUSH1 0x0 PUSH2 0x100 EXP DUP2 SLOAD DUP2 PUSH1 0xFF MUL NOT AND SWAP1 DUP4 ISZERO ISZERO MUL OR SWAP1 SSTORE POP DUP1 PUSH1 0x6 ADD PUSH1 0x0 DUP2 SLOAD DUP1 SWAP3 SWAP2 SWAP1 PUSH2 0x1940 SWAP1 PUSH2 0x375C JUMP JUMPDEST SWAP2 SWAP1 POP SSTORE POP PUSH2 0x19A5 JUMP JUMPDEST PUSH1 0x0 DUP2 PUSH1 0x5 ADD PUSH1 0x0 CALLER PUSH20 0xFFFFFFFFFFFFFFFFFFFFFFFFFFFFFFFFFFFFFFFF AND PUSH20 0xFFFFFFFFFFFFFFFFFFFFFFFFFFFFFFFFFFFFFFFF AND DUP2 MSTORE PUSH1 0x20 ADD SWAP1 DUP2 MSTORE PUSH1 0x20 ADD PUSH1 0x0 KECCAK256 PUSH1 0x0 PUSH2 0x100 EXP DUP2 SLOAD DUP2 PUSH1 0xFF MUL NOT AND SWAP1 DUP4 ISZERO ISZERO MUL OR SWAP1 SSTORE POP JUMPDEST CALLER PUSH20 0xFFFFFFFFFFFFFFFFFFFFFFFFFFFFFFFFFFFFFFFF AND DUP8 PUSH32 0x78F3A3825F7635F259D40CE1582465BFD9C7B342B345995C7ABE5BBB948B1259 DUP9 PUSH1 0x40 MLOAD PUSH2 0x19EC SWAP2 SWAP1 PUSH2 0x28D6 JUMP JUMPDEST PUSH1 0x40 MLOAD DUP1 SWAP2 SUB SWAP1 LOG3 POP POP POP POP POP POP POP JUMP JUMPDEST PUSH1 0x5 SLOAD DUP2 JUMP JUMPDEST PUSH1 0x60 PUSH1 0x0 DUP1 PUSH1 0x1 SWAP1 POP JUMPDEST PUSH1 0x5 SLOAD DUP2 GT PUSH2 0x1AEA JUMPI PUSH1 0x0 PUSH1 0x4 PUSH1 0x0 DUP4 DUP2 MSTORE PUSH1 0x20 ADD SWAP1 DUP2 MSTORE PUSH1 0x20 ADD PUSH1 0x0 KECCAK256 PUSH1 0x3 ADD SWAP1 POP PUSH1 0x0 JUMPDEST DUP2 DUP1 SLOAD SWAP1 POP DUP2 LT ISZERO PUSH2 0x1AD5 JUMPI DUP6 PUSH20 0xFFFFFFFFFFFFFFFFFFFFFFFFFFFFFFFFFFFFFFFF AND DUP3 DUP3 DUP2 SLOAD DUP2 LT PUSH2 0x1A69 JUMPI PUSH2 0x1A68 PUSH2 0x3AB0 JUMP JUMPDEST JUMPDEST SWAP1 PUSH1 0x0 MSTORE PUSH1 0x20 PUSH1 0x0 KECCAK256 ADD PUSH1 0x0 SWAP1 SLOAD SWAP1 PUSH2 0x100 EXP SWAP1 DIV PUSH20 0xFFFFFFFFFFFFFFFFFFFFFFFFFFFFFFFFFFFFFFFF AND PUSH20 0xFFFFFFFFFFFFFFFFFFFFFFFFFFFFFFFFFFFFFFFF AND SUB PUSH2 0x1AC2 JUMPI DUP4 DUP1 PUSH2 0x1ABA SWAP1 PUSH2 0x375C JUMP JUMPDEST SWAP5 POP POP PUSH2 0x1AD5 JUMP JUMPDEST DUP1 DUP1 PUSH2 0x1ACD SWAP1 PUSH2 0x375C JUMP JUMPDEST SWAP2 POP POP PUSH2 0x1A33 JUMP JUMPDEST POP POP DUP1 DUP1 PUSH2 0x1AE2 SWAP1 PUSH2 0x375C JUMP JUMPDEST SWAP2 POP POP PUSH2 0x1A0D JUMP JUMPDEST POP PUSH1 0x0 DUP2 PUSH8 0xFFFFFFFFFFFFFFFF DUP2 GT ISZERO PUSH2 0x1B07 JUMPI PUSH2 0x1B06 PUSH2 0x2BD2 JUMP JUMPDEST JUMPDEST PUSH1 0x40 MLOAD SWAP1 DUP1 DUP3 MSTORE DUP1 PUSH1 0x20 MUL PUSH1 0x20 ADD DUP3 ADD PUSH1 0x40 MSTORE DUP1 ISZERO PUSH2 0x1B35 JUMPI DUP2 PUSH1 0x20 ADD PUSH1 0x20 DUP3 MUL DUP1 CALLDATASIZE DUP4 CALLDATACOPY DUP1 DUP3 ADD SWAP2 POP POP SWAP1 POP JUMPDEST POP SWAP1 POP PUSH1 0x0 DUP1 PUSH1 0x1 SWAP1 POP JUMPDEST PUSH1 0x5 SLOAD DUP2 GT PUSH2 0x1C3B JUMPI PUSH1 0x0 PUSH1 0x4 PUSH1 0x0 DUP4 DUP2 MSTORE PUSH1 0x20 ADD SWAP1 DUP2 MSTORE PUSH1 0x20 ADD PUSH1 0x0 KECCAK256 PUSH1 0x3 ADD SWAP1 POP PUSH1 0x0 JUMPDEST DUP2 DUP1 SLOAD SWAP1 POP DUP2 LT ISZERO PUSH2 0x1C26 JUMPI DUP8 PUSH20 0xFFFFFFFFFFFFFFFFFFFFFFFFFFFFFFFFFFFFFFFF AND DUP3 DUP3 DUP2 SLOAD DUP2 LT PUSH2 0x1B9C JUMPI PUSH2 0x1B9B PUSH2 0x3AB0 JUMP JUMPDEST JUMPDEST SWAP1 PUSH1 0x0 MSTORE PUSH1 0x20 PUSH1 0x0 KECCAK256 ADD PUSH1 0x0 SWAP1 SLOAD SWAP1 PUSH2 0x100 EXP SWAP1 DIV PUSH20 0xFFFFFFFFFFFFFFFFFFFFFFFFFFFFFFFFFFFFFFFF AND PUSH20 0xFFFFFFFFFFFFFFFFFFFFFFFFFFFFFFFFFFFFFFFF AND SUB PUSH2 0x1C13 JUMPI DUP3 DUP6 DUP6 DUP1 PUSH2 0x1BEF SWAP1 PUSH2 0x375C JUMP JUMPDEST SWAP7 POP DUP2 MLOAD DUP2 LT PUSH2 0x1C02 JUMPI PUSH2 0x1C01 PUSH2 0x3AB0 JUMP JUMPDEST JUMPDEST PUSH1 0x20 MUL PUSH1 0x20 ADD ADD DUP2 DUP2 MSTORE POP POP PUSH2 0x1C26 JUMP JUMPDEST DUP1 DUP1 PUSH2 0x1C1E SWAP1 PUSH2 0x375C JUMP JUMPDEST SWAP2 POP POP PUSH2 0x1B66 JUMP JUMPDEST POP POP DUP1 DUP1 PUSH2 0x1C33 SWAP1 PUSH2 0x375C JUMP JUMPDEST SWAP2 POP POP PUSH2 0x1B40 JUMP JUMPDEST POP DUP2 SWAP4 POP POP POP POP SWAP2 SWAP1 POP JUMP JUMPDEST DUP3 PUSH1 0x0 PUSH1 0x2 PUSH1 0x0 DUP4 DUP2 MSTORE PUSH1 0x20 ADD SWAP1 DUP2 MSTORE PUSH1 0x20 ADD PUSH1 0x0 KECCAK256 PUSH1 0x0 ADD SLOAD SUB PUSH2 0x1CA1 JUMPI PUSH1 0x40 MLOAD PUSH32 0x8C379A000000000000000000000000000000000000000000000000000000000 DUP2 MSTORE PUSH1 0x4 ADD PUSH2 0x1C98 SWAP1 PUSH2 0x3390 JUMP JUMPDEST PUSH1 0x40 MLOAD DUP1 SWAP2 SUB SWAP1 REVERT JUMPDEST CALLER PUSH20 0xFFFFFFFFFFFFFFFFFFFFFFFFFFFFFFFFFFFFFFFF AND PUSH1 0x2 PUSH1 0x0 DUP4 DUP2 MSTORE PUSH1 0x20 ADD SWAP1 DUP2 MSTORE PUSH1 0x20 ADD PUSH1 0x0 KECCAK256 PUSH1 0x2 ADD PUSH1 0x0 SWAP1 SLOAD SWAP1 PUSH2 0x100 EXP SWAP1 DIV PUSH20 0xFFFFFFFFFFFFFFFFFFFFFFFFFFFFFFFFFFFFFFFF AND PUSH20 0xFFFFFFFFFFFFFFFFFFFFFFFFFFFFFFFFFFFFFFFF AND EQ PUSH2 0x1D45 JUMPI PUSH1 0x40 MLOAD PUSH32 0x8C379A000000000000000000000000000000000000000000000000000000000 DUP2 MSTORE PUSH1 0x4 ADD PUSH2 0x1D3C SWAP1 PUSH2 0x3A90 JUMP JUMPDEST PUSH1 0x40 MLOAD DUP1 SWAP2 SUB SWAP1 REVERT JUMPDEST PUSH1 0x2 PUSH1 0x0 DUP6 DUP2 MSTORE PUSH1 0x20 ADD SWAP1 DUP2 MSTORE PUSH1 0x20 ADD PUSH1 0x0 KECCAK256 PUSH1 0x4 ADD PUSH1 0x0 SWAP1 SLOAD SWAP1 PUSH2 0x100 EXP SWAP1 DIV PUSH1 0xFF AND PUSH2 0x1DA8 JUMPI PUSH1 0x40 MLOAD PUSH32 0x8C379A000000000000000000000000000000000000000000000000000000000 DUP2 MSTORE PUSH1 0x4 ADD PUSH2 0x1D9F SWAP1 PUSH2 0x3C03 JUMP JUMPDEST PUSH1 0x40 MLOAD DUP1 SWAP2 SUB SWAP1 REVERT JUMPDEST PUSH1 0x0 DUP4 MLOAD GT PUSH2 0x1DEC JUMPI PUSH1 0x40 MLOAD PUSH32 0x8C379A000000000000000000000000000000000000000000000000000000000 DUP2 MSTORE PUSH1 0x4 ADD PUSH2 0x1DE3 SWAP1 PUSH2 0x3C6F JUMP JUMPDEST PUSH1 0x40 MLOAD DUP1 SWAP2 SUB SWAP1 REVERT JUMPDEST PUSH1 0x5 PUSH1 0x0 DUP2 SLOAD DUP1 SWAP3 SWAP2 SWAP1 PUSH2 0x1DFF SWAP1 PUSH2 0x375C JUMP JUMPDEST SWAP2 SWAP1 POP SSTORE POP PUSH1 0x0 PUSH1 0x4 PUSH1 0x0 PUSH1 0x5 SLOAD DUP2 MSTORE PUSH1 0x20 ADD SWAP1 DUP2 MSTORE PUSH1 0x20 ADD PUSH1 0x0 KECCAK256 SWAP1 POP PUSH1 0x5 SLOAD DUP2 PUSH1 0x0 ADD DUP2 SWAP1 SSTORE POP DUP5 DUP2 PUSH1 0x1 ADD DUP2 SWAP1 SSTORE POP CALLER DUP2 PUSH1 0x2 ADD PUSH1 0x0 PUSH2 0x100 EXP DUP2 SLOAD DUP2 PUSH20 0xFFFFFFFFFFFFFFFFFFFFFFFFFFFFFFFFFFFFFFFF MUL NOT AND SWAP1 DUP4 PUSH20 0xFFFFFFFFFFFFFFFFFFFFFFFFFFFFFFFFFFFFFFFF AND MUL OR SWAP1 SSTORE POP PUSH1 0x0 JUMPDEST DUP5 MLOAD DUP2 LT ISZERO PUSH2 0x1F9B JUMPI PUSH1 0x0 PUSH20 0xFFFFFFFFFFFFFFFFFFFFFFFFFFFFFFFFFFFFFFFF AND DUP6 DUP3 DUP2 MLOAD DUP2 LT PUSH2 0x1EAB JUMPI PUSH2 0x1EAA PUSH2 0x3AB0 JUMP JUMPDEST JUMPDEST PUSH1 0x20 MUL PUSH1 0x20 ADD ADD MLOAD PUSH20 0xFFFFFFFFFFFFFFFFFFFFFFFFFFFFFFFFFFFFFFFF AND SUB PUSH2 0x1F09 JUMPI PUSH1 0x40 MLOAD PUSH32 0x8C379A000000000000000000000000000000000000000000000000000000000 DUP2 MSTORE PUSH1 0x4 ADD PUSH2 0x1F00 SWAP1 PUSH2 0x3CDB JUMP JUMPDEST PUSH1 0x40 MLOAD DUP1 SWAP2 SUB SWAP1 REVERT JUMPDEST DUP2 PUSH1 0x3 ADD DUP6 DUP3 DUP2 MLOAD DUP2 LT PUSH2 0x1F20 JUMPI PUSH2 0x1F1F PUSH2 0x3AB0 JUMP JUMPDEST JUMPDEST PUSH1 0x20 MUL PUSH1 0x20 ADD ADD MLOAD SWAP1 DUP1 PUSH1 0x1 DUP2 SLOAD ADD DUP1 DUP3 SSTORE DUP1 SWAP2 POP POP PUSH1 0x1 SWAP1 SUB SWAP1 PUSH1 0x0 MSTORE PUSH1 0x20 PUSH1 0x0 KECCAK256 ADD PUSH1 0x0 SWAP1 SWAP2 SWAP1 SWAP2 SWAP1 SWAP2 PUSH2 0x100 EXP DUP2 SLOAD DUP2 PUSH20 0xFFFFFFFFFFFFFFFFFFFFFFFFFFFFFFFFFFFFFFFF MUL NOT AND SWAP1 DUP4 PUSH20 0xFFFFFFFFFFFFFFFFFFFFFFFFFFFFFFFFFFFFFFFF AND MUL OR SWAP1 SSTORE POP DUP1 DUP1 PUSH2 0x1F93 SWAP1 PUSH2 0x375C JUMP JUMPDEST SWAP2 POP POP PUSH2 0x1E77 JUMP JUMPDEST POP PUSH1 0x0 DUP2 PUSH1 0x7 ADD PUSH1 0x10 PUSH2 0x100 EXP DUP2 SLOAD DUP2 PUSH1 0xFF MUL NOT AND SWAP1 DUP4 PUSH1 0x1 DUP2 GT ISZERO PUSH2 0x1FC4 JUMPI PUSH2 0x1FC3 PUSH2 0x2EC4 JUMP JUMPDEST JUMPDEST MUL OR SWAP1 SSTORE POP TIMESTAMP DUP2 PUSH1 0x7 ADD PUSH1 0x0 PUSH2 0x100 EXP DUP2 SLOAD DUP2 PUSH8 0xFFFFFFFFFFFFFFFF MUL NOT AND SWAP1 DUP4 PUSH8 0xFFFFFFFFFFFFFFFF AND MUL OR SWAP1 SSTORE POP DUP3 DUP2 PUSH1 0x8 ADD SWAP1 DUP2 PUSH2 0x2005 SWAP2 SWAP1 PUSH2 0x3950 JUMP JUMPDEST POP PUSH1 0x2 PUSH1 0x0 DUP7 DUP2 MSTORE PUSH1 0x20 ADD SWAP1 DUP2 MSTORE PUSH1 0x20 ADD PUSH1 0x0 KECCAK256 PUSH1 0x3 ADD PUSH1 0x5 SLOAD SWAP1 DUP1 PUSH1 0x1 DUP2 SLOAD ADD DUP1 DUP3 SSTORE DUP1 SWAP2 POP POP PUSH1 0x1 SWAP1 SUB SWAP1 PUSH1 0x0 MSTORE PUSH1 0x20 PUSH1 0x0 KECCAK256 ADD PUSH1 0x0 SWAP1 SWAP2 SWAP1 SWAP2 SWAP1 SWAP2 POP SSTORE CALLER PUSH20 0xFFFFFFFFFFFFFFFFFFFFFFFFFFFFFFFFFFFFFFFF AND DUP6 PUSH1 0x5 SLOAD PUSH32 0x17A6B6BC8ACA9B157488D4EFCF8DD92A1459C3C90E7A8783DC0A6C6D9E18D41 DUP8 MLOAD DUP8 PUSH1 0x40 MLOAD PUSH2 0x2092 SWAP3 SWAP2 SWAP1 PUSH2 0x3CFB JUMP JUMPDEST PUSH1 0x40 MLOAD DUP1 SWAP2 SUB SWAP1 LOG4 POP POP POP POP POP JUMP JUMPDEST PUSH1 0x60 PUSH1 0x0 PUSH1 0x2 PUSH1 0x0 DUP5 DUP2 MSTORE PUSH1 0x20 ADD SWAP1 DUP2 MSTORE PUSH1 0x20 ADD PUSH1 0x0 KECCAK256 PUSH1 0x0 ADD SLOAD SUB PUSH2 0x20FC JUMPI PUSH1 0x40 MLOAD PUSH32 0x8C379A000000000000000000000000000000000000000000000000000000000 DUP2 MSTORE PUSH1 0x4 ADD PUSH2 0x20F3 SWAP1 PUSH2 0x3390 JUMP JUMPDEST PUSH1 0x40 MLOAD DUP1 SWAP2 SUB SWAP1 REVERT JUMPDEST PUSH1 0x2 PUSH1 0x0 DUP4 DUP2 MSTORE PUSH1 0x20 ADD SWAP1 DUP2 MSTORE PUSH1 0x20 ADD PUSH1 0x0 KECCAK256 PUSH1 0x3 ADD DUP1 SLOAD DUP1 PUSH1 0x20 MUL PUSH1 0x20 ADD PUSH1 0x40 MLOAD SWAP1 DUP2 ADD PUSH1 0x40 MSTORE DUP1 SWAP3 SWAP2 SWAP1 DUP2 DUP2 MSTORE PUSH1 0x20 ADD DUP3 DUP1 SLOAD DUP1 ISZERO PUSH2 0x215C JUMPI PUSH1 0x20 MUL DUP3 ADD SWAP2 SWAP1 PUSH1 0x0 MSTORE PUSH1 0x20 PUSH1 0x0 KECCAK256 SWAP1 JUMPDEST DUP2 SLOAD DUP2 MSTORE PUSH1 0x20 ADD SWAP1 PUSH1 0x1 ADD SWAP1 DUP1 DUP4 GT PUSH2 0x2148 JUMPI JUMPDEST POP POP POP POP POP SWAP1 POP SWAP2 SWAP1 POP JUMP JUMPDEST PUSH1 0x0 DUP1 PUSH1 0x0 DUP1 PUSH1 0x0 DUP1 PUSH1 0x0 DUP1 PUSH1 0x60 PUSH1 0x0 PUSH1 0x4 PUSH1 0x0 DUP13 DUP2 MSTORE PUSH1 0x20 ADD SWAP1 DUP2 MSTORE PUSH1 0x20 ADD PUSH1 0x0 KECCAK256 PUSH1 0x0 ADD SLOAD SUB PUSH2 0x21CF JUMPI PUSH1 0x40 MLOAD PUSH32 0x8C379A000000000000000000000000000000000000000000000000000000000 DUP2 MSTORE PUSH1 0x4 ADD PUSH2 0x21C6 SWAP1 PUSH2 0x345C JUMP JUMPDEST PUSH1 0x40 MLOAD DUP1 SWAP2 SUB SWAP1 REVERT JUMPDEST PUSH1 0x0 PUSH1 0x4 PUSH1 0x0 DUP13 DUP2 MSTORE PUSH1 0x20 ADD SWAP1 DUP2 MSTORE PUSH1 0x20 ADD PUSH1 0x0 KECCAK256 SWAP1 POP DUP1 PUSH1 0x0 ADD SLOAD DUP2 PUSH1 0x1 ADD SLOAD DUP3 PUSH1 0x2 ADD PUSH1 0x0 SWAP1 SLOAD SWAP1 PUSH2 0x100 EXP SWAP1 DIV PUSH20 0xFFFFFFFFFFFFFFFFFFFFFFFFFFFFFFFFFFFFFFFF AND DUP4 PUSH1 0x3 ADD DUP1 SLOAD SWAP1 POP DUP5 PUSH1 0x6 ADD SLOAD DUP6 PUSH1 0x7 ADD PUSH1 0x0 SWAP1 SLOAD SWAP1 PUSH2 0x100 EXP SWAP1 DIV PUSH8 0xFFFFFFFFFFFFFFFF AND DUP7 PUSH1 0x7 ADD PUSH1 0x8 SWAP1 SLOAD SWAP1 PUSH2 0x100 EXP SWAP1 DIV PUSH8 0xFFFFFFFFFFFFFFFF AND DUP8 PUSH1 0x7 ADD PUSH1 0x10 SWAP1 SLOAD SWAP1 PUSH2 0x100 EXP SWAP1 DIV PUSH1 0xFF AND DUP9 PUSH1 0x8 ADD DUP1 DUP1 SLOAD PUSH2 0x2276 SWAP1 PUSH2 0x33DF JUMP JUMPDEST DUP1 PUSH1 0x1F ADD PUSH1 0x20 DUP1 SWAP2 DIV MUL PUSH1 0x20 ADD PUSH1 0x40 MLOAD SWAP1 DUP2 ADD PUSH1 0x40 MSTORE DUP1 SWAP3 SWAP2 SWAP1 DUP2 DUP2 MSTORE PUSH1 0x20 ADD DUP3 DUP1 SLOAD PUSH2 0x22A2 SWAP1 PUSH2 0x33DF JUMP JUMPDEST DUP1 ISZERO PUSH2 0x22EF JUMPI DUP1 PUSH1 0x1F LT PUSH2 0x22C4 JUMPI PUSH2 0x100 DUP1 DUP4 SLOAD DIV MUL DUP4 MSTORE SWAP2 PUSH1 0x20 ADD SWAP2 PUSH2 0x22EF JUMP JUMPDEST DUP3 ADD SWAP2 SWAP1 PUSH1 0x0 MSTORE PUSH1 0x20 PUSH1 0x0 KECCAK256 SWAP1 JUMPDEST DUP2 SLOAD DUP2 MSTORE SWAP1 PUSH1 0x1 ADD SWAP1 PUSH1 0x20 ADD DUP1 DUP4 GT PUSH2 0x22D2 JUMPI DUP3 SWAP1 SUB PUSH1 0x1F AND DUP3 ADD SWAP2 JUMPDEST POP POP POP POP POP SWAP1 POP SWAP10 POP SWAP10 POP SWAP10 POP SWAP10 POP SWAP10 POP SWAP10 POP SWAP10 POP SWAP10 POP SWAP10 POP POP SWAP2 SWAP4 SWAP6 SWAP8 SWAP10 SWAP1 SWAP3 SWAP5 SWAP7 SWAP9 POP JUMP JUMPDEST PUSH1 0x0 DUP1 SLOAD SWAP1 PUSH2 0x100 EXP SWAP1 DIV PUSH20 0xFFFFFFFFFFFFFFFFFFFFFFFFFFFFFFFFFFFFFFFF AND DUP2 JUMP JUMPDEST PUSH1 0x60 PUSH1 0x0 PUSH1 0x2 PUSH1 0x0 DUP5 DUP2 MSTORE PUSH1 0x20 ADD SWAP1 DUP2 MSTORE PUSH1 0x20 ADD PUSH1 0x0 KECCAK256 PUSH1 0x0 ADD SLOAD SUB PUSH2 0x2395 JUMPI PUSH1 0x40 MLOAD PUSH32 0x8C379A000000000000000000000000000000000000000000000000000000000 DUP2 MSTORE PUSH1 0x4 ADD PUSH2 0x238C SWAP1 PUSH2 0x3390 JUMP JUMPDEST PUSH1 0x40 MLOAD DUP1 SWAP2 SUB SWAP1 REVERT JUMPDEST PUSH1 0x0 PUSH1 0x2 PUSH1 0x0 DUP5 DUP2 MSTORE PUSH1 0x20 ADD SWAP1 DUP2 MSTORE PUSH1 0x20 ADD PUSH1 0x0 KECCAK256 PUSH1 0x3 ADD SWAP1 POP PUSH1 0x0 DUP1 JUMPDEST DUP3 DUP1 SLOAD SWAP1 POP DUP2 LT ISZERO PUSH2 0x2550 JUMPI PUSH1 0x0 DUP4 DUP3 DUP2 SLOAD DUP2 LT PUSH2 0x23D4 JUMPI PUSH2 0x23D3 PUSH2 0x3AB0 JUMP JUMPDEST JUMPDEST SWAP1 PUSH1 0x0 MSTORE PUSH1 0x20 PUSH1 0x0 KECCAK256 ADD SLOAD SWAP1 POP PUSH1 0x0 PUSH1 0x4 PUSH1 0x0 DUP4 DUP2 MSTORE PUSH1 0x20 ADD SWAP1 DUP2 MSTORE PUSH1 0x20 ADD PUSH1 0x0 KECCAK256 SWAP1 POP PUSH1 0x0 PUSH1 0x1 DUP2 GT ISZERO PUSH2 0x240C JUMPI PUSH2 0x240B PUSH2 0x2EC4 JUMP JUMPDEST JUMPDEST DUP2 PUSH1 0x7 ADD PUSH1 0x10 SWAP1 SLOAD SWAP1 PUSH2 0x100 EXP SWAP1 DIV PUSH1 0xFF AND PUSH1 0x1 DUP2 GT ISZERO PUSH2 0x2430 JUMPI PUSH2 0x242F PUSH2 0x2EC4 JUMP JUMPDEST JUMPDEST SUB PUSH2 0x253B JUMPI PUSH1 0x0 JUMPDEST DUP2 PUSH1 0x3 ADD DUP1 SLOAD SWAP1 POP DUP2 LT ISZERO PUSH2 0x2539 JUMPI DUP9 PUSH20 0xFFFFFFFFFFFFFFFFFFFFFFFFFFFFFFFFFFFFFFFF AND DUP3 PUSH1 0x3 ADD DUP3 DUP2 SLOAD DUP2 LT PUSH2 0x2474 JUMPI PUSH2 0x2473 PUSH2 0x3AB0 JUMP JUMPDEST JUMPDEST SWAP1 PUSH1 0x0 MSTORE PUSH1 0x20 PUSH1 0x0 KECCAK256 ADD PUSH1 0x0 SWAP1 SLOAD SWAP1 PUSH2 0x100 EXP SWAP1 DIV PUSH20 0xFFFFFFFFFFFFFFFFFFFFFFFFFFFFFFFFFFFFFFFF AND PUSH20 0xFFFFFFFFFFFFFFFFFFFFFFFFFFFFFFFFFFFFFFFF AND EQ DUP1 ISZERO PUSH2 0x250E JUMPI POP DUP2 PUSH1 0x4 ADD PUSH1 0x0 DUP11 PUSH20 0xFFFFFFFFFFFFFFFFFFFFFFFFFFFFFFFFFFFFFFFF AND PUSH20 0xFFFFFFFFFFFFFFFFFFFFFFFFFFFFFFFFFFFFFFFF AND DUP2 MSTORE PUSH1 0x20 ADD SWAP1 DUP2 MSTORE PUSH1 0x20 ADD PUSH1 0x0 KECCAK256 PUSH1 0x0 SWAP1 SLOAD SWAP1 PUSH2 0x100 EXP SWAP1 DIV PUSH1 0xFF AND ISZERO JUMPDEST ISZERO PUSH2 0x2526 JUMPI DUP5 DUP1 PUSH2 0x251E SWAP1 PUSH2 0x375C JUMP JUMPDEST SWAP6 POP POP PUSH2 0x2539 JUMP JUMPDEST DUP1 DUP1 PUSH2 0x2531 SWAP1 PUSH2 0x375C JUMP JUMPDEST SWAP2 POP POP PUSH2 0x2438 JUMP JUMPDEST POP JUMPDEST POP POP DUP1 DUP1 PUSH2 0x2548 SWAP1 PUSH2 0x375C JUMP JUMPDEST SWAP2 POP POP PUSH2 0x23B3 JUMP JUMPDEST POP PUSH1 0x0 DUP2 PUSH8 0xFFFFFFFFFFFFFFFF DUP2 GT ISZERO PUSH2 0x256D JUMPI PUSH2 0x256C PUSH2 0x2BD2 JUMP JUMPDEST JUMPDEST PUSH1 0x40 MLOAD SWAP1 DUP1 DUP3 MSTORE DUP1 PUSH1 0x20 MUL PUSH1 0x20 ADD DUP3 ADD PUSH1 0x40 MSTORE DUP1 ISZERO PUSH2 0x259B JUMPI DUP2 PUSH1 0x20 ADD PUSH1 0x20 DUP3 MUL DUP1 CALLDATASIZE DUP4 CALLDATACOPY DUP1 DUP3 ADD SWAP2 POP POP SWAP1 POP JUMPDEST POP SWAP1 POP PUSH1 0x0 DUP1 JUMPDEST DUP5 DUP1 SLOAD SWAP1 POP DUP2 LT ISZERO PUSH2 0x275D JUMPI PUSH1 0x0 DUP6 DUP3 DUP2 SLOAD DUP2 LT PUSH2 0x25C3 JUMPI PUSH2 0x25C2 PUSH2 0x3AB0 JUMP JUMPDEST JUMPDEST SWAP1 PUSH1 0x0 MSTORE PUSH1 0x20 PUSH1 0x0 KECCAK256 ADD SLOAD SWAP1 POP PUSH1 0x0 PUSH1 0x4 PUSH1 0x0 DUP4 DUP2 MSTORE PUSH1 0x20 ADD SWAP1 DUP2 MSTORE PUSH1 0x20 ADD PUSH1 0x0 KECCAK256 SWAP1 POP PUSH1 0x0 PUSH1 0x1 DUP2 GT ISZERO PUSH2 0x25FB JUMPI PUSH2 0x25FA PUSH2 0x2EC4 JUMP JUMPDEST JUMPDEST DUP2 PUSH1 0x7 ADD PUSH1 0x10 SWAP1 SLOAD SWAP1 PUSH2 0x100 EXP SWAP1 DIV PUSH1 0xFF AND PUSH1 0x1 DUP2 GT ISZERO PUSH2 0x261F JUMPI PUSH2 0x261E PUSH2 0x2EC4 JUMP JUMPDEST JUMPDEST SUB PUSH2 0x2748 JUMPI PUSH1 0x0 JUMPDEST DUP2 PUSH1 0x3 ADD DUP1 SLOAD SWAP1 POP DUP2 LT ISZERO PUSH2 0x2746 JUMPI DUP11 PUSH20 0xFFFFFFFFFFFFFFFFFFFFFFFFFFFFFFFFFFFFFFFF AND DUP3 PUSH1 0x3 ADD DUP3 DUP2 SLOAD DUP2 LT PUSH2 0x2663 JUMPI PUSH2 0x2662 PUSH2 0x3AB0 JUMP JUMPDEST JUMPDEST SWAP1 PUSH1 0x0 MSTORE PUSH1 0x20 PUSH1 0x0 KECCAK256 ADD PUSH1 0x0 SWAP1 SLOAD SWAP1 PUSH2 0x100 EXP SWAP1 DIV PUSH20 0xFFFFFFFFFFFFFFFFFFFFFFFFFFFFFFFFFFFFFFFF AND PUSH20 0xFFFFFFFFFFFFFFFFFFFFFFFFFFFFFFFFFFFFFFFF AND EQ DUP1 ISZERO PUSH2 0x26FD JUMPI POP DUP2 PUSH1 0x4 ADD PUSH1 0x0 DUP13 PUSH20 0xFFFFFFFFFFFFFFFFFFFFFFFFFFFFFFFFFFFFFFFF AND PUSH20 0xFFFFFFFFFFFFFFFFFFFFFFFFFFFFFFFFFFFFFFFF AND DUP2 MSTORE PUSH1 0x20 ADD SWAP1 DUP2 MSTORE PUSH1 0x20 ADD PUSH1 0x0 KECCAK256 PUSH1 0x0 SWAP1 SLOAD SWAP1 PUSH2 0x100 EXP SWAP1 DIV PUSH1 0xFF AND ISZERO JUMPDEST ISZERO PUSH2 0x2733 JUMPI DUP3 DUP7 DUP7 DUP1 PUSH2 0x270F SWAP1 PUSH2 0x375C JUMP JUMPDEST SWAP8 POP DUP2 MLOAD DUP2 LT PUSH2 0x2722 JUMPI PUSH2 0x2721 PUSH2 0x3AB0 JUMP JUMPDEST JUMPDEST PUSH1 0x20 MUL PUSH1 0x20 ADD ADD DUP2 DUP2 MSTORE POP POP PUSH2 0x2746 JUMP JUMPDEST DUP1 DUP1 PUSH2 0x273E SWAP1 PUSH2 0x375C JUMP JUMPDEST SWAP2 POP POP PUSH2 0x2627 JUMP JUMPDEST POP JUMPDEST POP POP DUP1 DUP1 PUSH2 0x2755 SWAP1 PUSH2 0x375C JUMP JUMPDEST SWAP2 POP POP PUSH2 0x25A2 JUMP JUMPDEST POP DUP2 SWAP5 POP POP POP POP POP SWAP3 SWAP2 POP POP JUMP JUMPDEST PUSH1 0x40 MLOAD DUP1 PUSH1 0xA0 ADD PUSH1 0x40 MSTORE DUP1 PUSH1 0x0 DUP2 MSTORE PUSH1 0x20 ADD PUSH1 0x60 DUP2 MSTORE PUSH1 0x20 ADD PUSH1 0x0 PUSH20 0xFFFFFFFFFFFFFFFFFFFFFFFFFFFFFFFFFFFFFFFF AND DUP2 MSTORE PUSH1 0x20 ADD PUSH1 0x60 DUP2 MSTORE PUSH1 0x20 ADD PUSH1 0x0 ISZERO ISZERO DUP2 MSTORE POP SWAP1 JUMP JUMPDEST DUP3 DUP1 SLOAD DUP3 DUP3 SSTORE SWAP1 PUSH1 0x0 MSTORE PUSH1 0x20 PUSH1 0x0 KECCAK256 SWAP1 DUP2 ADD SWAP3 DUP3 ISZERO PUSH2 0x27EE JUMPI SWAP2 PUSH1 0x20 MUL DUP3 ADD JUMPDEST DUP3 DUP2 GT ISZERO PUSH2 0x27ED JUMPI DUP3 MLOAD DUP3 SSTORE SWAP2 PUSH1 0x20 ADD SWAP2 SWAP1 PUSH1 0x1 ADD SWAP1 PUSH2 0x27D2 JUMP JUMPDEST JUMPDEST POP SWAP1 POP PUSH2 0x27FB SWAP2 SWAP1 PUSH2 0x27FF JUMP JUMPDEST POP SWAP1 JUMP JUMPDEST JUMPDEST DUP1 DUP3 GT ISZERO PUSH2 0x2818 JUMPI PUSH1 0x0 DUP2 PUSH1 0x0 SWAP1 SSTORE POP PUSH1 0x1 ADD PUSH2 0x2800 JUMP JUMPDEST POP SWAP1 JUMP JUMPDEST PUSH1 0x0 PUSH1 0x40 MLOAD SWAP1 POP SWAP1 JUMP JUMPDEST PUSH1 0x0 DUP1 REVERT JUMPDEST PUSH1 0x0 DUP1 REVERT JUMPDEST PUSH1 0x0 PUSH20 0xFFFFFFFFFFFFFFFFFFFFFFFFFFFFFFFFFFFFFFFF DUP3 AND SWAP1 POP SWAP2 SWAP1 POP JUMP JUMPDEST PUSH1 0x0 PUSH2 0x285B DUP3 PUSH2 0x2830 JUMP JUMPDEST SWAP1 POP SWAP2 SWAP1 POP JUMP JUMPDEST PUSH2 0x286B DUP2 PUSH2 0x2850 JUMP JUMPDEST DUP2 EQ PUSH2 0x2876 JUMPI PUSH1 0x0 DUP1 REVERT JUMPDEST POP JUMP JUMPDEST PUSH1 0x0 DUP2 CALLDATALOAD SWAP1 POP PUSH2 0x2888 DUP2 PUSH2 0x2862 JUMP JUMPDEST SWAP3 SWAP2 POP POP JUMP JUMPDEST PUSH1 0x0 PUSH1 0x20 DUP3 DUP5 SUB SLT ISZERO PUSH2 0x28A4 JUMPI PUSH2 0x28A3 PUSH2 0x2826 JUMP JUMPDEST JUMPDEST PUSH1 0x0 PUSH2 0x28B2 DUP5 DUP3 DUP6 ADD PUSH2 0x2879 JUMP JUMPDEST SWAP2 POP POP SWAP3 SWAP2 POP POP JUMP JUMPDEST PUSH1 0x0 DUP2 ISZERO ISZERO SWAP1 POP SWAP2 SWAP1 POP JUMP JUMPDEST PUSH2 0x28D0 DUP2 PUSH2 0x28BB JUMP JUMPDEST DUP3 MSTORE POP POP JUMP JUMPDEST PUSH1 0x0 PUSH1 0x20 DUP3 ADD SWAP1 POP PUSH2 0x28EB PUSH1 0x0 DUP4 ADD DUP5 PUSH2 0x28C7 JUMP JUMPDEST SWAP3 SWAP2 POP POP JUMP JUMPDEST PUSH1 0x0 DUP2 SWAP1 POP SWAP2 SWAP1 POP JUMP JUMPDEST PUSH2 0x2904 DUP2 PUSH2 0x28F1 JUMP JUMPDEST DUP2 EQ PUSH2 0x290F JUMPI PUSH1 0x0 DUP1 REVERT JUMPDEST POP JUMP JUMPDEST PUSH1 0x0 DUP2 CALLDATALOAD SWAP1 POP PUSH2 0x2921 DUP2 PUSH2 0x28FB JUMP JUMPDEST SWAP3 SWAP2 POP POP JUMP JUMPDEST PUSH1 0x0 PUSH1 0x20 DUP3 DUP5 SUB SLT ISZERO PUSH2 0x293D JUMPI PUSH2 0x293C PUSH2 0x2826 JUMP JUMPDEST JUMPDEST PUSH1 0x0 PUSH2 0x294B DUP5 DUP3 DUP6 ADD PUSH2 0x2912 JUMP JUMPDEST SWAP2 POP POP SWAP3 SWAP2 POP POP JUMP JUMPDEST PUSH2 0x295D DUP2 PUSH2 0x28F1 JUMP JUMPDEST DUP3 MSTORE POP POP JUMP JUMPDEST PUSH1 0x0 DUP2 MLOAD SWAP1 POP SWAP2 SWAP1 POP JUMP JUMPDEST PUSH1 0x0 DUP3 DUP3 MSTORE PUSH1 0x20 DUP3 ADD SWAP1 POP SWAP3 SWAP2 POP POP JUMP JUMPDEST PUSH1 0x0 JUMPDEST DUP4 DUP2 LT ISZERO PUSH2 0x299D JUMPI DUP1 DUP3 ADD MLOAD DUP2 DUP5 ADD MSTORE PUSH1 0x20 DUP2 ADD SWAP1 POP PUSH2 0x2982 JUMP JUMPDEST PUSH1 0x0 DUP5 DUP5 ADD MSTORE POP POP POP POP JUMP JUMPDEST PUSH1 0x0 PUSH1 0x1F NOT PUSH1 0x1F DUP4 ADD AND SWAP1 POP SWAP2 SWAP1 POP JUMP JUMPDEST PUSH1 0x0 PUSH2 0x29C5 DUP3 PUSH2 0x2963 JUMP JUMPDEST PUSH2 0x29CF DUP2 DUP6 PUSH2 0x296E JUMP JUMPDEST SWAP4 POP PUSH2 0x29DF DUP2 DUP6 PUSH1 0x20 DUP7 ADD PUSH2 0x297F JUMP JUMPDEST PUSH2 0x29E8 DUP2 PUSH2 0x29A9 JUMP JUMPDEST DUP5 ADD SWAP2 POP POP SWAP3 SWAP2 POP POP JUMP JUMPDEST PUSH2 0x29FC DUP2 PUSH2 0x2850 JUMP JUMPDEST DUP3 MSTORE POP POP JUMP JUMPDEST PUSH1 0x0 DUP2 MLOAD SWAP1 POP SWAP2 SWAP1 POP JUMP JUMPDEST PUSH1 0x0 DUP3 DUP3 MSTORE PUSH1 0x20 DUP3 ADD SWAP1 POP SWAP3 SWAP2 POP POP JUMP JUMPDEST PUSH1 0x0 DUP2 SWAP1 POP PUSH1 0x20 DUP3 ADD SWAP1 POP SWAP2 SWAP1 POP JUMP JUMPDEST PUSH1 0x0 PUSH2 0x2A3A DUP4 DUP4 PUSH2 0x2954 JUMP JUMPDEST PUSH1 0x20 DUP4 ADD SWAP1 POP SWAP3 SWAP2 POP POP JUMP JUMPDEST PUSH1 0x0 PUSH1 0x20 DUP3 ADD SWAP1 POP SWAP2 SWAP1 POP JUMP JUMPDEST PUSH1 0x0 PUSH2 0x2A5E DUP3 PUSH2 0x2A02 JUMP JUMPDEST PUSH2 0x2A68 DUP2 DUP6 PUSH2 0x2A0D JUMP JUMPDEST SWAP4 POP PUSH2 0x2A73 DUP4 PUSH2 0x2A1E JUMP JUMPDEST DUP1 PUSH1 0x0 JUMPDEST DUP4 DUP2 LT ISZERO PUSH2 0x2AA4 JUMPI DUP2 MLOAD PUSH2 0x2A8B DUP9 DUP3 PUSH2 0x2A2E JUMP JUMPDEST SWAP8 POP PUSH2 0x2A96 DUP4 PUSH2 0x2A46 JUMP JUMPDEST SWAP3 POP POP PUSH1 0x1 DUP2 ADD SWAP1 POP PUSH2 0x2A77 JUMP JUMPDEST POP DUP6 SWAP4 POP POP POP POP SWAP3 SWAP2 POP POP JUMP JUMPDEST PUSH2 0x2ABA DUP2 PUSH2 0x28BB JUMP JUMPDEST DUP3 MSTORE POP POP JUMP JUMPDEST PUSH1 0x0 PUSH1 0xA0 DUP4 ADD PUSH1 0x0 DUP4 ADD MLOAD PUSH2 0x2AD8 PUSH1 0x0 DUP7 ADD DUP3 PUSH2 0x2954 JUMP JUMPDEST POP PUSH1 0x20 DUP4 ADD MLOAD DUP5 DUP3 SUB PUSH1 0x20 DUP7 ADD MSTORE PUSH2 0x2AF0 DUP3 DUP3 PUSH2 0x29BA JUMP JUMPDEST SWAP2 POP POP PUSH1 0x40 DUP4 ADD MLOAD PUSH2 0x2B05 PUSH1 0x40 DUP7 ADD DUP3 PUSH2 0x29F3 JUMP JUMPDEST POP PUSH1 0x60 DUP4 ADD MLOAD DUP5 DUP3 SUB PUSH1 0x60 DUP7 ADD MSTORE PUSH2 0x2B1D DUP3 DUP3 PUSH2 0x2A53 JUMP JUMPDEST SWAP2 POP POP PUSH1 0x80 DUP4 ADD MLOAD PUSH2 0x2B32 PUSH1 0x80 DUP7 ADD DUP3 PUSH2 0x2AB1 JUMP JUMPDEST POP DUP1 SWAP2 POP POP SWAP3 SWAP2 POP POP JUMP JUMPDEST PUSH1 0x0 PUSH1 0x20 DUP3 ADD SWAP1 POP DUP2 DUP2 SUB PUSH1 0x0 DUP4 ADD MSTORE PUSH2 0x2B57 DUP2 DUP5 PUSH2 0x2AC0 JUMP JUMPDEST SWAP1 POP SWAP3 SWAP2 POP POP JUMP JUMPDEST PUSH1 0x0 DUP1 PUSH1 0x40 DUP4 DUP6 SUB SLT ISZERO PUSH2 0x2B76 JUMPI PUSH2 0x2B75 PUSH2 0x2826 JUMP JUMPDEST JUMPDEST PUSH1 0x0 PUSH2 0x2B84 DUP6 DUP3 DUP7 ADD PUSH2 0x2912 JUMP JUMPDEST SWAP3 POP POP PUSH1 0x20 PUSH2 0x2B95 DUP6 DUP3 DUP7 ADD PUSH2 0x2879 JUMP JUMPDEST SWAP2 POP POP SWAP3 POP SWAP3 SWAP1 POP JUMP JUMPDEST PUSH1 0x0 PUSH1 0x40 DUP3 ADD SWAP1 POP PUSH2 0x2BB4 PUSH1 0x0 DUP4 ADD DUP6 PUSH2 0x28C7 JUMP JUMPDEST PUSH2 0x2BC1 PUSH1 0x20 DUP4 ADD DUP5 PUSH2 0x28C7 JUMP JUMPDEST SWAP4 SWAP3 POP POP POP JUMP JUMPDEST PUSH1 0x0 DUP1 REVERT JUMPDEST PUSH1 0x0 DUP1 REVERT JUMPDEST PUSH32 0x4E487B7100000000000000000000000000000000000000000000000000000000 PUSH1 0x0 MSTORE PUSH1 0x41 PUSH1 0x4 MSTORE PUSH1 0x24 PUSH1 0x0 REVERT JUMPDEST PUSH2 0x2C0A DUP3 PUSH2 0x29A9 JUMP JUMPDEST DUP2 ADD DUP2 DUP2 LT PUSH8 0xFFFFFFFFFFFFFFFF DUP3 GT OR ISZERO PUSH2 0x2C29 JUMPI PUSH2 0x2C28 PUSH2 0x2BD2 JUMP JUMPDEST JUMPDEST DUP1 PUSH1 0x40 MSTORE POP POP POP JUMP JUMPDEST PUSH1 0x0 PUSH2 0x2C3C PUSH2 0x281C JUMP JUMPDEST SWAP1 POP PUSH2 0x2C48 DUP3 DUP3 PUSH2 0x2C01 JUMP JUMPDEST SWAP2 SWAP1 POP JUMP JUMPDEST PUSH1 0x0 PUSH8 0xFFFFFFFFFFFFFFFF DUP3 GT ISZERO PUSH2 0x2C68 JUMPI PUSH2 0x2C67 PUSH2 0x2BD2 JUMP JUMPDEST JUMPDEST PUSH2 0x2C71 DUP3 PUSH2 0x29A9 JUMP JUMPDEST SWAP1 POP PUSH1 0x20 DUP2 ADD SWAP1 POP SWAP2 SWAP1 POP JUMP JUMPDEST DUP3 DUP2 DUP4 CALLDATACOPY PUSH1 0x0 DUP4 DUP4 ADD MSTORE POP POP POP JUMP JUMPDEST PUSH1 0x0 PUSH2 0x2CA0 PUSH2 0x2C9B DUP5 PUSH2 0x2C4D JUMP JUMPDEST PUSH2 0x2C32 JUMP JUMPDEST SWAP1 POP DUP3 DUP2 MSTORE PUSH1 0x20 DUP2 ADD DUP5 DUP5 DUP5 ADD GT ISZERO PUSH2 0x2CBC JUMPI PUSH2 0x2CBB PUSH2 0x2BCD JUMP JUMPDEST JUMPDEST PUSH2 0x2CC7 DUP5 DUP3 DUP6 PUSH2 0x2C7E JUMP JUMPDEST POP SWAP4 SWAP3 POP POP POP JUMP JUMPDEST PUSH1 0x0 DUP3 PUSH1 0x1F DUP4 ADD SLT PUSH2 0x2CE4 JUMPI PUSH2 0x2CE3 PUSH2 0x2BC8 JUMP JUMPDEST JUMPDEST DUP2 CALLDATALOAD PUSH2 0x2CF4 DUP5 DUP3 PUSH1 0x20 DUP7 ADD PUSH2 0x2C8D JUMP JUMPDEST SWAP2 POP POP SWAP3 SWAP2 POP POP JUMP JUMPDEST PUSH1 0x0 PUSH1 0x20 DUP3 DUP5 SUB SLT ISZERO PUSH2 0x2D13 JUMPI PUSH2 0x2D12 PUSH2 0x2826 JUMP JUMPDEST JUMPDEST PUSH1 0x0 DUP3 ADD CALLDATALOAD PUSH8 0xFFFFFFFFFFFFFFFF DUP2 GT ISZERO PUSH2 0x2D31 JUMPI PUSH2 0x2D30 PUSH2 0x282B JUMP JUMPDEST JUMPDEST PUSH2 0x2D3D DUP5 DUP3 DUP6 ADD PUSH2 0x2CCF JUMP JUMPDEST SWAP2 POP POP SWAP3 SWAP2 POP POP JUMP JUMPDEST PUSH1 0x0 DUP2 MLOAD SWAP1 POP SWAP2 SWAP1 POP JUMP JUMPDEST PUSH1 0x0 DUP3 DUP3 MSTORE PUSH1 0x20 DUP3 ADD SWAP1 POP SWAP3 SWAP2 POP POP JUMP JUMPDEST PUSH1 0x0 DUP2 SWAP1 POP PUSH1 0x20 DUP3 ADD SWAP1 POP SWAP2 SWAP1 POP JUMP JUMPDEST PUSH1 0x0 PUSH2 0x2D7E DUP4 DUP4 PUSH2 0x29F3 JUMP JUMPDEST PUSH1 0x20 DUP4 ADD SWAP1 POP SWAP3 SWAP2 POP POP JUMP JUMPDEST PUSH1 0x0 PUSH1 0x20 DUP3 ADD SWAP1 POP SWAP2 SWAP1 POP JUMP JUMPDEST PUSH1 0x0 PUSH2 0x2DA2 DUP3 PUSH2 0x2D46 JUMP JUMPDEST PUSH2 0x2DAC DUP2 DUP6 PUSH2 0x2D51 JUMP JUMPDEST SWAP4 POP PUSH2 0x2DB7 DUP4 PUSH2 0x2D62 JUMP JUMPDEST DUP1 PUSH1 0x0 JUMPDEST DUP4 DUP2 LT ISZERO PUSH2 0x2DE8 JUMPI DUP2 MLOAD PUSH2 0x2DCF DUP9 DUP3 PUSH2 0x2D72 JUMP JUMPDEST SWAP8 POP PUSH2 0x2DDA DUP4 PUSH2 0x2D8A JUMP JUMPDEST SWAP3 POP POP PUSH1 0x1 DUP2 ADD SWAP1 POP PUSH2 0x2DBB JUMP JUMPDEST POP DUP6 SWAP4 POP POP POP POP SWAP3 SWAP2 POP POP JUMP JUMPDEST PUSH1 0x0 PUSH1 0x20 DUP3 ADD SWAP1 POP DUP2 DUP2 SUB PUSH1 0x0 DUP4 ADD MSTORE PUSH2 0x2E0F DUP2 DUP5 PUSH2 0x2D97 JUMP JUMPDEST SWAP1 POP SWAP3 SWAP2 POP POP JUMP JUMPDEST PUSH2 0x2E20 DUP2 PUSH2 0x28BB JUMP JUMPDEST DUP2 EQ PUSH2 0x2E2B JUMPI PUSH1 0x0 DUP1 REVERT JUMPDEST POP JUMP JUMPDEST PUSH1 0x0 DUP2 CALLDATALOAD SWAP1 POP PUSH2 0x2E3D DUP2 PUSH2 0x2E17 JUMP JUMPDEST SWAP3 SWAP2 POP POP JUMP JUMPDEST PUSH1 0x0 DUP1 PUSH1 0x40 DUP4 DUP6 SUB SLT ISZERO PUSH2 0x2E5A JUMPI PUSH2 0x2E59 PUSH2 0x2826 JUMP JUMPDEST JUMPDEST PUSH1 0x0 PUSH2 0x2E68 DUP6 DUP3 DUP7 ADD PUSH2 0x2912 JUMP JUMPDEST SWAP3 POP POP PUSH1 0x20 PUSH2 0x2E79 DUP6 DUP3 DUP7 ADD PUSH2 0x2E2E JUMP JUMPDEST SWAP2 POP POP SWAP3 POP SWAP3 SWAP1 POP JUMP JUMPDEST PUSH2 0x2E8C DUP2 PUSH2 0x28F1 JUMP JUMPDEST DUP3 MSTORE POP POP JUMP JUMPDEST PUSH2 0x2E9B DUP2 PUSH2 0x2850 JUMP JUMPDEST DUP3 MSTORE POP POP JUMP JUMPDEST PUSH1 0x0 PUSH8 0xFFFFFFFFFFFFFFFF DUP3 AND SWAP1 POP SWAP2 SWAP1 POP JUMP JUMPDEST PUSH2 0x2EBE DUP2 PUSH2 0x2EA1 JUMP JUMPDEST DUP3 MSTORE POP POP JUMP JUMPDEST PUSH32 0x4E487B7100000000000000000000000000000000000000000000000000000000 PUSH1 0x0 MSTORE PUSH1 0x21 PUSH1 0x4 MSTORE PUSH1 0x24 PUSH1 0x0 REVERT JUMPDEST PUSH1 0x2 DUP2 LT PUSH2 0x2F04 JUMPI PUSH2 0x2F03 PUSH2 0x2EC4 JUMP JUMPDEST JUMPDEST POP JUMP JUMPDEST PUSH1 0x0 DUP2 SWAP1 POP PUSH2 0x2F15 DUP3 PUSH2 0x2EF3 JUMP JUMPDEST SWAP2 SWAP1 POP JUMP JUMPDEST PUSH1 0x0 PUSH2 0x2F25 DUP3 PUSH2 0x2F07 JUMP JUMPDEST SWAP1 POP SWAP2 SWAP1 POP JUMP JUMPDEST PUSH2 0x2F35 DUP2 PUSH2 0x2F1A JUMP JUMPDEST DUP3 MSTORE POP POP JUMP JUMPDEST PUSH1 0x0 DUP3 DUP3 MSTORE PUSH1 0x20 DUP3 ADD SWAP1 POP SWAP3 SWAP2 POP POP JUMP JUMPDEST PUSH1 0x0 PUSH2 0x2F57 DUP3 PUSH2 0x2963 JUMP JUMPDEST PUSH2 0x2F61 DUP2 DUP6 PUSH2 0x2F3B JUMP JUMPDEST SWAP4 POP PUSH2 0x2F71 DUP2 DUP6 PUSH1 0x20 DUP7 ADD PUSH2 0x297F JUMP JUMPDEST PUSH2 0x2F7A DUP2 PUSH2 0x29A9 JUMP JUMPDEST DUP5 ADD SWAP2 POP POP SWAP3 SWAP2 POP POP JUMP JUMPDEST PUSH1 0x0 PUSH2 0x100 DUP3 ADD SWAP1 POP PUSH2 0x2F9B PUSH1 0x0 DUP4 ADD DUP12 PUSH2 0x2E83 JUMP JUMPDEST PUSH2 0x2FA8 PUSH1 0x20 DUP4 ADD DUP11 PUSH2 0x2E83 JUMP JUMPDEST PUSH2 0x2FB5 PUSH1 0x40 DUP4 ADD DUP10 PUSH2 0x2E92 JUMP JUMPDEST PUSH2 0x2FC2 PUSH1 0x60 DUP4 ADD DUP9 PUSH2 0x2E83 JUMP JUMPDEST PUSH2 0x2FCF PUSH1 0x80 DUP4 ADD DUP8 PUSH2 0x2EB5 JUMP JUMPDEST PUSH2 0x2FDC PUSH1 0xA0 DUP4 ADD DUP7 PUSH2 0x2EB5 JUMP JUMPDEST PUSH2 0x2FE9 PUSH1 0xC0 DUP4 ADD DUP6 PUSH2 0x2F2C JUMP JUMPDEST DUP2 DUP2 SUB PUSH1 0xE0 DUP4 ADD MSTORE PUSH2 0x2FFB DUP2 DUP5 PUSH2 0x2F4C JUMP JUMPDEST SWAP1 POP SWAP10 SWAP9 POP POP POP POP POP POP POP POP POP JUMP JUMPDEST PUSH1 0x0 PUSH1 0x20 DUP3 ADD SWAP1 POP PUSH2 0x301F PUSH1 0x0 DUP4 ADD DUP5 PUSH2 0x2E83 JUMP JUMPDEST SWAP3 SWAP2 POP POP JUMP JUMPDEST PUSH1 0x0 DUP3 DUP3 MSTORE PUSH1 0x20 DUP3 ADD SWAP1 POP SWAP3 SWAP2 POP POP JUMP JUMPDEST PUSH1 0x0 PUSH2 0x3041 DUP3 PUSH2 0x2A02 JUMP JUMPDEST PUSH2 0x304B DUP2 DUP6 PUSH2 0x3025 JUMP JUMPDEST SWAP4 POP PUSH2 0x3056 DUP4 PUSH2 0x2A1E JUMP JUMPDEST DUP1 PUSH1 0x0 JUMPDEST DUP4 DUP2 LT ISZERO PUSH2 0x3087 JUMPI DUP2 MLOAD PUSH2 0x306E DUP9 DUP3 PUSH2 0x2A2E JUMP JUMPDEST SWAP8 POP PUSH2 0x3079 DUP4 PUSH2 0x2A46 JUMP JUMPDEST SWAP3 POP POP PUSH1 0x1 DUP2 ADD SWAP1 POP PUSH2 0x305A JUMP JUMPDEST POP DUP6 SWAP4 POP POP POP POP SWAP3 SWAP2 POP POP JUMP JUMPDEST PUSH1 0x0 PUSH1 0x20 DUP3 ADD SWAP1 POP DUP2 DUP2 SUB PUSH1 0x0 DUP4 ADD MSTORE PUSH2 0x30AE DUP2 DUP5 PUSH2 0x3036 JUMP JUMPDEST SWAP1 POP SWAP3 SWAP2 POP POP JUMP JUMPDEST PUSH1 0x0 PUSH1 0x80 DUP3 ADD SWAP1 POP PUSH2 0x30CB PUSH1 0x0 DUP4 ADD DUP8 PUSH2 0x2E83 JUMP JUMPDEST DUP2 DUP2 SUB PUSH1 0x20 DUP4 ADD MSTORE PUSH2 0x30DD DUP2 DUP7 PUSH2 0x2F4C JUMP JUMPDEST SWAP1 POP PUSH2 0x30EC PUSH1 0x40 DUP4 ADD DUP6 PUSH2 0x2E92 JUMP JUMPDEST PUSH2 0x30F9 PUSH1 0x60 DUP4 ADD DUP5 PUSH2 0x28C7 JUMP JUMPDEST SWAP6 SWAP5 POP POP POP POP POP JUMP JUMPDEST PUSH1 0x0 PUSH8 0xFFFFFFFFFFFFFFFF DUP3 GT ISZERO PUSH2 0x311D JUMPI PUSH2 0x311C PUSH2 0x2BD2 JUMP JUMPDEST JUMPDEST PUSH1 0x20 DUP3 MUL SWAP1 POP PUSH1 0x20 DUP2 ADD SWAP1 POP SWAP2 SWAP1 POP JUMP JUMPDEST PUSH1 0x0 DUP1 REVERT JUMPDEST PUSH1 0x0 PUSH2 0x3146 PUSH2 0x3141 DUP5 PUSH2 0x3102 JUMP JUMPDEST PUSH2 0x2C32 JUMP JUMPDEST SWAP1 POP DUP1 DUP4 DUP3 MSTORE PUSH1 0x20 DUP3 ADD SWAP1 POP PUSH1 0x20 DUP5 MUL DUP4 ADD DUP6 DUP2 GT ISZERO PUSH2 0x3169 JUMPI PUSH2 0x3168 PUSH2 0x312E JUMP JUMPDEST JUMPDEST DUP4 JUMPDEST DUP2 DUP2 LT ISZERO PUSH2 0x3192 JUMPI DUP1 PUSH2 0x317E DUP9 DUP3 PUSH2 0x2879 JUMP JUMPDEST DUP5 MSTORE PUSH1 0x20 DUP5 ADD SWAP4 POP POP PUSH1 0x20 DUP2 ADD SWAP1 POP PUSH2 0x316B JUMP JUMPDEST POP POP POP SWAP4 SWAP3 POP POP POP JUMP JUMPDEST PUSH1 0x0 DUP3 PUSH1 0x1F DUP4 ADD SLT PUSH2 0x31B1 JUMPI PUSH2 0x31B0 PUSH2 0x2BC8 JUMP JUMPDEST JUMPDEST DUP2 CALLDATALOAD PUSH2 0x31C1 DUP5 DUP3 PUSH1 0x20 DUP7 ADD PUSH2 0x3133 JUMP JUMPDEST SWAP2 POP POP SWAP3 SWAP2 POP POP JUMP JUMPDEST PUSH1 0x0 DUP1 PUSH1 0x0 PUSH1 0x60 DUP5 DUP7 SUB SLT ISZERO PUSH2 0x31E3 JUMPI PUSH2 0x31E2 PUSH2 0x2826 JUMP JUMPDEST JUMPDEST PUSH1 0x0 PUSH2 0x31F1 DUP7 DUP3 DUP8 ADD PUSH2 0x2912 JUMP JUMPDEST SWAP4 POP POP PUSH1 0x20 DUP5 ADD CALLDATALOAD PUSH8 0xFFFFFFFFFFFFFFFF DUP2 GT ISZERO PUSH2 0x3212 JUMPI PUSH2 0x3211 PUSH2 0x282B JUMP JUMPDEST JUMPDEST PUSH2 0x321E DUP7 DUP3 DUP8 ADD PUSH2 0x319C JUMP JUMPDEST SWAP3 POP POP PUSH1 0x40 DUP5 ADD CALLDATALOAD PUSH8 0xFFFFFFFFFFFFFFFF DUP2 GT ISZERO PUSH2 0x323F JUMPI PUSH2 0x323E PUSH2 0x282B JUMP JUMPDEST JUMPDEST PUSH2 0x324B DUP7 DUP3 DUP8 ADD PUSH2 0x2CCF JUMP JUMPDEST SWAP2 POP POP SWAP3 POP SWAP3 POP SWAP3 JUMP JUMPDEST PUSH1 0x0 PUSH2 0x120 DUP3 ADD SWAP1 POP PUSH2 0x326B PUSH1 0x0 DUP4 ADD DUP13 PUSH2 0x2E83 JUMP JUMPDEST PUSH2 0x3278 PUSH1 0x20 DUP4 ADD DUP12 PUSH2 0x2E83 JUMP JUMPDEST PUSH2 0x3285 PUSH1 0x40 DUP4 ADD DUP11 PUSH2 0x2E92 JUMP JUMPDEST PUSH2 0x3292 PUSH1 0x60 DUP4 ADD DUP10 PUSH2 0x2E83 JUMP JUMPDEST PUSH2 0x329F PUSH1 0x80 DUP4 ADD DUP9 PUSH2 0x2E83 JUMP JUMPDEST PUSH2 0x32AC PUSH1 0xA0 DUP4 ADD DUP8 PUSH2 0x2EB5 JUMP JUMPDEST PUSH2 0x32B9 PUSH1 0xC0 DUP4 ADD DUP7 PUSH2 0x2EB5 JUMP JUMPDEST PUSH2 0x32C6 PUSH1 0xE0 DUP4 ADD DUP6 PUSH2 0x2F2C JUMP JUMPDEST DUP2 DUP2 SUB PUSH2 0x100 DUP4 ADD MSTORE PUSH2 0x32D9 DUP2 DUP5 PUSH2 0x2F4C JUMP JUMPDEST SWAP1 POP SWAP11 SWAP10 POP POP POP POP POP POP POP POP POP POP JUMP JUMPDEST PUSH1 0x0 PUSH1 0x20 DUP3 ADD SWAP1 POP PUSH2 0x32FE PUSH1 0x0 DUP4 ADD DUP5 PUSH2 0x2E92 JUMP JUMPDEST SWAP3 SWAP2 POP POP JUMP JUMPDEST PUSH1 0x0 DUP1 PUSH1 0x40 DUP4 DUP6 SUB SLT ISZERO PUSH2 0x331B JUMPI PUSH2 0x331A PUSH2 0x2826 JUMP JUMPDEST JUMPDEST PUSH1 0x0 PUSH2 0x3329 DUP6 DUP3 DUP7 ADD PUSH2 0x2879 JUMP JUMPDEST SWAP3 POP POP PUSH1 0x20 PUSH2 0x333A DUP6 DUP3 DUP7 ADD PUSH2 0x2912 JUMP JUMPDEST SWAP2 POP POP SWAP3 POP SWAP3 SWAP1 POP JUMP JUMPDEST PUSH32 0x414D3A436F757273654E6F74466F756E64000000000000000000000000000000 PUSH1 0x0 DUP3 ADD MSTORE POP JUMP JUMPDEST PUSH1 0x0 PUSH2 0x337A PUSH1 0x11 DUP4 PUSH2 0x2F3B JUMP JUMPDEST SWAP2 POP PUSH2 0x3385 DUP3 PUSH2 0x3344 JUMP JUMPDEST PUSH1 0x20 DUP3 ADD SWAP1 POP SWAP2 SWAP1 POP JUMP JUMPDEST PUSH1 0x0 PUSH1 0x20 DUP3 ADD SWAP1 POP DUP2 DUP2 SUB PUSH1 0x0 DUP4 ADD MSTORE PUSH2 0x33A9 DUP2 PUSH2 0x336D JUMP JUMPDEST SWAP1 POP SWAP2 SWAP1 POP JUMP JUMPDEST PUSH32 0x4E487B7100000000000000000000000000000000000000000000000000000000 PUSH1 0x0 MSTORE PUSH1 0x22 PUSH1 0x4 MSTORE PUSH1 0x24 PUSH1 0x0 REVERT JUMPDEST PUSH1 0x0 PUSH1 0x2 DUP3 DIV SWAP1 POP PUSH1 0x1 DUP3 AND DUP1 PUSH2 0x33F7 JUMPI PUSH1 0x7F DUP3 AND SWAP2 POP JUMPDEST PUSH1 0x20 DUP3 LT DUP2 SUB PUSH2 0x340A JUMPI PUSH2 0x3409 PUSH2 0x33B0 JUMP JUMPDEST JUMPDEST POP SWAP2 SWAP1 POP JUMP JUMPDEST PUSH32 0x414D3A466F726D4E6F74466F756E640000000000000000000000000000000000 PUSH1 0x0 DUP3 ADD MSTORE POP JUMP JUMPDEST PUSH1 0x0 PUSH2 0x3446 PUSH1 0xF DUP4 PUSH2 0x2F3B JUMP JUMPDEST SWAP2 POP PUSH2 0x3451 DUP3 PUSH2 0x3410 JUMP JUMPDEST PUSH1 0x20 DUP3 ADD SWAP1 POP SWAP2 SWAP1 POP JUMP JUMPDEST PUSH1 0x0 PUSH1 0x20 DUP3 ADD SWAP1 POP DUP2 DUP2 SUB PUSH1 0x0 DUP4 ADD MSTORE PUSH2 0x3475 DUP2 PUSH2 0x3439 JUMP JUMPDEST SWAP1 POP SWAP2 SWAP1 POP JUMP JUMPDEST PUSH32 0x414D3A4E6F74466F726D54656163686572000000000000000000000000000000 PUSH1 0x0 DUP3 ADD MSTORE POP JUMP JUMPDEST PUSH1 0x0 PUSH2 0x34B2 PUSH1 0x11 DUP4 PUSH2 0x2F3B JUMP JUMPDEST SWAP2 POP PUSH2 0x34BD DUP3 PUSH2 0x347C JUMP JUMPDEST PUSH1 0x20 DUP3 ADD SWAP1 POP SWAP2 SWAP1 POP JUMP JUMPDEST PUSH1 0x0 PUSH1 0x20 DUP3 ADD SWAP1 POP DUP2 DUP2 SUB PUSH1 0x0 DUP4 ADD MSTORE PUSH2 0x34E1 DUP2 PUSH2 0x34A5 JUMP JUMPDEST SWAP1 POP SWAP2 SWAP1 POP JUMP JUMPDEST PUSH32 0x414D3A466F726D4E6F744F70656E000000000000000000000000000000000000 PUSH1 0x0 DUP3 ADD MSTORE POP JUMP JUMPDEST PUSH1 0x0 PUSH2 0x351E PUSH1 0xE DUP4 PUSH2 0x2F3B JUMP JUMPDEST SWAP2 POP PUSH2 0x3529 DUP3 PUSH2 0x34E8 JUMP JUMPDEST PUSH1 0x20 DUP3 ADD SWAP1 POP SWAP2 SWAP1 POP JUMP JUMPDEST PUSH1 0x0 PUSH1 0x20 DUP3 ADD SWAP1 POP DUP2 DUP2 SUB PUSH1 0x0 DUP4 ADD MSTORE PUSH2 0x354D DUP2 PUSH2 0x3511 JUMP JUMPDEST SWAP1 POP SWAP2 SWAP1 POP JUMP JUMPDEST PUSH1 0x0 PUSH1 0x40 DUP3 ADD SWAP1 POP PUSH2 0x3569 PUSH1 0x0 DUP4 ADD DUP6 PUSH2 0x2E83 JUMP JUMPDEST PUSH2 0x3576 PUSH1 0x20 DUP4 ADD DUP5 PUSH2 0x2E83 JUMP JUMPDEST SWAP4 SWAP3 POP POP POP JUMP JUMPDEST PUSH32 0x414D3A4F6E6C7941646D696E0000000000000000000000000000000000000000 PUSH1 0x0 DUP3 ADD MSTORE POP JUMP JUMPDEST PUSH1 0x0 PUSH2 0x35B3 PUSH1 0xC DUP4 PUSH2 0x2F3B JUMP JUMPDEST SWAP2 POP PUSH2 0x35BE DUP3 PUSH2 0x357D JUMP JUMPDEST PUSH1 0x20 DUP3 ADD SWAP1 POP SWAP2 SWAP1 POP JUMP JUMPDEST PUSH1 0x0 PUSH1 0x20 DUP3 ADD SWAP1 POP DUP2 DUP2 SUB PUSH1 0x0 DUP4 ADD MSTORE PUSH2 0x35E2 DUP2 PUSH2 0x35A6 JUMP JUMPDEST SWAP1 POP SWAP2 SWAP1 POP JUMP JUMPDEST PUSH32 0x414D3A496E76616C696454656163686572416464726573730000000000000000 PUSH1 0x0 DUP3 ADD MSTORE POP JUMP JUMPDEST PUSH1 0x0 PUSH2 0x361F PUSH1 0x18 DUP4 PUSH2 0x2F3B JUMP JUMPDEST SWAP2 POP PUSH2 0x362A DUP3 PUSH2 0x35E9 JUMP JUMPDEST PUSH1 0x20 DUP3 ADD SWAP1 POP SWAP2 SWAP1 POP JUMP JUMPDEST PUSH1 0x0 PUSH1 0x20 DUP3 ADD SWAP1 POP DUP2 DUP2 SUB PUSH1 0x0 DUP4 ADD MSTORE PUSH2 0x364E DUP2 PUSH2 0x3612 JUMP JUMPDEST SWAP1 POP SWAP2 SWAP1 POP JUMP JUMPDEST PUSH32 0x414D3A4F6E6C7954656163686572000000000000000000000000000000000000 PUSH1 0x0 DUP3 ADD MSTORE POP JUMP JUMPDEST PUSH1 0x0 PUSH2 0x368B PUSH1 0xE DUP4 PUSH2 0x2F3B JUMP JUMPDEST SWAP2 POP PUSH2 0x3696 DUP3 PUSH2 0x3655 JUMP JUMPDEST PUSH1 0x20 DUP3 ADD SWAP1 POP SWAP2 SWAP1 POP JUMP JUMPDEST PUSH1 0x0 PUSH1 0x20 DUP3 ADD SWAP1 POP DUP2 DUP2 SUB PUSH1 0x0 DUP4 ADD MSTORE PUSH2 0x36BA DUP2 PUSH2 0x367E JUMP JUMPDEST SWAP1 POP SWAP2 SWAP1 POP JUMP JUMPDEST PUSH32 0x414D3A436F757273654E616D65456D7074790000000000000000000000000000 PUSH1 0x0 DUP3 ADD MSTORE POP JUMP JUMPDEST PUSH1 0x0 PUSH2 0x36F7 PUSH1 0x12 DUP4 PUSH2 0x2F3B JUMP JUMPDEST SWAP2 POP PUSH2 0x3702 DUP3 PUSH2 0x36C1 JUMP JUMPDEST PUSH1 0x20 DUP3 ADD SWAP1 POP SWAP2 SWAP1 POP JUMP JUMPDEST PUSH1 0x0 PUSH1 0x20 DUP3 ADD SWAP1 POP DUP2 DUP2 SUB PUSH1 0x0 DUP4 ADD MSTORE PUSH2 0x3726 DUP2 PUSH2 0x36EA JUMP JUMPDEST SWAP1 POP SWAP2 SWAP1 POP JUMP JUMPDEST PUSH32 0x4E487B7100000000000000000000000000000000000000000000000000000000 PUSH1 0x0 MSTORE PUSH1 0x11 PUSH1 0x4 MSTORE PUSH1 0x24 PUSH1 0x0 REVERT JUMPDEST PUSH1 0x0 PUSH2 0x3767 DUP3 PUSH2 0x28F1 JUMP JUMPDEST SWAP2 POP PUSH32 0xFFFFFFFFFFFFFFFFFFFFFFFFFFFFFFFFFFFFFFFFFFFFFFFFFFFFFFFFFFFFFFFF DUP3 SUB PUSH2 0x3799 JUMPI PUSH2 0x3798 PUSH2 0x372D JUMP JUMPDEST JUMPDEST PUSH1 0x1 DUP3 ADD SWAP1 POP SWAP2 SWAP1 POP JUMP JUMPDEST PUSH1 0x0 DUP2 SWAP1 POP DUP2 PUSH1 0x0 MSTORE PUSH1 0x20 PUSH1 0x0 KECCAK256 SWAP1 POP SWAP2 SWAP1 POP JUMP JUMPDEST PUSH1 0x0 PUSH1 0x20 PUSH1 0x1F DUP4 ADD DIV SWAP1 POP SWAP2 SWAP1 POP JUMP JUMPDEST PUSH1 0x0 DUP3 DUP3 SHL SWAP1 POP SWAP3 SWAP2 POP POP JUMP JUMPDEST PUSH1 0x0 PUSH1 0x8 DUP4 MUL PUSH2 0x3806 PUSH32 0xFFFFFFFFFFFFFFFFFFFFFFFFFFFFFFFFFFFFFFFFFFFFFFFFFFFFFFFFFFFFFFFF DUP3 PUSH2 0x37C9 JUMP JUMPDEST PUSH2 0x3810 DUP7 DUP4 PUSH2 0x37C9 JUMP JUMPDEST SWAP6 POP DUP1 NOT DUP5 AND SWAP4 POP DUP1 DUP7 AND DUP5 OR SWAP3 POP POP POP SWAP4 SWAP3 POP POP POP JUMP JUMPDEST PUSH1 0x0 DUP2 SWAP1 POP SWAP2 SWAP1 POP JUMP JUMPDEST PUSH1 0x0 PUSH2 0x384D PUSH2 0x3848 PUSH2 0x3843 DUP5 PUSH2 0x28F1 JUMP JUMPDEST PUSH2 0x3828 JUMP JUMPDEST PUSH2 0x28F1 JUMP JUMPDEST SWAP1 POP SWAP2 SWAP1 POP JUMP JUMPDEST PUSH1 0x0 DUP2 SWAP1 POP SWAP2 SWAP1 POP JUMP JUMPDEST PUSH2 0x3867 DUP4 PUSH2 0x3832 JUMP JUMPDEST PUSH2 0x387B PUSH2 0x3873 DUP3 PUSH2 0x3854 JUMP JUMPDEST DUP5 DUP5 SLOAD PUSH2 0x37D6 JUMP JUMPDEST DUP3 SSTORE POP POP POP POP JUMP JUMPDEST PUSH1 0x0 SWAP1 JUMP JUMPDEST PUSH2 0x3890 PUSH2 0x3883 JUMP JUMPDEST PUSH2 0x389B DUP2 DUP5 DUP5 PUSH2 0x385E JUMP JUMPDEST POP POP POP JUMP JUMPDEST JUMPDEST DUP2 DUP2 LT ISZERO PUSH2 0x38BF JUMPI PUSH2 0x38B4 PUSH1 0x0 DUP3 PUSH2 0x3888 JUMP JUMPDEST PUSH1 0x1 DUP2 ADD SWAP1 POP PUSH2 0x38A1 JUMP JUMPDEST POP POP JUMP JUMPDEST PUSH1 0x1F DUP3 GT ISZERO PUSH2 0x3904 JUMPI PUSH2 0x38D5 DUP2 PUSH2 0x37A4 JUMP JUMPDEST PUSH2 0x38DE DUP5 PUSH2 0x37B9 JUMP JUMPDEST DUP2 ADD PUSH1 0x20 DUP6 LT ISZERO PUSH2 0x38ED JUMPI DUP2 SWAP1 POP JUMPDEST PUSH2 0x3901 PUSH2 0x38F9 DUP6 PUSH2 0x37B9 JUMP JUMPDEST DUP4 ADD DUP3 PUSH2 0x38A0 JUMP JUMPDEST POP POP JUMPDEST POP POP POP JUMP JUMPDEST PUSH1 0x0 DUP3 DUP3 SHR SWAP1 POP SWAP3 SWAP2 POP POP JUMP JUMPDEST PUSH1 0x0 PUSH2 0x3927 PUSH1 0x0 NOT DUP5 PUSH1 0x8 MUL PUSH2 0x3909 JUMP JUMPDEST NOT DUP1 DUP4 AND SWAP2 POP POP SWAP3 SWAP2 POP POP JUMP JUMPDEST PUSH1 0x0 PUSH2 0x3940 DUP4 DUP4 PUSH2 0x3916 JUMP JUMPDEST SWAP2 POP DUP3 PUSH1 0x2 MUL DUP3 OR SWAP1 POP SWAP3 SWAP2 POP POP JUMP JUMPDEST PUSH2 0x3959 DUP3 PUSH2 0x2963 JUMP JUMPDEST PUSH8 0xFFFFFFFFFFFFFFFF DUP2 GT ISZERO PUSH2 0x3972 JUMPI PUSH2 0x3971 PUSH2 0x2BD2 JUMP JUMPDEST JUMPDEST PUSH2 0x397C DUP3 SLOAD PUSH2 0x33DF JUMP JUMPDEST PUSH2 0x3987 DUP3 DUP3 DUP6 PUSH2 0x38C3 JUMP JUMPDEST PUSH1 0x0 PUSH1 0x20 SWAP1 POP PUSH1 0x1F DUP4 GT PUSH1 0x1 DUP2 EQ PUSH2 0x39BA JUMPI PUSH1 0x0 DUP5 ISZERO PUSH2 0x39A8 JUMPI DUP3 DUP8 ADD MLOAD SWAP1 POP JUMPDEST PUSH2 0x39B2 DUP6 DUP3 PUSH2 0x3934 JUMP JUMPDEST DUP7 SSTORE POP PUSH2 0x3A1A JUMP JUMPDEST PUSH1 0x1F NOT DUP5 AND PUSH2 0x39C8 DUP7 PUSH2 0x37A4 JUMP JUMPDEST PUSH1 0x0 JUMPDEST DUP3 DUP2 LT ISZERO PUSH2 0x39F0 JUMPI DUP5 DUP10 ADD MLOAD DUP3 SSTORE PUSH1 0x1 DUP3 ADD SWAP2 POP PUSH1 0x20 DUP6 ADD SWAP5 POP PUSH1 0x20 DUP2 ADD SWAP1 POP PUSH2 0x39CB JUMP JUMPDEST DUP7 DUP4 LT ISZERO PUSH2 0x3A0D JUMPI DUP5 DUP10 ADD MLOAD PUSH2 0x3A09 PUSH1 0x1F DUP10 AND DUP3 PUSH2 0x3916 JUMP JUMPDEST DUP4 SSTORE POP JUMPDEST PUSH1 0x1 PUSH1 0x2 DUP9 MUL ADD DUP9 SSTORE POP POP POP JUMPDEST POP POP POP POP POP POP JUMP JUMPDEST PUSH1 0x0 PUSH1 0x20 DUP3 ADD SWAP1 POP DUP2 DUP2 SUB PUSH1 0x0 DUP4 ADD MSTORE PUSH2 0x3A3C DUP2 DUP5 PUSH2 0x2F4C JUMP JUMPDEST SWAP1 POP SWAP3 SWAP2 POP POP JUMP JUMPDEST PUSH32 0x414D3A4E6F74436F757273655465616368657200000000000000000000000000 PUSH1 0x0 DUP3 ADD MSTORE POP JUMP JUMPDEST PUSH1 0x0 PUSH2 0x3A7A PUSH1 0x13 DUP4 PUSH2 0x2F3B JUMP JUMPDEST SWAP2 POP PUSH2 0x3A85 DUP3 PUSH2 0x3A44 JUMP JUMPDEST PUSH1 0x20 DUP3 ADD SWAP1 POP SWAP2 SWAP1 POP JUMP JUMPDEST PUSH1 0x0 PUSH1 0x20 DUP3 ADD SWAP1 POP DUP2 DUP2 SUB PUSH1 0x0 DUP4 ADD MSTORE PUSH2 0x3AA9 DUP2 PUSH2 0x3A6D JUMP JUMPDEST SWAP1 POP SWAP2 SWAP1 POP JUMP JUMPDEST PUSH32 0x4E487B7100000000000000000000000000000000000000000000000000000000 PUSH1 0x0 MSTORE PUSH1 0x32 PUSH1 0x4 MSTORE PUSH1 0x24 PUSH1 0x0 REVERT JUMPDEST PUSH32 0x414D3A4E6F74456E726F6C6C6564496E466F726D000000000000000000000000 PUSH1 0x0 DUP3 ADD MSTORE POP JUMP JUMPDEST PUSH1 0x0 PUSH2 0x3B15 PUSH1 0x14 DUP4 PUSH2 0x2F3B JUMP JUMPDEST SWAP2 POP PUSH2 0x3B20 DUP3 PUSH2 0x3ADF JUMP JUMPDEST PUSH1 0x20 DUP3 ADD SWAP1 POP SWAP2 SWAP1 POP JUMP JUMPDEST PUSH1 0x0 PUSH1 0x20 DUP3 ADD SWAP1 POP DUP2 DUP2 SUB PUSH1 0x0 DUP4 ADD MSTORE PUSH2 0x3B44 DUP2 PUSH2 0x3B08 JUMP JUMPDEST SWAP1 POP SWAP2 SWAP1 POP JUMP JUMPDEST PUSH32 0x414D3A416C7265616479526573706F6E64656400000000000000000000000000 PUSH1 0x0 DUP3 ADD MSTORE POP JUMP JUMPDEST PUSH1 0x0 PUSH2 0x3B81 PUSH1 0x13 DUP4 PUSH2 0x2F3B JUMP JUMPDEST SWAP2 POP PUSH2 0x3B8C DUP3 PUSH2 0x3B4B JUMP JUMPDEST PUSH1 0x20 DUP3 ADD SWAP1 POP SWAP2 SWAP1 POP JUMP JUMPDEST PUSH1 0x0 PUSH1 0x20 DUP3 ADD SWAP1 POP DUP2 DUP2 SUB PUSH1 0x0 DUP4 ADD MSTORE PUSH2 0x3BB0 DUP2 PUSH2 0x3B74 JUMP JUMPDEST SWAP1 POP SWAP2 SWAP1 POP JUMP JUMPDEST PUSH32 0x414D3A436F757273654E6F744163746976650000000000000000000000000000 PUSH1 0x0 DUP3 ADD MSTORE POP JUMP JUMPDEST PUSH1 0x0 PUSH2 0x3BED PUSH1 0x12 DUP4 PUSH2 0x2F3B JUMP JUMPDEST SWAP2 POP PUSH2 0x3BF8 DUP3 PUSH2 0x3BB7 JUMP JUMPDEST PUSH1 0x20 DUP3 ADD SWAP1 POP SWAP2 SWAP1 POP JUMP JUMPDEST PUSH1 0x0 PUSH1 0x20 DUP3 ADD SWAP1 POP DUP2 DUP2 SUB PUSH1 0x0 DUP4 ADD MSTORE PUSH2 0x3C1C DUP2 PUSH2 0x3BE0 JUMP JUMPDEST SWAP1 POP SWAP2 SWAP1 POP JUMP JUMPDEST PUSH32 0x414D3A53747564656E744C697374456D70747900000000000000000000000000 PUSH1 0x0 DUP3 ADD MSTORE POP JUMP JUMPDEST PUSH1 0x0 PUSH2 0x3C59 PUSH1 0x13 DUP4 PUSH2 0x2F3B JUMP JUMPDEST SWAP2 POP PUSH2 0x3C64 DUP3 PUSH2 0x3C23 JUMP JUMPDEST PUSH1 0x20 DUP3 ADD SWAP1 POP SWAP2 SWAP1 POP JUMP JUMPDEST PUSH1 0x0 PUSH1 0x20 DUP3 ADD SWAP1 POP DUP2 DUP2 SUB PUSH1 0x0 DUP4 ADD MSTORE PUSH2 0x3C88 DUP2 PUSH2 0x3C4C JUMP JUMPDEST SWAP1 POP SWAP2 SWAP1 POP JUMP JUMPDEST PUSH32 0x414D3A496E76616C696453747564656E7441646472496E4C6973740000000000 PUSH1 0x0 DUP3 ADD MSTORE POP JUMP JUMPDEST PUSH1 0x0 PUSH2 0x3CC5 PUSH1 0x1B DUP4 PUSH2 0x2F3B JUMP JUMPDEST SWAP2 POP PUSH2 0x3CD0 DUP3 PUSH2 0x3C8F JUMP JUMPDEST PUSH1 0x20 DUP3 ADD SWAP1 POP SWAP2 SWAP1 POP JUMP JUMPDEST PUSH1 0x0 PUSH1 0x20 DUP3 ADD SWAP1 POP DUP2 DUP2 SUB PUSH1 0x0 DUP4 ADD MSTORE PUSH2 0x3CF4 DUP2 PUSH2 0x3CB8 JUMP JUMPDEST SWAP1 POP SWAP2 SWAP1 POP JUMP JUMPDEST PUSH1 0x0 PUSH1 0x40 DUP3 ADD SWAP1 POP PUSH2 0x3D10 PUSH1 0x0 DUP4 ADD DUP6 PUSH2 0x2E83 JUMP JUMPDEST DUP2 DUP2 SUB PUSH1 0x20 DUP4 ADD MSTORE PUSH2 0x3D22 DUP2 DUP5 PUSH2 0x2F4C JUMP JUMPDEST SWAP1 POP SWAP4 SWAP3 POP POP POP JUMP INVALID LOG2 PUSH5 0x6970667358 0x22 SLT KECCAK256 STATICCALL 0xDA 0xAA 0xBD 0xB4 LT MLOAD 0x23 KECCAK256 0xEF 0x26 SLT 0x1F SLT SWAP7 0xFB PUSH4 0x9C4047F6 CALLER SWAP14 0xB6 DUP16 PUSH12 0xBD96B824531F64736F6C6343 STOP ADDMOD SGT STOP CALLER "},"methodIdentifiers":{"addCourse(string)":"2e554076","admin()":"f851a440","attendanceForms(uint256)":"50893cd3","closeAttendanceForm(uint256)":"0b9bf4eb","courseCounter()":"82216fbd","courses(uint256)":"96f979d2","createAttendanceForm(uint256,address[],string)":"e5357db6","formCounter()":"c22247b8","getActiveTeacherCourseIds(address)":"8df7dcd8","getAttendanceForm(uint256)":"ef39acbb","getCourse(uint256)":"0b91e28d","getEnrolledStudentsForForm(uint256)":"2f9fdd7b","getFormIdsForCourse(uint256)":"ea159f81","getFormsStudentIsEnrolledIn(address)":"d6080667","getOpenFormsForStudentInCourse(address,uint256)":"fab3ae45","getStudentAttendanceStatusForForm(uint256,address)":"1bfe1c99","isTeacherRegistered(address)":"08006424","registerTeacher(address)":"7cb45881","submitAttendance(uint256,bool)":"99d2d1b0","unregisterTeacher(address)":"16310610","updateCourseStatus(uint256,bool)":"4cea127b"}}}}}