{
  "_format": "hh-sol-artifact-1",
  "contractName": "AttendanceManagement",
  "sourceName": "contracts/AttendanceManagement.sol",
  "abi": [
    {
      "inputs": [],
      "stateMutability": "nonpayable",
      "type": "constructor"
    },
    {
      "anonymous": false,
      "inputs": [
        {
          "indexed": false,
          "internalType": "string",
          "name": "action",
          "type": "string"
        },
        {
          "indexed": true,
          "internalType": "address",
          "name": "account",
          "type": "address"
        }
      ],
      "name": "AdminAction",
      "type": "event"
    },
    {
      "anonymous": false,
      "inputs": [
        {
          "indexed": true,
          "internalType": "uint256",
          "name": "formId",
          "type": "uint256"
        },
        {
          "indexed": false,
          "internalType": "uint256",
          "name": "presentCount",
          "type": "uint256"
        },
        {
          "indexed": false,
          "internalType": "uint256",
          "name": "totalEnrolled",
          "type": "uint256"
        }
      ],
      "name": "AttendanceFormClosed",
      "type": "event"
    },
    {
      "anonymous": false,
      "inputs": [
        {
          "indexed": true,
          "internalType": "uint256",
          "name": "formId",
          "type": "uint256"
        },
        {
          "indexed": true,
          "internalType": "uint256",
          "name": "courseId",
          "type": "uint256"
        },
        {
          "indexed": true,
          "internalType": "address",
          "name": "teacher",
          "type": "address"
        },
        {
          "indexed": false,
          "internalType": "uint256",
          "name": "studentCount",
          "type": "uint256"
        },
        {
          "indexed": false,
          "internalType": "string",
          "name": "description",
          "type": "string"
        }
      ],
      "name": "AttendanceFormCreated",
      "type": "event"
    },
    {
      "anonymous": false,
      "inputs": [
        {
          "indexed": true,
          "internalType": "uint256",
          "name": "formId",
          "type": "uint256"
        },
        {
          "indexed": true,
          "internalType": "address",
          "name": "studentAddress",
          "type": "address"
        },
        {
          "indexed": false,
          "internalType": "bool",
          "name": "attended",
          "type": "bool"
        }
      ],
      "name": "AttendanceSubmitted",
      "type": "event"
    },
    {
      "anonymous": false,
      "inputs": [
        {
          "indexed": true,
          "internalType": "uint256",
          "name": "courseId",
          "type": "uint256"
        },
        {
          "indexed": false,
          "internalType": "string",
          "name": "name",
          "type": "string"
        },
        {
          "indexed": true,
          "internalType": "address",
          "name": "teacher",
          "type": "address"
        }
      ],
      "name": "CourseAdded",
      "type": "event"
    },
    {
      "anonymous": false,
      "inputs": [
        {
          "indexed": true,
          "internalType": "uint256",
          "name": "courseId",
          "type": "uint256"
        },
        {
          "indexed": false,
          "internalType": "bool",
          "name": "isActive",
          "type": "bool"
        }
      ],
      "name": "CourseStatusUpdated",
      "type": "event"
    },
    {
      "anonymous": false,
      "inputs": [
        {
          "indexed": true,
          "internalType": "address",
          "name": "teacherAddress",
          "type": "address"
        },
        {
          "indexed": false,
          "internalType": "bool",
          "name": "isRegistered",
          "type": "bool"
        }
      ],
      "name": "TeacherRegistered",
      "type": "event"
    },
    {
      "inputs": [
        {
          "internalType": "string",
          "name": "_courseName",
          "type": "string"
        }
      ],
      "name": "addCourse",
      "outputs": [],
      "stateMutability": "nonpayable",
      "type": "function"
    },
    {
      "inputs": [],
      "name": "admin",
      "outputs": [
        {
          "internalType": "address",
          "name": "",
          "type": "address"
        }
      ],
      "stateMutability": "view",
      "type": "function"
    },
    {
      "inputs": [
        {
          "internalType": "uint256",
          "name": "",
          "type": "uint256"
        }
      ],
      "name": "attendanceForms",
      "outputs": [
        {
          "internalType": "uint256",
          "name": "formId",
          "type": "uint256"
        },
        {
          "internalType": "uint256",
          "name": "courseId",
          "type": "uint256"
        },
        {
          "internalType": "address",
          "name": "teacher",
          "type": "address"
        },
        {
          "internalType": "uint256",
          "name": "presentCount",
          "type": "uint256"
        },
        {
          "internalType": "uint64",
          "name": "openTimestamp",
          "type": "uint64"
        },
        {
          "internalType": "uint64",
          "name": "closeTimestamp",
          "type": "uint64"
        },
        {
          "internalType": "enum AttendanceManagement.FormStatus",
          "name": "status",
          "type": "uint8"
        },
        {
          "internalType": "string",
          "name": "description",
          "type": "string"
        }
      ],
      "stateMutability": "view",
      "type": "function"
    },
    {
      "inputs": [
        {
          "internalType": "uint256",
          "name": "_formId",
          "type": "uint256"
        }
      ],
      "name": "closeAttendanceForm",
      "outputs": [],
      "stateMutability": "nonpayable",
      "type": "function"
    },
    {
      "inputs": [],
      "name": "courseCounter",
      "outputs": [
        {
          "internalType": "uint256",
          "name": "",
          "type": "uint256"
        }
      ],
      "stateMutability": "view",
      "type": "function"
    },
    {
      "inputs": [
        {
          "internalType": "uint256",
          "name": "",
          "type": "uint256"
        }
      ],
      "name": "courses",
      "outputs": [
        {
          "internalType": "uint256",
          "name": "courseId",
          "type": "uint256"
        },
        {
          "internalType": "string",
          "name": "name",
          "type": "string"
        },
        {
          "internalType": "address",
          "name": "teacher",
          "type": "address"
        },
        {
          "internalType": "bool",
          "name": "isActive",
          "type": "bool"
        }
      ],
      "stateMutability": "view",
      "type": "function"
    },
    {
      "inputs": [
        {
          "internalType": "uint256",
          "name": "_courseId",
          "type": "uint256"
        },
        {
          "internalType": "address[]",
          "name": "_studentAddresses",
          "type": "address[]"
        },
        {
          "internalType": "string",
          "name": "_description",
          "type": "string"
        }
      ],
      "name": "createAttendanceForm",
      "outputs": [],
      "stateMutability": "nonpayable",
      "type": "function"
    },
    {
      "inputs": [],
      "name": "formCounter",
      "outputs": [
        {
          "internalType": "uint256",
          "name": "",
          "type": "uint256"
        }
      ],
      "stateMutability": "view",
      "type": "function"
    },
    {
      "inputs": [
        {
          "internalType": "address",
          "name": "_teacher",
          "type": "address"
        }
      ],
      "name": "getActiveTeacherCourseIds",
      "outputs": [
        {
          "internalType": "uint256[]",
          "name": "",
          "type": "uint256[]"
        }
      ],
      "stateMutability": "view",
      "type": "function"
    },
    {
      "inputs": [
        {
          "internalType": "uint256",
          "name": "_formId",
          "type": "uint256"
        }
      ],
      "name": "getAttendanceForm",
      "outputs": [
        {
          "internalType": "uint256",
          "name": "formId",
          "type": "uint256"
        },
        {
          "internalType": "uint256",
          "name": "courseId",
          "type": "uint256"
        },
        {
          "internalType": "address",
          "name": "teacher",
          "type": "address"
        },
        {
          "internalType": "uint256",
          "name": "enrolledStudentCount",
          "type": "uint256"
        },
        {
          "internalType": "uint256",
          "name": "presentCount",
          "type": "uint256"
        },
        {
          "internalType": "uint64",
          "name": "openTimestamp",
          "type": "uint64"
        },
        {
          "internalType": "uint64",
          "name": "closeTimestamp",
          "type": "uint64"
        },
        {
          "internalType": "enum AttendanceManagement.FormStatus",
          "name": "status",
          "type": "uint8"
        },
        {
          "internalType": "string",
          "name": "description",
          "type": "string"
        }
      ],
      "stateMutability": "view",
      "type": "function"
    },
    {
      "inputs": [
        {
          "internalType": "uint256",
          "name": "_courseId",
          "type": "uint256"
        }
      ],
      "name": "getCourse",
      "outputs": [
        {
          "components": [
            {
              "internalType": "uint256",
              "name": "courseId",
              "type": "uint256"
            },
            {
              "internalType": "string",
              "name": "name",
              "type": "string"
            },
            {
              "internalType": "address",
              "name": "teacher",
              "type": "address"
            },
            {
              "internalType": "uint256[]",
              "name": "formIds",
              "type": "uint256[]"
            },
            {
              "internalType": "bool",
              "name": "isActive",
              "type": "bool"
            }
          ],
          "internalType": "struct AttendanceManagement.Course",
          "name": "",
          "type": "tuple"
        }
      ],
      "stateMutability": "view",
      "type": "function"
    },
    {
      "inputs": [
        {
          "internalType": "uint256",
          "name": "_formId",
          "type": "uint256"
        }
      ],
      "name": "getEnrolledStudentsForForm",
      "outputs": [
        {
          "internalType": "address[]",
          "name": "",
          "type": "address[]"
        }
      ],
      "stateMutability": "view",
      "type": "function"
    },
    {
      "inputs": [
        {
          "internalType": "uint256",
          "name": "_courseId",
          "type": "uint256"
        }
      ],
      "name": "getFormIdsForCourse",
      "outputs": [
        {
          "internalType": "uint256[]",
          "name": "",
          "type": "uint256[]"
        }
      ],
      "stateMutability": "view",
      "type": "function"
    },
    {
      "inputs": [
        {
          "internalType": "address",
          "name": "_student",
          "type": "address"
        }
      ],
      "name": "getFormsStudentIsEnrolledIn",
      "outputs": [
        {
          "internalType": "uint256[]",
          "name": "",
          "type": "uint256[]"
        }
      ],
      "stateMutability": "view",
      "type": "function"
    },
    {
      "inputs": [
        {
          "internalType": "address",
          "name": "_student",
          "type": "address"
        },
        {
          "internalType": "uint256",
          "name": "_courseId",
          "type": "uint256"
        }
      ],
      "name": "getOpenFormsForStudentInCourse",
      "outputs": [
        {
          "internalType": "uint256[]",
          "name": "",
          "type": "uint256[]"
        }
      ],
      "stateMutability": "view",
      "type": "function"
    },
    {
      "inputs": [
        {
          "internalType": "uint256",
          "name": "_formId",
          "type": "uint256"
        },
        {
          "internalType": "address",
          "name": "_student",
          "type": "address"
        }
      ],
      "name": "getStudentAttendanceStatusForForm",
      "outputs": [
        {
          "internalType": "bool",
          "name": "hasResponded",
          "type": "bool"
        },
        {
          "internalType": "bool",
          "name": "isPresent",
          "type": "bool"
        }
      ],
      "stateMutability": "view",
      "type": "function"
    },
    {
      "inputs": [
        {
          "internalType": "address",
          "name": "",
          "type": "address"
        }
      ],
      "name": "isTeacherRegistered",
      "outputs": [
        {
          "internalType": "bool",
          "name": "",
          "type": "bool"
        }
      ],
      "stateMutability": "view",
      "type": "function"
    },
    {
      "inputs": [
        {
          "internalType": "address",
          "name": "_teacherAddress",
          "type": "address"
        }
      ],
      "name": "registerTeacher",
      "outputs": [],
      "stateMutability": "nonpayable",
      "type": "function"
    },
    {
      "inputs": [
        {
          "internalType": "uint256",
          "name": "_formId",
          "type": "uint256"
        },
        {
          "internalType": "bool",
          "name": "_attended",
          "type": "bool"
        }
      ],
      "name": "submitAttendance",
      "outputs": [],
      "stateMutability": "nonpayable",
      "type": "function"
    },
    {
      "inputs": [
        {
          "internalType": "address",
          "name": "_teacherAddress",
          "type": "address"
        }
      ],
      "name": "unregisterTeacher",
      "outputs": [],
      "stateMutability": "nonpayable",
      "type": "function"
    },
    {
      "inputs": [
        {
          "internalType": "uint256",
          "name": "_courseId",
          "type": "uint256"
        },
        {
          "internalType": "bool",
          "name": "_isActive",
          "type": "bool"
        }
      ],
      "name": "updateCourseStatus",
      "outputs": [],
      "stateMutability": "nonpayable",
      "type": "function"
    }
  ],
  "bytecode": "0x60806040523480156200001157600080fd5b50336000806101000a81548173ffffffffffffffffffffffffffffffffffffffff021916908373ffffffffffffffffffffffffffffffffffffffff160217905550600060038190555060006005819055503373ffffffffffffffffffffffffffffffffffffffff167f381d2e4c63b55a6c9e8d2c9aaf6ce37ae137da219b7f07ab41c797b148b15181604051620000a89062000117565b60405180910390a262000139565b600082825260208201905092915050565b7f436f6e74726163744465706c6f79656400000000000000000000000000000000600082015250565b6000620000ff601083620000b6565b91506200010c82620000c7565b602082019050919050565b600060208201905081810360008301526200013281620000f0565b9050919050565b613d6180620001496000396000f3fe608060405234801561001057600080fd5b50600436106101375760003560e01c806382216fbd116100b8578063d60806671161007c578063d60806671461037b578063e5357db6146103ab578063ea159f81146103c7578063ef39acbb146103f7578063f851a4401461042f578063fab3ae451461044d57610137565b806382216fbd146102c05780638df7dcd8146102de57806396f979d21461030e57806399d2d1b014610341578063c22247b81461035d57610137565b80632e554076116100ff5780632e554076146102055780632f9fdd7b146102215780634cea127b1461025157806350893cd31461026d5780637cb45881146102a457610137565b8063080064241461013c5780630b91e28d1461016c5780630b9bf4eb1461019c57806316310610146101b85780631bfe1c99146101d4575b600080fd5b6101566004803603810190610151919061288e565b61047d565b60405161016391906128d6565b60405180910390f35b61018660048036038101906101819190612927565b61049d565b6040516101939190612b3d565b60405180910390f35b6101b660048036038101906101b19190612927565b610688565b005b6101d260048036038101906101cd919061288e565b6108cb565b005b6101ee60048036038101906101e99190612b5f565b610a72565b6040516101fc929190612b9f565b60405180910390f35b61021f600480360381019061021a9190612cfd565b610b9b565b005b61023b60048036038101906102369190612927565b610e1e565b6040516102489190612df5565b60405180910390f35b61026b60048036038101906102669190612e43565b610f1b565b005b61028760048036038101906102829190612927565b611084565b60405161029b989796959493929190612f85565b60405180910390f35b6102be60048036038101906102b9919061288e565b6111a9565b005b6102c861134f565b6040516102d5919061300a565b60405180910390f35b6102f860048036038101906102f3919061288e565b611355565b6040516103059190613094565b60405180910390f35b61032860048036038101906103239190612927565b611563565b60405161033894939291906130b6565b60405180910390f35b61035b60048036038101906103569190612e43565b611648565b005b6103656119fd565b604051610372919061300a565b60405180910390f35b6103956004803603810190610390919061288e565b611a03565b6040516103a29190613094565b60405180910390f35b6103c560048036038101906103c091906131ca565b611c47565b005b6103e160048036038101906103dc9190612927565b6120a1565b6040516103ee9190613094565b60405180910390f35b610411600480360381019061040c9190612927565b612168565b60405161042699989796959493929190613255565b60405180910390f35b610437612316565b60405161044491906132e9565b60405180910390f35b61046760048036038101906104629190613304565b61233a565b6040516104749190613094565b60405180910390f35b60016020528060005260406000206000915054906101000a900460ff1681565b6104a561276b565b60006002600084815260200190815260200160002060000154036104fe576040517f08c379a00000000000000000000000000000000000000000000000000000000081526004016104f590613390565b60405180910390fd5b600260008381526020019081526020016000206040518060a001604052908160008201548152602001600182018054610536906133df565b80601f0160208091040260200160405190810160405280929190818152602001828054610562906133df565b80156105af5780601f10610584576101008083540402835291602001916105af565b820191906000526020600020905b81548152906001019060200180831161059257829003601f168201915b505050505081526020016002820160009054906101000a900473ffffffffffffffffffffffffffffffffffffffff1673ffffffffffffffffffffffffffffffffffffffff1673ffffffffffffffffffffffffffffffffffffffff1681526020016003820180548060200260200160405190810160405280929190818152602001828054801561065d57602002820191906000526020600020905b815481526020019060010190808311610649575b505050505081526020016004820160009054906101000a900460ff1615151515815250509050919050565b8060006004600083815260200190815260200160002060000154036106e2576040517f08c379a00000000000000000000000000000000000000000000000000000000081526004016106d99061345c565b60405180910390fd5b3373ffffffffffffffffffffffffffffffffffffffff166004600083815260200190815260200160002060020160009054906101000a900473ffffffffffffffffffffffffffffffffffffffff1673ffffffffffffffffffffffffffffffffffffffff1614610786576040517f08c379a000000000000000000000000000000000000000000000000000000000815260040161077d906134c8565b60405180910390fd5b816000600181111561079b5761079a612ec4565b5b6004600083815260200190815260200160002060070160109054906101000a900460ff1660018111156107d1576107d0612ec4565b5b14610811576040517f08c379a000000000000000000000000000000000000000000000000000000000815260040161080890613534565b60405180910390fd5b600060046000858152602001908152602001600020905060018160070160106101000a81548160ff021916908360018111156108505761084f612ec4565b5b0217905550428160070160086101000a81548167ffffffffffffffff021916908367ffffffffffffffff160217905550837fce35d9991cd89e4954f1cd437dec442a95be67615171c2dcac7c8e1777f8f098826006015483600301805490506040516108bd929190613554565b60405180910390a250505050565b60008054906101000a900473ffffffffffffffffffffffffffffffffffffffff1673ffffffffffffffffffffffffffffffffffffffff163373ffffffffffffffffffffffffffffffffffffffff1614610959576040517f08c379a0000000000000000000000000000000000000000000000000000000008152600401610950906135c9565b60405180910390fd5b600073ffffffffffffffffffffffffffffffffffffffff168173ffffffffffffffffffffffffffffffffffffffff16036109c8576040517f08c379a00000000000000000000000000000000000000000000000000000000081526004016109bf90613635565b60405180910390fd5b6000600160008373ffffffffffffffffffffffffffffffffffffffff1673ffffffffffffffffffffffffffffffffffffffff16815260200190815260200160002060006101000a81548160ff0219169083151502179055508073ffffffffffffffffffffffffffffffffffffffff167f21d4de8ef3f1fb405c7d0667855fd39e3b72e0c6eb6f66e768fc71017f4758266000604051610a6791906128d6565b60405180910390a250565b6000806000600460008681526020019081526020016000206000015403610ace576040517f08c379a0000000000000000000000000000000000000000000000000000000008152600401610ac59061345c565b60405180910390fd5b6004600085815260200190815260200160002060040160008473ffffffffffffffffffffffffffffffffffffffff1673ffffffffffffffffffffffffffffffffffffffff16815260200190815260200160002060009054906101000a900460ff166004600086815260200190815260200160002060050160008573ffffffffffffffffffffffffffffffffffffffff1673ffffffffffffffffffffffffffffffffffffffff16815260200190815260200160002060009054906101000a900460ff16915091509250929050565b600160003373ffffffffffffffffffffffffffffffffffffffff1673ffffffffffffffffffffffffffffffffffffffff16815260200190815260200160002060009054906101000a900460ff16610c27576040517f08c379a0000000000000000000000000000000000000000000000000000000008152600401610c1e906136a1565b60405180910390fd5b6000815111610c6b576040517f08c379a0000000000000000000000000000000000000000000000000000000008152600401610c629061370d565b60405180910390fd5b60036000815480929190610c7e9061375c565b91905055506040518060a0016040528060035481526020018281526020013373ffffffffffffffffffffffffffffffffffffffff168152602001600067ffffffffffffffff811115610cd357610cd2612bd2565b5b604051908082528060200260200182016040528015610d015781602001602082028036833780820191505090505b50815260200160011515815250600260006003548152602001908152602001600020600082015181600001556020820151816001019081610d429190613950565b5060408201518160020160006101000a81548173ffffffffffffffffffffffffffffffffffffffff021916908373ffffffffffffffffffffffffffffffffffffffff1602179055506060820151816003019080519060200190610da69291906127b2565b5060808201518160040160006101000a81548160ff0219169083151502179055509050503373ffffffffffffffffffffffffffffffffffffffff166003547f643641c76a40022c4b01cf88a92e7ca45eadfbe987252a93d9ee71b286fd3a8383604051610e139190613a22565b60405180910390a350565b60606000600460008481526020019081526020016000206000015403610e79576040517f08c379a0000000000000000000000000000000000000000000000000000000008152600401610e709061345c565b60405180910390fd5b60046000838152602001908152602001600020600301805480602002602001604051908101604052809291908181526020018280548015610f0f57602002820191906000526020600020905b8160009054906101000a900473ffffffffffffffffffffffffffffffffffffffff1673ffffffffffffffffffffffffffffffffffffffff1681526020019060010190808311610ec5575b50505050509050919050565b816000600260008381526020019081526020016000206000015403610f75576040517f08c379a0000000000000000000000000000000000000000000000000000000008152600401610f6c90613390565b60405180910390fd5b3373ffffffffffffffffffffffffffffffffffffffff166002600083815260200190815260200160002060020160009054906101000a900473ffffffffffffffffffffffffffffffffffffffff1673ffffffffffffffffffffffffffffffffffffffff1614611019576040517f08c379a000000000000000000000000000000000000000000000000000000000815260040161101090613a90565b60405180910390fd5b816002600085815260200190815260200160002060040160006101000a81548160ff021916908315150217905550827fd8df091a46b7f30a953a2033fda083156567ac390c34a49d4d487880cc38a9cf8360405161107791906128d6565b60405180910390a2505050565b60046020528060005260406000206000915090508060000154908060010154908060020160009054906101000a900473ffffffffffffffffffffffffffffffffffffffff16908060060154908060070160009054906101000a900467ffffffffffffffff16908060070160089054906101000a900467ffffffffffffffff16908060070160109054906101000a900460ff1690806008018054611126906133df565b80601f0160208091040260200160405190810160405280929190818152602001828054611152906133df565b801561119f5780601f106111745761010080835404028352916020019161119f565b820191906000526020600020905b81548152906001019060200180831161118257829003601f168201915b5050505050905088565b60008054906101000a900473ffffffffffffffffffffffffffffffffffffffff1673ffffffffffffffffffffffffffffffffffffffff163373ffffffffffffffffffffffffffffffffffffffff1614611237576040517f08c379a000000000000000000000000000000000000000000000000000000000815260040161122e906135c9565b60405180910390fd5b600073ffffffffffffffffffffffffffffffffffffffff168173ffffffffffffffffffffffffffffffffffffffff16036112a6576040517f08c379a000000000000000000000000000000000000000000000000000000000815260040161129d90613635565b60405180910390fd5b60018060008373ffffffffffffffffffffffffffffffffffffffff1673ffffffffffffffffffffffffffffffffffffffff16815260200190815260200160002060006101000a81548160ff0219169083151502179055508073ffffffffffffffffffffffffffffffffffffffff167f21d4de8ef3f1fb405c7d0667855fd39e3b72e0c6eb6f66e768fc71017f475826600160405161134491906128d6565b60405180910390a250565b60035481565b6060600080600190505b6003548111611420578373ffffffffffffffffffffffffffffffffffffffff166002600083815260200190815260200160002060020160009054906101000a900473ffffffffffffffffffffffffffffffffffffffff1673ffffffffffffffffffffffffffffffffffffffff161480156113f957506002600082815260200190815260200160002060040160009054906101000a900460ff165b1561140d5781806114099061375c565b9250505b80806114189061375c565b91505061135f565b5060008167ffffffffffffffff81111561143d5761143c612bd2565b5b60405190808252806020026020018201604052801561146b5781602001602082028036833780820191505090505b509050600080600190505b6003548111611557578573ffffffffffffffffffffffffffffffffffffffff166002600083815260200190815260200160002060020160009054906101000a900473ffffffffffffffffffffffffffffffffffffffff1673ffffffffffffffffffffffffffffffffffffffff1614801561151057506002600082815260200190815260200160002060040160009054906101000a900460ff165b15611544578083838151811061152957611528613ab0565b5b60200260200101818152505081806115409061375c565b9250505b808061154f9061375c565b915050611476565b50819350505050919050565b600260205280600052604060002060009150905080600001549080600101805461158c906133df565b80601f01602080910402602001604051908101604052809291908181526020018280546115b8906133df565b80156116055780601f106115da57610100808354040283529160200191611605565b820191906000526020600020905b8154815290600101906020018083116115e857829003601f168201915b5050505050908060020160009054906101000a900473ffffffffffffffffffffffffffffffffffffffff16908060040160009054906101000a900460ff16905084565b8160008060046000848152602001908152602001600020600301905060005b81805490508110156116ff573373ffffffffffffffffffffffffffffffffffffffff1682828154811061169d5761169c613ab0565b5b9060005260206000200160009054906101000a900473ffffffffffffffffffffffffffffffffffffffff1673ffffffffffffffffffffffffffffffffffffffff16036116ec57600192506116ff565b80806116f79061375c565b915050611667565b5081611740576040517f08c379a000000000000000000000000000000000000000000000000000000000815260040161173790613b2b565b60405180910390fd5b846000600181111561175557611754612ec4565b5b6004600083815260200190815260200160002060070160109054906101000a900460ff16600181111561178b5761178a612ec4565b5b146117cb576040517f08c379a00000000000000000000000000000000000000000000000000000000081526004016117c290613534565b60405180910390fd5b60006004600088815260200190815260200160002090508060040160003373ffffffffffffffffffffffffffffffffffffffff1673ffffffffffffffffffffffffffffffffffffffff16815260200190815260200160002060009054906101000a900460ff1615611871576040517f08c379a000000000000000000000000000000000000000000000000000000000815260040161186890613b97565b60405180910390fd5b60018160040160003373ffffffffffffffffffffffffffffffffffffffff1673ffffffffffffffffffffffffffffffffffffffff16815260200190815260200160002060006101000a81548160ff021916908315150217905550851561194a5760018160050160003373ffffffffffffffffffffffffffffffffffffffff1673ffffffffffffffffffffffffffffffffffffffff16815260200190815260200160002060006101000a81548160ff0219169083151502179055508060060160008154809291906119409061375c565b91905055506119a5565b60008160050160003373ffffffffffffffffffffffffffffffffffffffff1673ffffffffffffffffffffffffffffffffffffffff16815260200190815260200160002060006101000a81548160ff0219169083151502179055505b3373ffffffffffffffffffffffffffffffffffffffff16877f78f3a3825f7635f259d40ce1582465bfd9c7b342b345995c7abe5bbb948b1259886040516119ec91906128d6565b60405180910390a350505050505050565b60055481565b6060600080600190505b6005548111611aea57600060046000838152602001908152602001600020600301905060005b8180549050811015611ad5578573ffffffffffffffffffffffffffffffffffffffff16828281548110611a6957611a68613ab0565b5b9060005260206000200160009054906101000a900473ffffffffffffffffffffffffffffffffffffffff1673ffffffffffffffffffffffffffffffffffffffff1603611ac2578380611aba9061375c565b945050611ad5565b8080611acd9061375c565b915050611a33565b50508080611ae29061375c565b915050611a0d565b5060008167ffffffffffffffff811115611b0757611b06612bd2565b5b604051908082528060200260200182016040528015611b355781602001602082028036833780820191505090505b509050600080600190505b6005548111611c3b57600060046000838152602001908152602001600020600301905060005b8180549050811015611c26578773ffffffffffffffffffffffffffffffffffffffff16828281548110611b9c57611b9b613ab0565b5b9060005260206000200160009054906101000a900473ffffffffffffffffffffffffffffffffffffffff1673ffffffffffffffffffffffffffffffffffffffff1603611c135782858580611bef9061375c565b965081518110611c0257611c01613ab0565b5b602002602001018181525050611c26565b8080611c1e9061375c565b915050611b66565b50508080611c339061375c565b915050611b40565b50819350505050919050565b826000600260008381526020019081526020016000206000015403611ca1576040517f08c379a0000000000000000000000000000000000000000000000000000000008152600401611c9890613390565b60405180910390fd5b3373ffffffffffffffffffffffffffffffffffffffff166002600083815260200190815260200160002060020160009054906101000a900473ffffffffffffffffffffffffffffffffffffffff1673ffffffffffffffffffffffffffffffffffffffff1614611d45576040517f08c379a0000000000000000000000000000000000000000000000000000000008152600401611d3c90613a90565b60405180910390fd5b6002600085815260200190815260200160002060040160009054906101000a900460ff16611da8576040517f08c379a0000000000000000000000000000000000000000000000000000000008152600401611d9f90613c03565b60405180910390fd5b6000835111611dec576040517f08c379a0000000000000000000000000000000000000000000000000000000008152600401611de390613c6f565b60405180910390fd5b60056000815480929190611dff9061375c565b9190505550600060046000600554815260200190815260200160002090506005548160000181905550848160010181905550338160020160006101000a81548173ffffffffffffffffffffffffffffffffffffffff021916908373ffffffffffffffffffffffffffffffffffffffff16021790555060005b8451811015611f9b57600073ffffffffffffffffffffffffffffffffffffffff16858281518110611eab57611eaa613ab0565b5b602002602001015173ffffffffffffffffffffffffffffffffffffffff1603611f09576040517f08c379a0000000000000000000000000000000000000000000000000000000008152600401611f0090613cdb565b60405180910390fd5b81600301858281518110611f2057611f1f613ab0565b5b60200260200101519080600181540180825580915050600190039060005260206000200160009091909190916101000a81548173ffffffffffffffffffffffffffffffffffffffff021916908373ffffffffffffffffffffffffffffffffffffffff1602179055508080611f939061375c565b915050611e77565b5060008160070160106101000a81548160ff02191690836001811115611fc457611fc3612ec4565b5b0217905550428160070160006101000a81548167ffffffffffffffff021916908367ffffffffffffffff160217905550828160080190816120059190613950565b506002600086815260200190815260200160002060030160055490806001815401808255809150506001900390600052602060002001600090919091909150553373ffffffffffffffffffffffffffffffffffffffff16856005547f017a6b6bc8aca9b157488d4efcf8dd92a1459c3c90e7a8783dc0a6c6d9e18d41875187604051612092929190613cfb565b60405180910390a45050505050565b606060006002600084815260200190815260200160002060000154036120fc576040517f08c379a00000000000000000000000000000000000000000000000000000000081526004016120f390613390565b60405180910390fd5b6002600083815260200190815260200160002060030180548060200260200160405190810160405280929190818152602001828054801561215c57602002820191906000526020600020905b815481526020019060010190808311612148575b50505050509050919050565b60008060008060008060008060606000600460008c815260200190815260200160002060000154036121cf576040517f08c379a00000000000000000000000000000000000000000000000000000000081526004016121c69061345c565b60405180910390fd5b6000600460008c81526020019081526020016000209050806000015481600101548260020160009054906101000a900473ffffffffffffffffffffffffffffffffffffffff16836003018054905084600601548560070160009054906101000a900467ffffffffffffffff168660070160089054906101000a900467ffffffffffffffff168760070160109054906101000a900460ff1688600801808054612276906133df565b80601f01602080910402602001604051908101604052809291908181526020018280546122a2906133df565b80156122ef5780601f106122c4576101008083540402835291602001916122ef565b820191906000526020600020905b8154815290600101906020018083116122d257829003601f168201915b50505050509050995099509950995099509950995099509950509193959799909294969850565b60008054906101000a900473ffffffffffffffffffffffffffffffffffffffff1681565b60606000600260008481526020019081526020016000206000015403612395576040517f08c379a000000000000000000000000000000000000000000000000000000000815260040161238c90613390565b60405180910390fd5b60006002600084815260200190815260200160002060030190506000805b82805490508110156125505760008382815481106123d4576123d3613ab0565b5b9060005260206000200154905060006004600083815260200190815260200160002090506000600181111561240c5761240b612ec4565b5b8160070160109054906101000a900460ff1660018111156124305761242f612ec4565b5b0361253b5760005b8160030180549050811015612539578873ffffffffffffffffffffffffffffffffffffffff1682600301828154811061247457612473613ab0565b5b9060005260206000200160009054906101000a900473ffffffffffffffffffffffffffffffffffffffff1673ffffffffffffffffffffffffffffffffffffffff1614801561250e57508160040160008a73ffffffffffffffffffffffffffffffffffffffff1673ffffffffffffffffffffffffffffffffffffffff16815260200190815260200160002060009054906101000a900460ff16155b1561252657848061251e9061375c565b955050612539565b80806125319061375c565b915050612438565b505b505080806125489061375c565b9150506123b3565b5060008167ffffffffffffffff81111561256d5761256c612bd2565b5b60405190808252806020026020018201604052801561259b5781602001602082028036833780820191505090505b5090506000805b848054905081101561275d5760008582815481106125c3576125c2613ab0565b5b906000526020600020015490506000600460008381526020019081526020016000209050600060018111156125fb576125fa612ec4565b5b8160070160109054906101000a900460ff16600181111561261f5761261e612ec4565b5b036127485760005b8160030180549050811015612746578a73ffffffffffffffffffffffffffffffffffffffff1682600301828154811061266357612662613ab0565b5b9060005260206000200160009054906101000a900473ffffffffffffffffffffffffffffffffffffffff1673ffffffffffffffffffffffffffffffffffffffff161480156126fd57508160040160008c73ffffffffffffffffffffffffffffffffffffffff1673ffffffffffffffffffffffffffffffffffffffff16815260200190815260200160002060009054906101000a900460ff16155b15612733578286868061270f9061375c565b97508151811061272257612721613ab0565b5b602002602001018181525050612746565b808061273e9061375c565b915050612627565b505b505080806127559061375c565b9150506125a2565b508194505050505092915050565b6040518060a001604052806000815260200160608152602001600073ffffffffffffffffffffffffffffffffffffffff168152602001606081526020016000151581525090565b8280548282559060005260206000209081019282156127ee579160200282015b828111156127ed5782518255916020019190600101906127d2565b5b5090506127fb91906127ff565b5090565b5b80821115612818576000816000905550600101612800565b5090565b6000604051905090565b600080fd5b600080fd5b600073ffffffffffffffffffffffffffffffffffffffff82169050919050565b600061285b82612830565b9050919050565b61286b81612850565b811461287657600080fd5b50565b60008135905061288881612862565b92915050565b6000602082840312156128a4576128a3612826565b5b60006128b284828501612879565b91505092915050565b60008115159050919050565b6128d0816128bb565b82525050565b60006020820190506128eb60008301846128c7565b92915050565b6000819050919050565b612904816128f1565b811461290f57600080fd5b50565b600081359050612921816128fb565b92915050565b60006020828403121561293d5761293c612826565b5b600061294b84828501612912565b91505092915050565b61295d816128f1565b82525050565b600081519050919050565b600082825260208201905092915050565b60005b8381101561299d578082015181840152602081019050612982565b60008484015250505050565b6000601f19601f8301169050919050565b60006129c582612963565b6129cf818561296e565b93506129df81856020860161297f565b6129e8816129a9565b840191505092915050565b6129fc81612850565b82525050565b600081519050919050565b600082825260208201905092915050565b6000819050602082019050919050565b6000612a3a8383612954565b60208301905092915050565b6000602082019050919050565b6000612a5e82612a02565b612a688185612a0d565b9350612a7383612a1e565b8060005b83811015612aa4578151612a8b8882612a2e565b9750612a9683612a46565b925050600181019050612a77565b5085935050505092915050565b612aba816128bb565b82525050565b600060a083016000830151612ad86000860182612954565b5060208301518482036020860152612af082826129ba565b9150506040830151612b0560408601826129f3565b5060608301518482036060860152612b1d8282612a53565b9150506080830151612b326080860182612ab1565b508091505092915050565b60006020820190508181036000830152612b578184612ac0565b905092915050565b60008060408385031215612b7657612b75612826565b5b6000612b8485828601612912565b9250506020612b9585828601612879565b9150509250929050565b6000604082019050612bb460008301856128c7565b612bc160208301846128c7565b9392505050565b600080fd5b600080fd5b7f4e487b7100000000000000000000000000000000000000000000000000000000600052604160045260246000fd5b612c0a826129a9565b810181811067ffffffffffffffff82111715612c2957612c28612bd2565b5b80604052505050565b6000612c3c61281c565b9050612c488282612c01565b919050565b600067ffffffffffffffff821115612c6857612c67612bd2565b5b612c71826129a9565b9050602081019050919050565b82818337600083830152505050565b6000612ca0612c9b84612c4d565b612c32565b905082815260208101848484011115612cbc57612cbb612bcd565b5b612cc7848285612c7e565b509392505050565b600082601f830112612ce457612ce3612bc8565b5b8135612cf4848260208601612c8d565b91505092915050565b600060208284031215612d1357612d12612826565b5b600082013567ffffffffffffffff811115612d3157612d3061282b565b5b612d3d84828501612ccf565b91505092915050565b600081519050919050565b600082825260208201905092915050565b6000819050602082019050919050565b6000612d7e83836129f3565b60208301905092915050565b6000602082019050919050565b6000612da282612d46565b612dac8185612d51565b9350612db783612d62565b8060005b83811015612de8578151612dcf8882612d72565b9750612dda83612d8a565b925050600181019050612dbb565b5085935050505092915050565b60006020820190508181036000830152612e0f8184612d97565b905092915050565b612e20816128bb565b8114612e2b57600080fd5b50565b600081359050612e3d81612e17565b92915050565b60008060408385031215612e5a57612e59612826565b5b6000612e6885828601612912565b9250506020612e7985828601612e2e565b9150509250929050565b612e8c816128f1565b82525050565b612e9b81612850565b82525050565b600067ffffffffffffffff82169050919050565b612ebe81612ea1565b82525050565b7f4e487b7100000000000000000000000000000000000000000000000000000000600052602160045260246000fd5b60028110612f0457612f03612ec4565b5b50565b6000819050612f1582612ef3565b919050565b6000612f2582612f07565b9050919050565b612f3581612f1a565b82525050565b600082825260208201905092915050565b6000612f5782612963565b612f618185612f3b565b9350612f7181856020860161297f565b612f7a816129a9565b840191505092915050565b600061010082019050612f9b600083018b612e83565b612fa8602083018a612e83565b612fb56040830189612e92565b612fc26060830188612e83565b612fcf6080830187612eb5565b612fdc60a0830186612eb5565b612fe960c0830185612f2c565b81810360e0830152612ffb8184612f4c565b90509998505050505050505050565b600060208201905061301f6000830184612e83565b92915050565b600082825260208201905092915050565b600061304182612a02565b61304b8185613025565b935061305683612a1e565b8060005b8381101561308757815161306e8882612a2e565b975061307983612a46565b92505060018101905061305a565b5085935050505092915050565b600060208201905081810360008301526130ae8184613036565b905092915050565b60006080820190506130cb6000830187612e83565b81810360208301526130dd8186612f4c565b90506130ec6040830185612e92565b6130f960608301846128c7565b95945050505050565b600067ffffffffffffffff82111561311d5761311c612bd2565b5b602082029050602081019050919050565b600080fd5b600061314661314184613102565b612c32565b905080838252602082019050602084028301858111156131695761316861312e565b5b835b81811015613192578061317e8882612879565b84526020840193505060208101905061316b565b5050509392505050565b600082601f8301126131b1576131b0612bc8565b5b81356131c1848260208601613133565b91505092915050565b6000806000606084860312156131e3576131e2612826565b5b60006131f186828701612912565b935050602084013567ffffffffffffffff8111156132125761321161282b565b5b61321e8682870161319c565b925050604084013567ffffffffffffffff81111561323f5761323e61282b565b5b61324b86828701612ccf565b9150509250925092565b60006101208201905061326b600083018c612e83565b613278602083018b612e83565b613285604083018a612e92565b6132926060830189612e83565b61329f6080830188612e83565b6132ac60a0830187612eb5565b6132b960c0830186612eb5565b6132c660e0830185612f2c565b8181036101008301526132d98184612f4c565b90509a9950505050505050505050565b60006020820190506132fe6000830184612e92565b92915050565b6000806040838503121561331b5761331a612826565b5b600061332985828601612879565b925050602061333a85828601612912565b9150509250929050565b7f414d3a436f757273654e6f74466f756e64000000000000000000000000000000600082015250565b600061337a601183612f3b565b915061338582613344565b602082019050919050565b600060208201905081810360008301526133a98161336d565b9050919050565b7f4e487b7100000000000000000000000000000000000000000000000000000000600052602260045260246000fd5b600060028204905060018216806133f757607f821691505b60208210810361340a576134096133b0565b5b50919050565b7f414d3a466f726d4e6f74466f756e640000000000000000000000000000000000600082015250565b6000613446600f83612f3b565b915061345182613410565b602082019050919050565b6000602082019050818103600083015261347581613439565b9050919050565b7f414d3a4e6f74466f726d54656163686572000000000000000000000000000000600082015250565b60006134b2601183612f3b565b91506134bd8261347c565b602082019050919050565b600060208201905081810360008301526134e1816134a5565b9050919050565b7f414d3a466f726d4e6f744f70656e000000000000000000000000000000000000600082015250565b600061351e600e83612f3b565b9150613529826134e8565b602082019050919050565b6000602082019050818103600083015261354d81613511565b9050919050565b60006040820190506135696000830185612e83565b6135766020830184612e83565b9392505050565b7f414d3a4f6e6c7941646d696e0000000000000000000000000000000000000000600082015250565b60006135b3600c83612f3b565b91506135be8261357d565b602082019050919050565b600060208201905081810360008301526135e2816135a6565b9050919050565b7f414d3a496e76616c696454656163686572416464726573730000000000000000600082015250565b600061361f601883612f3b565b915061362a826135e9565b602082019050919050565b6000602082019050818103600083015261364e81613612565b9050919050565b7f414d3a4f6e6c7954656163686572000000000000000000000000000000000000600082015250565b600061368b600e83612f3b565b915061369682613655565b602082019050919050565b600060208201905081810360008301526136ba8161367e565b9050919050565b7f414d3a436f757273654e616d65456d7074790000000000000000000000000000600082015250565b60006136f7601283612f3b565b9150613702826136c1565b602082019050919050565b60006020820190508181036000830152613726816136ea565b9050919050565b7f4e487b7100000000000000000000000000000000000000000000000000000000600052601160045260246000fd5b6000613767826128f1565b91507fffffffffffffffffffffffffffffffffffffffffffffffffffffffffffffffff82036137995761379861372d565b5b600182019050919050565b60008190508160005260206000209050919050565b60006020601f8301049050919050565b600082821b905092915050565b6000600883026138067fffffffffffffffffffffffffffffffffffffffffffffffffffffffffffffffff826137c9565b61381086836137c9565b95508019841693508086168417925050509392505050565b6000819050919050565b600061384d613848613843846128f1565b613828565b6128f1565b9050919050565b6000819050919050565b61386783613832565b61387b61387382613854565b8484546137d6565b825550505050565b600090565b613890613883565b61389b81848461385e565b505050565b5b818110156138bf576138b4600082613888565b6001810190506138a1565b5050565b601f821115613904576138d5816137a4565b6138de846137b9565b810160208510156138ed578190505b6139016138f9856137b9565b8301826138a0565b50505b505050565b600082821c905092915050565b600061392760001984600802613909565b1980831691505092915050565b60006139408383613916565b9150826002028217905092915050565b61395982612963565b67ffffffffffffffff81111561397257613971612bd2565b5b61397c82546133df565b6139878282856138c3565b600060209050601f8311600181146139ba57600084156139a8578287015190505b6139b28582613934565b865550613a1a565b601f1984166139c8866137a4565b60005b828110156139f0578489015182556001820191506020850194506020810190506139cb565b86831015613a0d5784890151613a09601f891682613916565b8355505b6001600288020188555050505b505050505050565b60006020820190508181036000830152613a3c8184612f4c565b905092915050565b7f414d3a4e6f74436f757273655465616368657200000000000000000000000000600082015250565b6000613a7a601383612f3b565b9150613a8582613a44565b602082019050919050565b60006020820190508181036000830152613aa981613a6d565b9050919050565b7f4e487b7100000000000000000000000000000000000000000000000000000000600052603260045260246000fd5b7f414d3a4e6f74456e726f6c6c6564496e466f726d000000000000000000000000600082015250565b6000613b15601483612f3b565b9150613b2082613adf565b602082019050919050565b60006020820190508181036000830152613b4481613b08565b9050919050565b7f414d3a416c7265616479526573706f6e64656400000000000000000000000000600082015250565b6000613b81601383612f3b565b9150613b8c82613b4b565b602082019050919050565b60006020820190508181036000830152613bb081613b74565b9050919050565b7f414d3a436f757273654e6f744163746976650000000000000000000000000000600082015250565b6000613bed601283612f3b565b9150613bf882613bb7565b602082019050919050565b60006020820190508181036000830152613c1c81613be0565b9050919050565b7f414d3a53747564656e744c697374456d70747900000000000000000000000000600082015250565b6000613c59601383612f3b565b9150613c6482613c23565b602082019050919050565b60006020820190508181036000830152613c8881613c4c565b9050919050565b7f414d3a496e76616c696453747564656e7441646472496e4c6973740000000000600082015250565b6000613cc5601b83612f3b565b9150613cd082613c8f565b602082019050919050565b60006020820190508181036000830152613cf481613cb8565b9050919050565b6000604082019050613d106000830185612e83565b8181036020830152613d228184612f4c565b9050939250505056fea2646970667358221220fadaaabdb410512320ef26121f1296fb639c4047f6339db68f6bbd96b824531f64736f6c63430008130033",
  "linkReferences": {},
  "deployedLinkReferences": {}
}